:020000040800F2
:10000000584300204D02000855020008570200081E
:10001000590200085B0200085D02000800000000B1
:100020000000000000000000000000009D0100082A
:100030006102000800000000E1010008E53200084C
:1000400067020008670200086702000867020008EC
:1000500067020008670200086702000867020008DC
:1000600067020008670200086702000867020008CC
:1000700067020008670200086702000867020008BC
:1000800067020008670200086702000867020008AC
:1000900001480008670200086702000867020008BC
:1000A000670200086702000867020008670200088C
:1000B000670200086702000867020008670200087C
:1000C000670200086702000867020008670200086C
:1000D0006702000867020008053900086702000887
:1000E000670200086702000867020008670200084C
:1000F000670200086702000867020008670200083C
:10010000000000000000000000000000670200087E
:10011000670200086702000867020008670200081B
:10012000670200086702000867020008670200080B
:1001300067020008670200080000000000000000DD
:10014000670200086702000867020008000000005C
:10015000000000000000000000000000000000009F
:1001600000000000000000006702000867020008AD
:10017000670200080000000000000000000000000E
:100180000000000067020008DFF80CD000F094F8CF
:1001900000480047C94A000858430020234B19680B
:1001A0000868B0E8F04F80F309884FF0000080F352
:1001B000118870470000000003480068006880F361
:1001C000088862B600DF00BF08ED00E0DFF80C0031
:1001D000016841F470010160704700BF88ED00E0E4
:1001E000EFF30980114B1A681EF0100F08BF20EDC5
:1001F000108A20E9F04F106008B44FF0500080F3EF
:10020000118805F02FFA4FF0000080F3118808BC28
:1002100019680868B0E8F04F1EF0100F08BFB0EC86
:10022000108A80F30988704700BF00BFA401002036
:10023000EFF311804FF0500181F31188704780F384
:1002400011887047EFF3058070470000064880472B
:1002500006480047FEE7FEE7FEE7FEE7FEE7FEE7AB
:10026000FEE7FEE7FEE7FEE77133000889010008BC
:1002700040EA01039B0703D009E008C9121F08C028
:10028000042AFAD203E011F8013B00F8013B521EA8
:10029000F9D27047D2B201E000F8012B491EFBD21F
:1002A00070470022F6E710B513460A460446194681
:1002B000FFF7F0FF204610BD064C074D06E0E06852
:1002C00040F0010394E8070098471034AC42F6D39D
:1002D000FFF75EFFE46100080462000870B58C1847
:1002E00010F8015B15F0070301D110F8013B2A114A
:1002F00006D110F8012B03E010F8016B01F8016B37
:100300005B1EF9D12B0705D40023521E0DD401F832
:10031000013BFAE710F8013BCB1A921C03E013F8FB
:10032000015B01F8015B521EF9D5A142D8D3002030
:1003300070BD000010B586B0044634B9304840693D
:1003400040F400102E4948613FE0012C06D12C48B2
:10035000406940F400102A49486136E0022C06D179
:100360002748406940F40010254948612DE0032CDE
:1003700006D12348406940F400102149486124E037
:10038000042C06D11E48406940F400101C49486105
:100390001BE0052C06D11A48406940F400101849AA
:1003A000486112E0062C06D11548406940F400105F
:1003B0001349486109E0072C06D11148406940F40F
:1003C00000100F49486100E000BF0E4830F81400EB
:1003D0000190012002900390032004900A4951F8F3
:1003E000240001A900F0AAF9064A32F81410064ABE
:1003F00052F82400002200F087FA06B010BD000079
:1004000000100240786100086001002010B5044629
:10041000044A32F81410044A52F82400002200F072
:1004200073FA10BD786100086001002010B5044621
:10043000044A32F81410044A52F82400012200F051
:1004400063FA10BD78610008600100200346042BA8
:1004500015D007DC7BB1012B0ED0022B0DD0032B66
:1004600012D10BE0202B0BD0212B0AD0222B09D04C
:10047000232B09D107E008E007E006E005E004E0EF
:1004800003E002E001E000E000BF00BF0020704791
:100490000020704710B50848084908600022084944
:1004A0000648006803F01DFB06490448006803F095
:1004B00011FB002010BD00000C06002000000020F1
:1004C0000C0400200C02002070B504460D460026E6
:1004D00000BF04E014F8010B04F062FA761C2868EF
:1004E000B042F7D8002070BD70B504460D46002616
:1004F0002A4621460548006803F0F3FA03480068DD
:1005000003F02EFB0646304670BD000000000020C0
:1005100088B0002214210A2005F08FF940490860B4
:100520007CE000235A1E03A93D48006805F0B3F99A
:100530009DF80C00312871D100BF9DF805008DF8A1
:1005400004009DF806008DF805009DF807008DF861
:1005500006009DF800008DF80700684604F06AF96F
:1005600004463CB99DF800003A2803D09DF80000ED
:100570003B28E2D1002C51D19DF8070000069DF8E0
:10058000061040EA01409DF8051040EA01209DF860
:10059000041008432349084448B123490844A8B13A
:1005A0002249084408B32249084428BB16E0002326
:1005B0005A1E20A12148006805F049FA00235A1E5E
:1005C0001FA11E48006805F042FA26E000235A1ECB
:1005D00020A11A48006805F03AFA1EE004F014FB66
:1005E0000546284604F046FB17E004F0D7FA054616
:1005F000284604F03FFB10E000235A1E1AA10F48C2
:10060000006805F024FA00BF684604F013F918B931
:100610009DF800003B28F7D100BF00BF81E7000034
:1006200000020020B7BBB1C0F3FEFBFF13F604ECE1
:10063000F0F5F9FE41434B5F00000000040200208A
:1006400053544D333246332D446973636F7665726C
:10065000790000003953656E64537973745665727E
:1006600073696F6E000000004539393900000000E1
:1006700088B004F073F900221E21052005F0DDF892
:100680002C490860042005F0ADF82B4908604FE0C4
:1006900000235A1E69462748006805F0FCF84FF011
:1006A000FF312548006805F0D2FA9DF80000312896
:1006B0003AD09DF80000322836D09DF8000033284B
:1006C00002D104F085FD2FE09DF80000342802D10E
:1006D00004F04AFD28E09DF80000352824D09DF85C
:1006E0000000362820D09DF8000037281CD09DF847
:1006F0000000382818D09DF80000392802D104F0F5
:1007000083FD11E09DF8000049280AD100235A1EFC
:1007100069460848006805F0BEF8684604F080F9AC
:1007200002E0684604F07CF90348006805F072FABC
:10073000AEE700000402002008020020F0B50346E6
:100740000A460025002400200021C9E0012606FAFF
:1007500001F5166806EA0504AC426FD15668022E10
:1007600002D05668122E13D1CF0803F1200656F896
:1007700027004E07F70E0F26BE40B0434F07FF0E6F
:100780001669BE403043CF0803F1200646F8270023
:1007900018684F000326BE40B043167906F00306E2
:1007A0004F00BE40304318605668012E08D056688E
:1007B000022E05D05668112E02D05668122E13D183
:1007C00098684F000326BE40B0434F00D668BE4035
:1007D00030439860586801268E40B0431679C6F3BE
:1007E00000168E4030435860D8684F000326BE4044
:1007F000B0434F009668BE403043D860566806F05C
:100800008056B6F1805F6AD1374EB66946F0010670
:10081000354FBE614FEAB7368F0856F827008E076E
:10082000370F0F26BE40B043B3F1904F01D10026E1
:100830001AE02E4EB34202D1012615E04FE02C4EB5
:10084000B34201D102260FE02A4EB34201D1032662
:100850000AE0294EB34201D1042605E0274EB342F7
:1008600001D1052600E006268F073F0FBE4030432A
:10087000234E8F0846F82700224E3068A043566862
:1008800006F48036B6F5803F00D120431D4E30601F
:10089000361D3068A043566806F40036B6F5003FB2
:1008A00000D12043174E361D3060361D3068A043FE
:1008B000566806F48016B6F5801F00D12043114E0D
:1008C00008363060361D3068A043566806F40016BE
:1008D000B6F5001F00D120430A4E0C363060491C8B
:1008E0001029FFF433AFF0BD0010024000040048AF
:1008F00000080048000C00480010004800140048A0
:1009000008000140000401400AB1018300E0418376
:10091000704700000048704700010101014800686D
:1009200070470000A001002002480068401C0149F7
:1009300008607047A001002010B50848006840F02A
:10094000100006490860032000F080F8002000F045
:1009500007F800F017F8002010BD0000002002404A
:1009600070B5044601F05AFC4FF47A71B0FBF1F512
:10097000284602F003F900222146501E00F027F815
:10098000002070BD10B5032000F060F80022114671
:10099000501E00F01CF810BD00BF00F01F02012126
:1009A0009140034A430942F8231000BF70470000FA
:1009B00080E200E000BF00F01F02012191404209E7
:1009C000920002F1E022C2F8001100BF70472DE949
:1009D000F05F80460D461646002702F007FA0746EC
:1009E00039462A46334601F00700C0F1070ABAF13A
:1009F000040F02D94FF0040A01E0C0F1070AD14602
:100A000000F1040ABAF1070F02D24FF0000A01E028
:100A1000A0F1030AD4464FF0010A0AFA09FAAAF132
:100A2000010A0AEA020A0AFA0CFA4FF0010B0BFA61
:100A30000CFBABF1010B0BEA030B4AEA0B0421465A
:100A4000404602F0DBF9BDE8F09F000000BF00F077
:100A50000702064B19684FF6FF031940044B0B437E
:100A600043EA0221014B196000BF70470CED00E022
:100A70000000FA0570B505460C4604F08000802899
:100A800008D104F07F00C0EBC00605F1280000EBA0
:100A9000860105E0C4EBC40605F5847000EB860111
:100AA0001AB9002088728B8004E001208872CB8004
:100AB000180C0881002070BD70B504460D46C5EBCA
:100AC000C50304F1280101EB83010A692946D4F822
:100AD0001C0203F0D7FA70BD70B504460D46C5EB95
:100AE000C50304F5847101EB83010A692946D4F832
:100AF0001C0203F028FB70BD70B502460B4603F0E4
:100B00008000802808D103F07F00C0EBC00402F110
:100B1000280000EB840107E003F07F00C0EBC00475
:100B200002F5847000EB840103F07F00087003F08D
:100B30008000C009487000BF92F8E801012801D187
:100B4000022070BD012082F8E80100BF887A0028E9
:100B500057D1487850B30C786400106830F814000E
:100B600000F0400078B10C786400106830F8140090
:100B700048F68F74204048F2C00420430D786D0081
:100B8000146824F815000D786D00146834F81540C9
:100B900048F6BF7504EA050040F4004444F08004C0
:100BA0000E787600156825F81640F7E00C7864009A
:100BB000106830F8140000F4804078B10C786400BC
:100BC000106830F8140048F68F7420404CF280040E
:100BD00020430D786D00146824F815000D786D0021
:100BE000146834F815404BF68F7504EA050040F49C
:100BF000004444F080040E787600156825F816400D
:100C0000CCE04878002864D10C786400106830F893
:100C1000140000F4804078B10C786400106830F85B
:100C2000140048F68F7420404CF2800420430D7865
:100C30006D00146824F815000C786400106830F812
:100C4000140000F0400078B10C786400106830F8AF
:100C5000140048F68F74204048F2C00420430D78F9
:100C60006D00146824F815000C786400106830F8E2
:100C7000140048F68F74204048F2C00420430D78D9
:100C80006D00146824F815000D786D00146834F8B0
:100C900015404BF68F7504EA050040F4004444F01B
:100CA00080040E787600156825F816400D786D00E2
:100CB000146834F8154048F6BF7504EA050040F49E
:100CC000004444F080040E787600156825F816403C
:100CD00064E00C786400106830F8140000F4804080
:100CE00078B10C786400106830F8140048F68F74FE
:100CF00020404CF2800420430D786D00146824F8E5
:100D000015000C786400106830F8140000F0400002
:100D100078B10C786400106830F8140048F68F74CD
:100D2000204048F2C00420430D786D00146824F878
:100D300015000C786400106830F8140048F68F74C1
:100D400020404CF2800420430D786D00146824F894
:100D500015000D786D00146834F8154048F6BF751D
:100D600004EA050040F4004444F080040E78760064
:100D7000156825F816400D786D00146834F8154094
:100D80004BF68F7504EA050040F4004444F08004FB
:100D90000E787600156825F8164000BF00BF0020C9
:100DA00082F8E80100BF00BFCBE670B502460B46F3
:100DB00003F08000802808D103F07F00C0EBC0045E
:100DC00002F1280000EB840105E0C3EBC30402F547
:100DD000847000EB84010020887003F07F000870AD
:100DE000C3F3C010487000BF92F8E801012801D198
:100DF000022070BD012082F8E80100BF487870B37E
:100E00000C786400106830F8140000F0400078B1ED
:100E10000C786400106830F8140048F68F74204095
:100E200048F2C00420430D786D00146824F81500C2
:100E30000D786D00146834F8154048F6BF7504EA63
:100E4000050080F0100080F0200040F4004444F0E1
:100E500080040E787600156825F816402EE00C7890
:100E60006400106830F8140000F4804078B10C7809
:100E70006400106830F8140048F68F7420404CF27B
:100E8000800420430D786D00146824F815000D7857
:100E90006D00146834F815404BF68F7504EA0500B0
:100EA00080F4805080F4005040F4004444F080040A
:100EB0000E787600156825F8164000BF00BF0020A8
:100EC00082F8E80100BF00BF93E7024601F07F000F
:100ED000C0EBC00302F5847000EB8300008B80B28E
:100EE00070472DE9F04104460D46002705F08000CB
:100EF000802808D105F07F00C0EBC00604F128006F
:100F000000EB860107E005F07F00C0EBC00604F5AA
:100F1000847000EB860105F07F00087005F080000A
:100F2000C0094870CA60CB7000BF94F8E80101287E
:100F300002D10220BDE8F081012084F8E80100BF61
:100F4000C87830B1012838D0022814D0032846D1FF
:100F500021E00E787600206830F8160048F68F16EB
:100F6000304040F4007691F800C04FEA4C0C206805
:100F700020F81C6033E00E787600206830F8160008
:100F800048F68F16304091F800C04FEA4C0C2668A6
:100F900026F81C0023E00E787600206830F8160052
:100FA00048F68F16304040F4C06091F800C04FEA18
:100FB0004C0C266826F81C0011E00E78760020689C
:100FC00030F8160048F68F16304040F4806691F8ED
:100FD00000C04FEA4C0C206820F81C6000BF00BF26
:100FE0000E787600206830F8160048F68F7630408C
:100FF00048F2800630430E78304391F800C04FEA43
:101000004C0C266826F81C00887A00287CD1487889
:10101000E0B3888840104FEA400C2068B0F8506078
:10102000087806EBC000266806F5806646F810C012
:101030000E787600206830F8160000F0400088B185
:101040000E787600206830F8160048F68F7630402B
:1010500048F2C006304391F800C04FEA4C0C2668B5
:1010600026F81C0091F800C04FEA4C0C266836F8B0
:101070001C6048F6BF7C06EA0C0080F0200040F4BB
:10108000004646F0800691F8008000E006E04FEA56
:101090004808D4F800C02CF81860ABE188884010EC
:1010A0004FEA400C2068B0F85060087806EBC000AA
:1010B000001D266806F5806646F810C02068B0F866
:1010C00050C008780CEBC000801DD4F800C00CF5AF
:1010D000806C0CEB4006D1F80CC0BCF13E0F19D966
:1010E000D1F80CC0CCF34F1091F80CC00CF01F0CD1
:1010F000BCF1000F03D1A0F1010C1FFA8CF04FF4EA
:10110000004C4CEA802C00E04FE01FFA8CFCC6F843
:1011100000C014E0D1F80CC0CCF34F0091F80CC023
:101120000CF0010CBCF1000F03D000F1010C1FFA10
:101130008CF04FF6FF7C0CEA802CC6F800C00E78CD
:101140007600206830F8160000F4804088B10E78F0
:101150007600206830F8160048F68F7630404CF262
:101160008006304391F800C04FEA4C0C266826F800
:101170001C0091F800C04FEA4C0C266836F81C6041
:101180004BF68F7C06EA0C0080F4805080F400500F
:1011900040F4004646F0800691F800804FEA480887
:1011A000D4F800C02CF8186024E10E78760020688E
:1011B00030F8160040F4807048F68F76304048F2E0
:1011C0008006304391F800C04FEA4C0C266826F8A0
:1011D0001C00C88840104FEA400C2068B0F85060EE
:1011E000087806EBC000266806F5806646F810C051
:1011F000088940104FEA400C2068B0F85060087829
:1012000006EBC000001D266806F5806646F810C093
:101210004878002879D10E787600206830F81600DA
:1012200000F4804088B10E787600206830F816000F
:1012300048F68F7630404CF28006304391F800C07B
:101240004FEA4C0C266826F81C000E7876002068C1
:1012500030F8160000F0400088B10E787600206863
:1012600030F8160048F68F76304048F2C00630431A
:1012700091F800C04FEA4C0C266826F81C000E7846
:101280007600206830F8160048F68F76304048F235
:10129000C006304391F800C04FEA4C0C266826F88F
:1012A0001C0091F800C04FEA4C0C266836F81C6010
:1012B0004BF68F7C06EA0C0080F4805080F40050DE
:1012C00040F4004646F0800691F800804FEA480856
:1012D000D4F800C02CF8186091F800C04FEA4C0C0C
:1012E000266836F81C6048F6BF7C06EA0C0040F41D
:1012F000004646F0800691F800804FEA4808D4F88E
:1013000000C02CF8186075E0FFE70E7876002068C2
:1013100030F8160000F4804088B10E78760020681E
:1013200030F8160048F68F7630404CF28006304395
:1013300091F800C04FEA4C0C266826F81C000E7885
:101340007600206830F8160000F0400088B10E7872
:101350007600206830F8160048F68F76304048F264
:10136000C006304391F800C04FEA4C0C266826F8BE
:101370001C000E787600206830F8160048F68F764C
:1013800030404CF28006304391F800C04FEA4C0CDC
:10139000266826F81C0091F800C04FEA4C0C26681D
:1013A00036F81C6048F6BF7C06EA0C0040F40046A4
:1013B00046F0800691F800804FEA4808D4F800C053
:1013C0002CF8186091F800C04FEA4C0C266836F8EB
:1013D0001C604BF68F7C06EA0C0040F4004646F099
:1013E000800691F800804FEA4808D4F800C02CF835
:1013F000186000BF00BF002084F8E80100BF384635
:1014000098E5F0B504460D4605F07F00C0EBC00638
:1014100004F5847000EB86010A614B61002088614D
:10142000487005F07F00087000BF94F8E8010128BB
:1014300001D10220F0BD012084F8E80100BFCE6890
:101440004869B04204D9CB684869C01A486102E0D3
:101450004B6900204861887A40BB2068B0F8507022
:10146000087807EBC000801D276807F5806707EB49
:1014700040063E2B0DD9C3F34F1003F01F070FB9E1
:10148000471EB8B24FF4004747EA8027BFB2376023
:101490000BE0C3F34F0003F001070FB1471CB8B2D4
:1014A0004FF6FF7707EA8027376039E0487840BB7E
:1014B0002068B0F85070087807EBC000801D2768DE
:1014C00007F5806707EB40063E2B0DD9C3F34F109D
:1014D00003F01F070FB9471EB8B24FF4004747EAA1
:1014E0008027BFB237600BE0C3F34F0003F0010762
:1014F0000FB1471CB8B24FF6FF7707EA8027376075
:101500000EE0487801280BD12068B0F850600878C8
:1015100006EBC000801D266806F5806646F8103090
:101520000F787F00266836F817604BF68F7706EA4B
:10153000070080F4805080F4005040F4004646F0EC
:10154000800691F800C04FEA4C0C276827F81C6011
:1015500000BF002084F8E80100BF00BF6AE770B553
:1015600002460B4600BF92F8E801012801D1022093
:1015700070BD012082F8E80100BF03F080008028E0
:1015800008D103F07F00C0EBC00402F1280000EB9B
:10159000840105E0C3EBC30402F5847000EB840111
:1015A0000120887003F07F000870C3F3C0104870FA
:1015B0000878B0B90D786D00146834F815404BF612
:1015C000BF7504EA050080F4805080F0100040F4FC
:1015D000004444F080040E787600156825F8164023
:1015E0002BE04878A0B10D786D00146834F81540F0
:1015F00048F6BF7504EA050080F0100040F400448E
:1016000044F080040E787600156825F8164014E042
:101610000D786D00146834F815404BF68F7504EAA8
:10162000050080F4805040F4004444F080040E78BB
:101630007600156825F8164000BF00BF002082F82C
:10164000E80100BF00BF93E72DE9F04705460F46CC
:1016500090461E464FF0000907F07F00C0EBC00126
:1016600005F1280000EB8104C4F8108066610020B9
:10167000A0610120607007F07F00207000BF95F826
:10168000E801012802D10220BDE8F087012085F899
:10169000E80100BFE1686069884204D9E6686069D2
:1016A000801B606102E0666900206061A07A90B9E9
:1016B000B3B2A2882169286801F0EAFD2868B0F871
:1016C0005010207801EBC000801C296801F5806172
:1016D00041F8106072E0607840BB2868B0F8502094
:1016E000207802EBC000801D2A6802F5806202EBC0
:1016F00040013E2E0DD9C6F34F1006F01F020AB965
:10170000421E90B24FF4004242EA802292B20A6036
:101710000BE0C6F34F0006F001020AB1421C90B282
:101720004FF6FF7202EA80220A600EE0607801281C
:101730000BD12868B0F85010207801EBC000801D54
:10174000296801F5806141F8106021784900286816
:1017500030F8110000F0400010B1B4F8089001E03A
:10176000B4F80690B3B221694A46286801F090FDAA
:10177000607880B921784900286830F8110048F66F
:101780008F71084048F2C00108432278520029684E
:1017900021F8120012E0607801280FD12178490069
:1017A000286830F8110048F68F7108404CF280012B
:1017B000084322785200296821F81200227852004A
:1017C000296831F8121048F6BF7201EA020080F071
:1017D000100080F0200040F4004141F080012378A7
:1017E0005B002A6822F8131000BF002085F8E8018A
:1017F00000BF00BF48E770B5044600252068B0F878
:10180000440000F40040B0F5004F02D1204601F042
:1018100009FB2068B0F8440000F48060B0F5806FE8
:101820000BD14FF6FF302168A1F84400204600F0AC
:101830002DF90021204600F062F92068B0F844003C
:1018400000F48040B0F5804F04D14BF6FF70216862
:10185000A1F844002068B0F8440000F40050B0F54E
:10186000005F04D14DF6FF702168A1F844002068A4
:10187000B0F8440000F48050B0F5805F14D12068C7
:10188000B0F8400020F004002168A1F840004FF4B7
:101890003D452068A0F84050204600F00DF94EF676
:1018A000FF702168A1F844002068B0F8440000F4FB
:1018B0000060B0F5006F1DD14FF2FF702168A1F8F4
:1018C00044002068B0F8400040F008002168A1F80A
:1018D00040002068B0F8400040F004002168A1F802
:1018E00040002068B0F84400C0F3003010B9204632
:1018F00000F032F92068B0F8440000F40070B0F550
:10190000007F07D14FF6FF502168A1F84400204620
:1019100000F0EEF82068B0F8440000F48070B0F5F4
:10192000807F04D14FF6FF602168A1F8440070BDAC
:1019300070B50446002500260CB9012070BD0220B8
:1019400084F8E901204600F077F8002529E001211C
:10195000C5EBC50204F1280000EB82004170C5EB25
:10196000C50204F1280000F822500021C5EBC50291
:1019700000EB8200C170C5EBC50204F1280000EB4A
:101980008200C160C5EBC50204F1280000EB8200B3
:101990000161C5EBC50204F1280000EB8200416142
:1019A0006D1C6068A842D2D8002528E00021C5EB54
:1019B000C50204F5847000EB82004170C5EBC502DE
:1019C00004F5847000F82250C5EBC50200EB8200DC
:1019D000C170C5EBC50204F5847000EB8200C160E4
:1019E000C5EBC50204F5847000EB82000161C5EB14
:1019F000C50204F5847000EB820041616D1C6068D3
:101A0000A842D3D801202168A1F840000020216815
:101A1000A1F840002168A1F844002168A1F8500015
:101A20004FF43D462068A0F84060002084F8240070
:101A300084F8E90100BF81E710B586B0044611497A
:101A4000206888421CD11048C06940F400000E494B
:101A5000C8614FF4C0500190022002900020039012
:101A600004900E20059001A94FF09040FEF766FE0D
:101A7000002205211420FEF7AAFF1420FEF79AFF8A
:101A800006B010BD005C00400010024070B5044676
:101A90000125A068022801D100BF01E0012500BF97
:101AA00000BF2946D4F81C0202F052FCD4F81C02F4
:101AB00002F014FC70BD000010B50446A06950B1DE
:101AC0000948006838B901F016FC0848006820F0A1
:101AD000060006490860002003490860D4F81C028B
:101AE00002F01EFC10BD00004800002010ED00E0D8
:101AF00010B50446D4F81C0202F019FC10BD0246D1
:101B000000BF92F8E801012801D1022070470120AE
:101B100082F8E80100BF21B980201368A3F84C00C7
:101B200001E082F8241000BF002082F8E80100BF25
:101B300000BFEBE710B5044604F5F671D4F81C02BB
:101B400002F014FC10BD10B5044601212046AFF38D
:101B50000080002010BD000010B50446D4F81C021F
:101B600002F04DFCA06928B10348006840F006006F
:101B70000149086010BD000010ED00E070B504469A
:101B800000250026206800F48030B0F5803F75D134
:101B90009248C06940F080509049C8619048006800
:101BA00040F480708E490860FEF7B8FE054606E0F6
:101BB000FEF7B4FE401B642801D9032070BD88489D
:101BC000006800F480700028F2D08448006A00F4B5
:101BD0004070A18801F4407188420AD07F48006AB1
:101BE00020F4407601207F490860002008607B488F
:101BF00006626068B0F5807F38D1FEF78FFE05463B
:101C000008E0FEF78BFE401B41F28831884201D983
:101C10000320D3E74020022191FAA1F1B1FA81F12A
:101C200008430121B1EB501F02D16C4800680FE05E
:101C30004020022191FAA1F1B1FA81F10843022179
:101C4000B1EB501F02D16548006A01E06348406A69
:101C50004021022292FAA2F2B2FA82F2114301F07A
:101C60001F020121914008400028CAD05B48006A49
:101C700020F440706168084358490862207800F0F9
:101C8000010038B15548006B20F00300A1680843FB
:101C900052490863207800F00200022807D14F481B
:101CA000006B20F44030E16808434C490863207819
:101CB00000F00400042807D14848006B20F44020BD
:101CC0002169084345490863207800F02000202856
:101CD00007D14248006B20F01000E16908433F49FA
:101CE0000863206800F40030B0F5003F07D13B489E
:101CF000406820F48000A16B084338494860207890
:101D000000F04000402807D13448006B20F020004C
:101D1000216A084331490863207800F00800082848
:101D200007D12E48006B20F44010616908432B490D
:101D30000863207800F01000102807D12748006BB6
:101D400020F44000A169084324490863208800F476
:101D50000070B0F5007F07D12048406820F40000F3
:101D6000E16A08431D494860207800F0800080281F
:101D700007D11A48C06A20F4F870616A084317490D
:101D8000C862208800F48070B0F5807F07D11348C6
:101D9000C06A20F47850A16A08431049C8622088BC
:101DA00000F48050B0F5805F07D10C48006B20F440
:101DB0008070216B084309490863208800F40050B3
:101DC000B0F5005F07D10548006B20F40070616B2F
:101DD0000843024908630020F0E6000000100240BA
:101DE000007000404004424270B504460D46002693
:101DF000F748006800F00700A84270D2F448006875
:101E000020F007002843F24908600846006800F007
:101E10000700A84201D0012070BD207800F0020028
:101E2000022807D1EB48406820F0F000A168084381
:101E3000E8494860207800F0010000286FD0606811
:101E400001282DD12020010391FAA1F1B1FA81F1ED
:101E500008430121B1EB501F02D1DE4800680FE0BA
:101E60002020010391FAA1F1B1FA81F10843022186
:101E7000B1EB501F02D1D748006A01E0D548406A53
:101E800020210A0392FAA2F2B2FA82F2114301F07F
:101E90001F02012191400840002861D10120BBE7C9
:101EA000606802282DD12020010591FAA1F1B1FA34
:101EB00081F108430121B1EB501F02D1C5480068F0
:101EC00010E02020010591FAA1F1B1FA81F1084357
:101ED0000221B1EB501F03D1BE48006A02E083E04B
:101EE000BC48406A20210A0592FAA2F2B2FA82F2B4
:101EF000114301F01F0201219140084078BB0120ED
:101F00008AE72020022191FAA1F1B1FA81F1084378
:101F10000121B1EB501F03D1AE48006810E05BE136
:101F20002020022191FAA1F1B1FA81F108430221A6
:101F3000B1EB501F02D1A748006A01E0A548406AF2
:101F40002021022292FAA2F2B2FA82F2114301F0A7
:101F50001F0201219140084008B901205CE7FFE71A
:101F60009C48406820F00300616808439949486034
:101F7000FEF7D4FC06466068012810D108E0FEF7A1
:101F8000CDFC801B41F28831884201D9032043E710
:101F90009048406800F00C000428F0D11CE1606813
:101FA000022810D108E0FEF7B9FC801B41F288310D
:101FB000884201D903202FE78648406800F00C00D2
:101FC0000828F0D108E108E0FEF7A8FC801B41F2E8
:101FD0008831884201D903201EE77E48406800F01E
:101FE0000C000028F0D1F7E0207800F00200022871
:101FF00007D17848406820F0F000A168084375498F
:102000004860207800F0010000286ED06068012848
:102010002CD12020010391FAA1F1B1FA81F10843FA
:102020000121B1EB501F02D16A4800680FE0202067
:10203000010391FAA1F1B1FA81F108430221B1EB58
:10204000501F02D16348006A01E06248406A2021C3
:102050000A0392FAA2F2B2FA82F2114301F01F02CD
:1020600001219140084088BB0120D5E66068022824
:102070002DD12020010591FAA1F1B1FA81F1084397
:102080000121B1EB501F02D1524800680FE020201F
:10209000010591FAA1F1B1FA81F108430221B1EBF6
:1020A000501F02D14B48006A01E04A48406A202193
:1020B0000A0592FAA2F2B2FA82F2114301F01F026B
:1020C00001219140084008B90120A5E62DE020201B
:1020D000022191FAA1F1B1FA81F108430121B1EB9A
:1020E000501F03D13B48006810E061E0202002212E
:1020F00091FAA1F1B1FA81F108430221B1EB501F2D
:1021000002D13448006A01E03248406A20210222AC
:1021100092FAA2F2B2FA82F2114301F01F020121F7
:102120009140084008B9012076E62A48406820F02E
:1021300003006168084327494860FEF7EFFB064645
:102140006068012810D108E0FEF7E8FB801B41F22F
:102150008831884201D903205EE61E48406800F0BD
:102160000C000428F0D123E06068022810D108E0B8
:10217000FEF7D4FB801B41F28831884201D903204D
:102180004AE61448406800F00C000828F0D10FE03F
:1021900008E0FEF7C3FB801B41F28831884201D979
:1021A000032039E60B48406800F00C000028F0D10D
:1021B0000748006820F007002843054908600846E2
:1021C000006800F00700A84206D0012024E60000C5
:1021D0000020024000100240207800F00400042893
:1021E00007D10D48406820F4E060E16808430A49DF
:1021F0004860207800F00800082808D106484068A8
:1022000020F46050216940EAC10003494860002081
:10221000FEF7A6FB0020FFE50010024010B500F01D
:1022200045F80949496801F0F001F02292FAA2F25A
:10223000B2FA82F2D140054A515CC84004490860B4
:102240000846006810BD0000001002408B610008C5
:102250008C01002010B5FFF7E1FF0749496801F440
:10226000E0614FF4E06292FAA2F2B2FA82F2D14057
:10227000024A515CC84010BD001002408B6100084A
:1022800010B5FFF7CBFF0749496801F460514FF4DF
:10229000605292FAA2F2B2FA82F2D140024A515C42
:1022A000C84010BD001002408B61000870B50021CD
:1022B00000240022002300201A4D696801F00C055B
:1022C00065B3042D02D0082D27D101E0164827E080
:1022D00001F470154FF4701696FAA6F6B6FA86F663
:1022E000F540124E725D0F4DED6A05F00F050F2699
:1022F00096FAA6F6B6FA86F6F5400D4E745D01F430
:1023000080352DB1084DB5FBF4F505FB02F302E075
:10231000084D02FB05F3184602E000BF024800BF6B
:1023200000BF70BD0010024000127A009B610008DF
:10233000AB61000800093D0070B504460025207817
:1023400000F0010000286FD0F948406800F00C0050
:1023500004280CD0F648406800F00C00082837D15B
:10236000F348406800F48030B0F5803F30D1202041
:10237000010391FAA1F1B1FA81F108430121B1EB16
:10238000501F02D1EA4800680FE02020010391FAB3
:10239000A1F1B1FA81F108430221B1EB501F02D142
:1023A000E348006A01E0E248406A20210A0392FA09
:1023B000A2F2B2FA82F2114301F01F020121914010
:1023C00008400028BFD060680128BCD0012070BD43
:1023D0000020D7498870FEF7A1FA054608E0FEF70D
:1023E0009DFA401B41F28831884201D90320EEE773
:1023F0002020010391FAA1F1B1FA81F108430121F2
:10240000B1EB501F02D1CA48006810E02020010340
:1024100091FAA1F1B1FA81F108430221B1EB501F09
:1024200003D1C348006A02E090E0C148406A20211D
:102430000A0392FAA2F2B2FA82F2114301F01F02E9
:102440000121914008400028C9D12079B8498870FD
:102450000846C06A20F00F00A1680843B449C8626A
:102460006068012839D1FEF759FA054608E0FEF701
:1024700055FA401B41F28831884201D90320A6E772
:102480002020010391FAA1F1B1FA81F10843012161
:10249000B1EB501F02D1A64800680FE020200103D5
:1024A00091FAA1F1B1FA81F108430221B1EB501F79
:1024B00002D19F48006A01E09D48406A20210A033A
:1024C00092FAA2F2B2FA82F2114301F01F02012144
:1024D000914008400028CAD038E0FEF71FFA0546B0
:1024E00008E0FEF71BFA401B41F28831884201D90F
:1024F00003206CE72020010391FAA1F1B1FA81F1E8
:1025000008430121B1EB501F02D1894800680FE058
:102510002020010391FAA1F1B1FA81F108430221CF
:10252000B1EB501F02D18248006A01E08048406A46
:1025300020210A0392FAA2F2B2FA82F2114301F0C8
:102540001F020121914008400028CAD1207800F0E4
:10255000020002284ED17648406800F00C0050B1CD
:102560007348406800F00C00082844D17048406867
:1025700000F4803078BB2020022191FAA1F1B1FA59
:1025800081F108430121B1EB501F02D16848006876
:102590000FE02020022191FAA1F1B1FA81F1084364
:1025A0000221B1EB501F02D16148006A01E060488E
:1025B000406A2021022292FAA2F2B2FA82F2114378
:1025C00001F01F0201219140084028B12069012833
:1025D00002D00120FBE60EE05548006820F0F8002C
:1025E000F82292FAA2F2B2FA82F2616991400843AB
:1025F0004F49086086E02069F0B301204D4908602A
:10260000FEF78CF9054606E0FEF788F9401B6428C2
:1026100001D90320DBE62020022191FAA1F1B1FAD1
:1026200081F108430121B1EB501F02D140480068FD
:102630000FE02020022191FAA1F1B1FA81F10843C3
:102640000221B1EB501F02D13948006A01E038483D
:10265000406A2021022292FAA2F2B2FA82F21143D7
:1026600001F01F020121914008400028CCD03048E1
:10267000006820F0F80000E00AE0F82292FAA2F2E6
:10268000B2FA82F26169914008432949086039E051
:10269000002028490860FEF741F9054606E0FEF7EC
:1026A0003DF9401B642801D9032090E62020022137
:1026B00091FAA1F1B1FA81F108430121B1EB501F68
:1026C00002D11B4800680FE02020022191FAA1F1FD
:1026D000B1FA81F108430221B1EB501F02D1144835
:1026E000006A01E01248406A2021022292FAA2F216
:1026F000B2FA82F2114301F01F0201219140084019
:102700000028CCD1207800F0080008287ED1A069EC
:1027100080B3012008490860FEF700F905460DE086
:10272000FEF7FCF8401B642808D903204FE60000A0
:102730000010024000004242800442426020022118
:1027400091FAA1F1B1FA81F108430121B1EB501FD7
:1027500002D1FA48006810E06020022191FAA1F14C
:10276000B1FA81F108430221B1EB501F03D1F348C4
:10277000006A02E010E0F148406A6021022292FA09
:10278000A2F2B2FA82F2114301F01F02012191403C
:1027900008400028C4D039E00020E9490860FEF76D
:1027A000BDF8054606E0FEF7B9F8401B642801D9DC
:1027B00003200CE66020022191FAA1F1B1FA81F127
:1027C00008430121B1EB501F02D1DC4800680FE043
:1027D0006020022191FAA1F1B1FA81F108430221AE
:1027E000B1EB501F02D1D548006A01E0D348406ADE
:1027F0006021022292FAA2F2B2FA82F2114301F0AF
:102800001F020121914008400028CCD1207800F01F
:102810000400042873D1C948C06940F08050C749FA
:10282000C861C848006840F48070C6490860FEF777
:1028300075F8054606E0FEF771F8401B642801D9DB
:102840000320C4E5BF48006800F480700028F2D07F
:10285000BA48006A20F00500B8490862FEF75EF841
:10286000054608E0FEF75AF8401B41F288318842DD
:1028700001D90320ABE54020022191FAA1F1B1FA80
:1028800081F108430121B1EB501F02D1AB48006830
:102890000FE04020022191FAA1F1B1FA81F1084341
:1028A0000221B1EB501F02D1A448006A01E0A34805
:1028B000406A4021022292FAA2F2B2FA82F2114355
:1028C00001F01F020121914008400028CAD19B4815
:1028D000006A20F00500E168084398490862E06852
:1028E00001283AD1FEF71AF8054609E0FEF716F876
:1028F000401B41F28831884202D9032067E565E038
:102900004020022191FAA1F1B1FA81F1084301219D
:10291000B1EB501F02D1894800680FE0402002212E
:1029200091FAA1F1B1FA81F108430221B1EB501FF4
:1029300002D18248006A01E08048406A40210222B8
:1029400092FAA2F2B2FA82F2114301F01F020121BF
:10295000914008400028C9D038E0FDF7DFFF054668
:1029600008E0FDF7DBFF401B41F28831884201D9C6
:1029700003202CE54020022191FAA1F1B1FA81F166
:1029800008430121B1EB501F02D16C4800680FE0F1
:102990004020022191FAA1F1B1FA81F1084302210C
:1029A000B1EB501F02D16548006A01E06348406AFC
:1029B0004021022292FAA2F2B2FA82F2114301F00D
:1029C0001F020121914008400028CAD1E069002877
:1029D00076D05A48406800F00C00082871D0E069B1
:1029E00002286FD1002058490866FDF797FF054679
:1029F00006E0FDF793FF401B642801D90320E6E4BD
:102A00002020010591FAA1F1B1FA81F108430121D9
:102A1000B1EB501F02D1494800680FE020200105AA
:102A200091FAA1F1B1FA81F108430221B1EB501FF3
:102A300002D14248006A01E04048406A20210A056C
:102A400092FAA2F2B2FA82F2114301F01F020121BE
:102A5000914008400028CCD1D4E9081008433749F8
:102A6000496821F47411084334494860012036490B
:102A70000866FDF753FF054606E0FDF74FFF401BD4
:102A8000642801D90320A2E42020010591FAA1F1D4
:102A9000B1FA81F108430121B1EB501F02D127485F
:102AA000006812E02020010591FAA1F1B1FA81F14C
:102AB00008430221B1EB501F05D12048006A04E011
:102AC00057E054E010E01D48406A20210A0592FAC0
:102AD000A2F2B2FA82F2114301F01F0201219140E9
:102AE00008400028C9D044E0002017490866FDF7D7
:102AF00015FF054606E0FDF711FF401B642801D9CC
:102B0000032064E42020010591FAA1F1B1FA81F1DA
:102B100008430121B1EB501F02D10848006817E0BB
:102B20002020010591FAA1F1B1FA81F108430221B7
:102B3000B1EB501F0AD10148006A09E000100240C1
:102B40008004424200700040000042420A48406A4D
:102B500020210A0592FAA2F2B2FA82F2114301F0A0
:102B60001F020121914008400028C4D101E001204A
:102B70002DE400202BE400000010024070B5044654
:102B80002546681EB0F1807F01D301200FE0681E4A
:102B90004FF0E02148610F214FF0FF3000F02EF997
:102BA00000204FF0E021886107200861002070BDFF
:102BB00010B504460CB9012010BDA06900B100E0B9
:102BC00000BF94F8690010B9204600F02BF80220ED
:102BD00084F869002068006820F00100216808601E
:102BE000204600F0A7FC012800D1E5E7606A10B19B
:102BF000204600F0FBFB2068406820F490402168EC
:102C000048602068806820F02A0021688860206879
:102C1000006840F0010021680860204600F05BFC7D
:102C2000CAE7000010B586B00446144920688842FF
:102C300022D11348C06940F400301149C8610C200A
:102C400001900220029001200390032004900720AD
:102C5000059001A94FF09040FDF770FD074800680E
:102C600040F0200005490860002206212620FDF7DB
:102C7000AEFE2620FDF79EFE06B010BD00440040CB
:102C80000010024010B50120FDF7C0FB10BD10B5CB
:102C90000120FDF7CBFB10BD0548406940F0020064
:102CA000034948610846406940F0010048617047A7
:102CB0000010024000B585B00120FDF73BFB2E4817
:102CC000406940F400102C4948610846406940F4CE
:102CD000002048610846406940F480004861084689
:102CE000406940F4003048610846406940F4801073
:102CF00048610846406940F48020486137200090D0
:102D00001E4801900020029069461D48FDF716FDFF
:102D10004FF608700090012001900020029003906F
:102D200069461748FDF70AFD012000900020019038
:102D3000029069464FF09040FDF700FDC0200090E2
:102D40000220019000200290039005200490694623
:102D50004FF09040FDF7F2FCC0200090122001904F
:102D60000020029003900420049069460548FDF776
:102D7000E5FC05B000BD000000100240000012108C
:102D8000001000480004004810B5094809490860CF
:102D90004FF4E1304860002106488160C160016164
:102DA0000C21416100218161C161FFF701FF10BD6C
:102DB00000440040F01B002010B5002207490848DD
:102DC00001F033F90749064801F047FB064904487A
:102DD00000F079FE024801F009FC10BD140000204B
:102DE0000C0600205C00002004000020024800685F
:102DF000C0F30220704700000CED00E010B5002881
:102E000007DA0A07140E054A00F00F031B1FD454FB
:102E100003E00A07130E024A135410BD18ED00E038
:102E200000E400E02DE9FC41054600270020009069
:102E300011E2BDF8040000F00F06002E7DD1BDF8B0
:102E4000040000F0100088BB2868008848F60F7165
:102E500008402968088005F128042868B0F8501057
:102E6000207801EBC000801C296801F5806131F8F1
:102E70001000C0F30900A061A16920690844206125
:102E800000212846FDF718FE95F824000028CFDD24
:102E900060690028CCD195F8240040F080002968B2
:102EA000A1F84C00002085F82400D4E1FFE705F5E7
:102EB0008474286800880090BDF8000000F4006069
:102EC00018B32868B0F85010207801EBC000801DBE
:102ED000296801F5806131F81000C0F30900A06194
:102EE000218B8BB2A28805F5F671286800F0BEF937
:102EF00028680088C0F30E0048F68F7108402968E2
:102F000008802846FEF716FEA5E1BDF8000000F493
:102F1000004000288CD028680088C0F30E0048F6D6
:102F20008F710840296808802868B0F85010207810
:102F300001EBC000801D296800E054E001F58061CC
:102F400031F81000C0F30900A061A06960B1B4F8C5
:102F500018C01FFA8CF3A2882169286800F086F94E
:102F6000A16920690844206100212846FDF7B4FDCD
:102F70002A6802F580622868B0F85000801D02EBD4
:102F80004001E2683E2A0FD9E268C2F34F10227B6B
:102F900002F01F020AB9421E90B24FF4004242EA08
:102FA000802292B20A600DE0E268C2F34F00227BF9
:102FB00002F001020AB1421C90B24FF6FF7202EA1F
:102FC00080220A60296809884BF68F7201EA0200A4
:102FD00080F4805080F4005040F4004141F08001C2
:102FE0002A68118037E17100286830F811000090DC
:102FF000BDF8000000F4004000287DD07100286872
:1030000030F81100C0F30E0048F68F7108407200CE
:10301000296821F81200C6EBC60105F5847000EBA3
:103020008104A07AA8B92868B0F85010207801EB84
:10303000C000801D296801F5806131F81000C0F3DF
:103040000907EFB3A28821693B46286800F00EF912
:1030500044E021784900286830F8110000F48040ED
:10306000A8B12868B0F85010207801EBC000801C8F
:10307000296801F5806131F81000C0F30907DFB15C
:10308000E28821693B46286800F0F0F814E02868DF
:10309000B0F85010207801EBC000801D296801F5C0
:1030A000806131F81000C0F309072FB1228921692E
:1030B0003B46286800F0DAF821784900286800E0EB
:1030C0000CE030F8110048F68F71084048F2C0015A
:1030D000084322785200296821F81200A069384478
:1030E000A061206938442061606910B1E068B8428D
:1030F00006D92178284600E008E0FDF7EDFC05E060
:1031000021782846D4E90423FEF77BF9BDF80000B6
:1031100000F0800000287DD0C6EBC60105F1280034
:1031200000EB81047100286830F8110048F60F7137
:1031300008407200296821F81200A07AD0B92868E6
:10314000B0F85010207801EBC000801C296801F510
:10315000806131F81000C0F30900A061A069E8B3F4
:10316000B4F818C01FFA8CF3A2882169286800F00F
:103170008FF84EE021784900286830F8110000F0FF
:103180004000D0B12868B0F85010207801EBC000A2
:10319000801C296801F5806131F81000C0F3090036
:1031A000A061A06928B3B4F818C01FFA8CF3E288B4
:1031B0002169286800F06CF81BE02868B0F850100E
:1031C000207801EBC000801D296801F5806131F88D
:1031D0001000C0F30900A061A06900E019E040B14F
:1031E000B4F818C01FFA8CF322892169286800F00E
:1031F0004FF821784900286830F8110048F68F719F
:1032000008404CF28001084322785200296821F8D6
:10321000120000E01FE02868B0F85010207801EBA1
:10322000C000801C296801F5806131F81000C0F3EE
:103230000900A061A169206908442061606920B982
:1032400021782846FDF738FC05E021782846D4E9A6
:103250000423FEF7F9F92868B0F84400019000F45F
:10326000004000287FF4E5ADBDE8FC81F0B55F1CAF
:103270007E1000EB420707F58065344605E035F81F
:1032800004CB21F801CB491C641E002CF7D1F0BD02
:103290002DE9F04104461D4605F101084FEA680C8E
:1032A00004EB420808F5806366460AE00F78491C83
:1032B00091F8008047EA082023F8020B9B1C491C68
:1032C000761E002EF2D1BDE8F08100BF4FF4C87029
:1032D00001F033FCFFF7DBFC282001F02EFCFFF7A8
:1032E000D1FCF3E710B502F0B1FD08B102F06AFAC3
:1032F000FDF71AFB10BD10B500F002F810BD00007C
:1033000000B59FB001201590052016900020179061
:1033100002201C90C1031D914FF4E0111E9115A8CD
:10332000FFF70AF80520109002201190002012905B
:103330004FF48060139000201490022110A8FEF733
:1033400053FD0948019040120A9040010B90002063
:103350000F9001A8FEF712FC0448806940F00100BC
:10336000024988611FB000BD8001020000100240C8
:103370001948006840F47000174908601748006851
:1033800040F00100154908600846406814490840AB
:103390001249486008460068124908400F49086011
:1033A0000846006820F4802008600846406820F441
:1033B000FE0048600846C06A20F00F00C862084658
:1033C000006B094908400549086300208860C8036C
:1033D000014980390860704788ED00E00010024024
:1033E0000CC07FF8FFFFF6FECCFC00FF90F8241025
:1033F00001F0010139B10168496821F40031826AA4
:1034000011430268516090F8241001F0020139B1B3
:103410000168496821F48031C26A11430268516031
:1034200090F8241001F0040139B10168496821F4D1
:103430008021026B11430268516090F8241001F062
:10344000080139B10168496821F40041426B114318
:103450000268516090F8241001F0100139B1016840
:10346000896821F48051826B11430268916090F861
:10347000241001F0200139B10168896821F400515C
:10348000C26B11430268916090F8241001F0400172
:1034900099B10168496821F48011026C11430268F6
:1034A0005160016CB1F5801F07D10168496821F4B2
:1034B000C001426C11430268516090F8241001F081
:1034C000800139B10168496821F40021826C1143FF
:1034D00002685160704710B50446002084F86A0005
:1034E0002068006800F00800082809D16FF07E43CA
:1034F00000228104204600F06FF908B1032010BDBE
:103500002068006800F00400042809D16FF07E43B1
:1035100000220105204600F05FF908B10320EEE724
:10352000012084F8690000BF002084F8680000BF13
:1035300000BFE4E72DE9F0470446002510260027E8
:10354000A846A9462169A068084361690843E16962
:1035500040EA01052068006849F20C61884328436D
:10356000216808602068406820F44050E168084302
:1035700021684860216AA06940EA010520688068E6
:1035800020F4306028432168886000BF8A492068A1
:10359000884214D18948006B00F0030030B1012843
:1035A00008D0022808D0032808D101E0012605E050
:1035B000022603E0042601E0082600BF6FE08049F0
:1035C0002068884217D17D48006B00F4403048B134
:1035D000B0F5803F0AD0B0F5003F09D0B0F5403FCC
:1035E00008D101E0002605E0022603E0042601E000
:1035F000082600BF53E073492068884217D16F48FE
:10360000006B00F4402048B1B0F5802F0AD0B0F52F
:10361000002F09D0B0F5402F08D101E0002605E0C9
:10362000022603E0042601E0082600BF37E06649D1
:103630002068884217D16148006B00F4401048B1FF
:10364000B0F5801F0AD0B0F5001F09D0B0F5401FBB
:1036500008D101E0002605E0022603E0042601E08F
:10366000082600BF1BE059492068884217D15348FB
:10367000006B00F4400048B1B0F5800F0AD0B0F5FF
:10368000000F09D0B0F5400F08D101E0002605E099
:10369000022603E0042601E0082600BF00BF00BFA9
:1036A000E069B0F5004F46D1042E24D005DC4EB1C0
:1036B000012E10D0022E2FD116E0082E24D0102E6D
:1036C0002AD12AE0FEF7C6FD40006168B0FBF1F0A8
:1036D0001FFA80F824E0FEF7D3FD40006168B0FBDC
:1036E000F1F01FFA80F81BE039496068B1FBF0F097
:1036F0001FFA80F814E0FEF7D9FD40006168B0FBC6
:10370000F1F01FFA80F80BE04FF480316068B1FBF4
:10371000F0F01FFA80F803E000BF4FF0010900BF8E
:1037200000BF4FF6F07008EA0007C8F342000743F5
:103730002068C7603DE0042E25D005DC4EB1012E87
:1037400010D0022E30D116E0082E25D0102E2BD10D
:103750002BE0FEF77FFD6168B0FBF1F080B22168DD
:10376000C86025E0FEF78CFD6168B0FBF1F080B227
:103770002168C8601CE017496068B1FBF0F080B2B6
:103780002168C86014E0FEF791FD6168B0FBF1F0BC
:1037900080B22168C8600BE04FF400416068B1FB63
:1037A000F0F02168C86003E000BF4FF0010900BFDE
:1037B00000BF4846BDE8F0870038014000100240D5
:1037C0000044004000480040004C004000500040D1
:1037D0000024F40000127A002DE9F04104460E4660
:1037E00017461D46FDF79AF880469FBB2BE0681CE4
:1037F00048B32DB1FDF792F8A0EB0800A84222D9FA
:103800002068006820F08000216808602068006857
:1038100020F02000216808602068006820F4807093
:10382000216808602068806820F0010021688860B5
:10383000032084F8690000BF002084F8680000BFFE
:103840000320BDE8F0812068C0693040B04202D159
:10385000012001E003E000200028C8D035E02AE084
:10386000681C40B32DB1FDF759F8A0EB0800A84241
:1038700021D92068006820F0800021680860206855
:10388000006820F02000216808602068006820F4AB
:103890008070216808602068806820F0010021683D
:1038A0008860032084F8690000BF002084F8680065
:1038B00000BF0320C5E72068C0693040B04201D195
:1038C000012000E000200028CAD10020B9E710B58F
:1038D00002460B4604E012F8010B00F005F85B1EEF
:1038E000002BF8D1002010BD00BF0549096801F088
:1038F00080010029F9D00249083108807047000092
:103900001C44004010B505480088C4B2204601F0B0
:1039100039F82620FDF740F810BD0000244400408F
:1039200002460B46D2F81812D2F8180218B100203D
:10393000C1F8140170470220FCE770B504460E463A
:10394000D4F818523146204600F040FCC5F80C016E
:10395000D4F8180248B1D5F80401D4F81C12CA688A
:1039600005F586719047002070BD0220FCE770B518
:1039700004460E4600258121204600F079FB0121F6
:10398000204600F075FB8221204600F071FBD4F840
:10399000180250B1D4F81C1248688047D4F81802B5
:1039A00000F027FF0020C4F81802284670BD70B54B
:1039B0000546D5F81842D5F81C0278B194F80001F4
:1039C000FF280BD094F8012194F80001D5F81C12BF
:1039D0008B6821469847FF2084F80001002070BDC5
:1039E00001460A200880014870470000500000206E
:1039F000014643200880014870470000D80000209D
:103A000001464320088001487047000094000020D0
:103A10000146432008800148704700001C01002037
:103A20002DE9F04104460F460026207C70B94FF482
:103A3000807302228121204600F030FC4FF4807315
:103A400002220121204600F029FC0BE04023022243
:103A50008121204600F022FC402302220121204641
:103A600000F01CFC082303228221204600F016FCF3
:103A70004FF48E7000F0BEFEC4F81802D4F818029D
:103A800008B901261CE0D4F81852D4F81C120868B2
:103A900080470020C5F81401C5F81801207C40B902
:103AA0004FF4807301212046D5F8042100F006FC74
:103AB00006E0402301212046D5F8042100F0FEFB5A
:103AC0003046BDE8F0810246022011B1C2F81C1256
:103AD000002070470246D2F81832C3F804110020C3
:103AE000704710B50346D3F81842C4F80811C4F85B
:103AF0001021002010BD70B505460C46D5F818629F
:103B0000207800F06000202826D1E088E0B12078FD
:103B100000F0800060B1E2886078D5F81C128B68F4
:103B200031469847E2883146284600F0A7F812E06F
:103B3000607886F80001A07986F80101E2883146B4
:103B4000284600F07AF806E06078D5F81C120022CA
:103B50008B681146984700E000BF00BF002070BD91
:103B600070B50546D5F81842D5F8180290B1D4F8CA
:103B7000140168B90120C4F81401B4F8100183B22B
:103B800081212846D4F8082100F043FC002070BDB4
:103B90000120FCE70220FAE770B504460D46D4F890
:103BA00014022946426820469047002070BD70B537
:103BB00004460D4694F8FC01022802D0032811D1D6
:103BC00000E000BF688801280BD10020C4F804027F
:103BD000D4F814022946826820469047204600F017
:103BE0005EF804E02946204600F01BF800BF00BF45
:103BF00070BD70B506460C4615462B462246002180
:103C0000304600F05BFB002070BD70B506460C46E8
:103C100015462B4622460021304600F0FAFB0020D4
:103C200070BD70B504460D468021204600F0D5FBDE
:103C30000021204600F0D1FB70BD70B504460E4651
:103C400015460320C4F8F4014FF484700551001D9B
:103C500005512B4632460021204600F02FFB002064
:103C600070BD10B504460520C4F8F40100231A46BF
:103C70001946204600F022FB002010BD70B5044616
:103C80000E4615460220C4F8F401A561E5612B46F5
:103C900032460021204600F0BCFB002070BD10B56C
:103CA00004460420C4F8F40100231A4619462046AD
:103CB00000F0AFFB002010BD70B505460C462DB9D5
:103CC0002246064906A000F087F904E0224603498F
:103CD00003A000F081F9014870BD00003008002009
:103CE00043444320436F6E6669670000024612201A
:103CF00008800148704700003000002070B505467C
:103D00000C462DB92246064906A000F065F904E0EC
:103D10002246034903A000F05FF9014870BD00008E
:103D20003008002043444320496E74657266616325
:103D3000650000000246042008800148704700002A
:103D40004400002070B505460C462246024903A0F7
:103D500000F042F9004870BD3008002053544D690E
:103D600063726F656C656374726F6E696373000074
:103D700070B505460C462DB92246064906A000F04E
:103D80002BF904E02246034903A000F025F901487D
:103D900070BD00003008002053544D333220566966
:103DA000727475616C20436F6D506F727400000007
:103DB00070B505460C462DB92246064906A000F00E
:103DC0000BF904E02246034903A000F005F901487D
:103DD00070BD0000300800203030303030303030DE
:103DE000303031410000000070B504460D46E888CF
:103DF000012804D029462046FFF713FF1BE094F862
:103E0000FC01022802D003280FD108E00020A060A6
:103E1000012204F108012046FFF730FF0AE00122E9
:103E2000211D2046FFF72AFF04E029462046FFF720
:103E3000F8FE00BF00BF70BDF8B504460E4670889E
:103E4000001208287FD2DFE800F07E040C207E7E7E
:103E50005F6D207CD4F810120A68694690470546C9
:103E600076E0207C40B9D4F81402816A684688471D
:103E700005460221697007E0D4F81402C16A684659
:103E8000884705460221697062E0B078062834D27E
:103E9000DFE800F0030B131B232B207CD4F8101257
:103EA0004A686946904705462CE0207CD4F81012F9
:103EB0008A6869469047054624E0207CD4F81012B1
:103EC000CA686946904705461CE0207CD4F8101269
:103ED0000A6969469047054614E0207CD4F8101220
:103EE0004A696946904705460CE0207CD4F81012D8
:103EF0008A6969469047054604E031462046FFF747
:103F000090FEF8BD00BF23E0207C30B9D4F8140245
:103F1000416B6846884705461AE031462046FFF760
:103F200080FEEEE7207C48B9D4F81402016B6846A5
:103F300088470546072169700AE004E031462046BB
:103F4000FFF76FFEDDE731462046FFF76AFED8E750
:103F500000BFBDF8000088B1F08878B1F088BDF8E6
:103F60000010884202DDBDF8000000E0F0880090FB
:103F7000BDF8002029462046FFF780FE00BFC0E7BD
:103F80000146002002E0421CD0B2491C0A78002AF7
:103F9000F9D1704770B504460D4694F8FC0102282B
:103FA00002D0032811D100E000BF0120E060D4F866
:103FB000040218B1E06840F00200E060022204F15F
:103FC0000C012046FFF75AFE04E029462046FFF781
:103FD00028FE00BF00BF70BD2DE9F04104460D462C
:103FE00017460026FCB12046FFF7CAFF022101EB6D
:103FF000400038803A783046711CCEB22A540322F1
:104000003046711CCEB22A540AE014F8012B304617
:10401000711CCEB22A5400223046711CCEB22A54F2
:1040200020780028F1D1BDE8F08170B504460D4636
:1040300016460CB9022070BDD4F8140210B100204D
:10404000C4F814020DB1C4F81052012084F8FC0128
:104050002670204600F0C4F80020ECE770B5044656
:104060000D462946D4F82002FCF79FFE002070BDC3
:1040700070B504460D462946D4F82002FCF73CFDF5
:10408000002070BD2DE9F04104460E461746002E73
:1040900048D104F11405D4F8F401022837D1D5E948
:1040A000020188420AD9D5E90201401AA86028898C
:1040B00082B239462046FFF7A8FD28E0E968686823
:1040C000B0FBF1F201FB120088B9E9686868884228
:1040D0000DD36868D4F8F811884208D2002211463E
:1040E0002046FFF792FD0020C4F8F8010FE0D4F855
:1040F0001402C06840B194F8FC01032804D1D4F83C
:104100001402C168204688472046FFF7AAFD94F8AC
:104110000002012814D1204600F0A7F9002084F8FD
:1041200000020DE0D4F81402406948B194F8FC0193
:10413000032805D1D4F8140231464269204690473D
:104140000020BDE8F0812DE9F04105460E461746F6
:104150005EBB05F58274D5F8F401032833D1D4E9A8
:104160000201884210D9D4E90201401AA060D4E9C2
:104170000201884201D2A06800E0E06882B23946BC
:104180002846FFF736FD1EE0D5F81402006940B15D
:1041900095F8FC01032804D1D5F8140201692846DA
:1041A00088472846FFF77BFD0DE0D5F814028069AB
:1041B00048B195F8FC01032805D1D5F81402314621
:1041C0008269284690470020BDE8F08170B504461A
:1041D0000D462946D4F82002FCF777FE70BD00009A
:1041E00010B504461D48C0F81C4204F50874206050
:1041F0001B481A490860082048600221174881605E
:104200000321C160022101610021416181610162DC
:10421000FDF78EFB1823002211462068FCF72AFCCC
:104220005823002280212068FCF724FCC0230022B0
:1042300081212068FCF71EFC4FF4887300220121C5
:104240002068FCF717FC2068A4F508744FF480730D
:1042500000228221FCF70EFC002010BD300A002055
:10426000005C004010B50246D2F8203201F0800018
:10427000802809D101F07F00C0EBC00403F12800C1
:1042800000EB8400807810BD01F07F00C0EBC0041B
:1042900003F5847000EB84008078F4E72DE9F041A9
:1042A00004460F4615461E462B4632463946D4F87C
:1042B0002002FCF716FE0020BDE8F0812DE9F04158
:1042C00004460D4616461F463B4632462946D4F85C
:1042D0002002FDF796F80020BDE8F08110B50446F5
:1042E0004023002211462046FFF7D8FF40214FF41B
:1042F000887001514023002280212046FFF7CEFF25
:1043000040212162012084F8FC01D4F8180228B170
:104310002179D4F81402426820469047002010BD4D
:10432000014691F8FD0181F8FC010020704710B5AD
:10433000044694F8FC01032808D1D4F81402C0699B
:1043400020B1D4F81402C16920468847002010BD6E
:10435000024611740020704770B504460D46294688
:10436000D4F82002FDF7CBFB002070BD70B50446E9
:104370000D46294604F5027000F05BF80120C4F8F0
:10438000F40140F20E20005BC4F8F80194F8080232
:1043900000F01F0020B1012808D0022812D10BE044
:1043A00004F50271204600F028F913E004F50271CB
:1043B000204600F0F9F90DE004F50271204600F006
:1043C00055F907E094F8080200F08001204600F05B
:1043D00004F800BF00BF002070BD70B504460D4654
:1043E0002946D4F82002FDF7BAF8002070BD10B5B8
:1043F0000446D4F82002FDF7A6FB002010BD0146BC
:1044000091F8FC0181F8FD01042081F8FC010020F5
:1044100070472DE9F04104460D4616461F463B46BF
:1044200032462946D4F82002FDF70EF90020BDE8F7
:10443000F0810A7802704A7842708B78CA7803EB70
:10444000022242800B794A7903EB022282808B7927
:10445000CA7903EB0222C28070470246002011B1E4
:10446000C2F8141200E00220704701460020704795
:1044700070B504460D46A888F8B9E888E8B9A87868
:1044800000F07F0694F8FC01032804D12946204659
:10449000FFF7C7FB15E084F8FE6131462046FFF7C1
:1044A0005BFF2046FFF7FBFB1EB1022084F8FC01F6
:1044B00007E0012084F8FC0103E029462046FFF7CD
:1044C000B0FB70BD70B504460D460226D4F8140248
:1044D00038B1D4F81402294602682046904700B942
:1044E0000026304670BD000070B504460D46A87821
:1044F0003449087008460078012804DD2946204622
:10450000FFF78FFB5BE094F8FC01022802D0032840
:104510004FD11CE02B480078A8B12A480078606091
:10452000032084F8FC01274801782046FFF7CAFFE2
:10453000022804D129462046FFF773FB70BD2046B0
:10454000FFF7ADFB02E02046FFF7A9FB36E01D4870
:10455000007870B9022084F8FC011A480078606085
:10456000184801782046FFF717FB2046FFF797FB16
:104570001EE0144909786068884216D021792046E7
:10458000FFF70AFB0F48007860600E48017820466C
:10459000FFF798FF022804D129462046FFF741FB88
:1045A000CCE72046FFF77BFB02E02046FFF777FBD6
:1045B00004E029462046FFF734FB00BF00BF00BFE0
:1045C000BCE700004C00002070B504460D4668882A
:1045D00001280AD1C4F80402D4F8140229468268DA
:1045E000204690472046FFF75AFB70BD10B50446A1
:1045F0002046FFF7FCFE002010BD70B505460C46B6
:10460000002660780A2829D2DFE800F01923281E46
:10461000280A0528140F21462846FFF70DFC22E042
:1046200021462846FFF724FF1DE021462846FFF7D4
:104630005BFF18E021462846FFF7D6FB13E0214632
:104640002846FFF7A7FC0EE021462846FFF7BCFFEF
:1046500009E021462846FFF7AAFA04E02146284649
:10466000FFF7DFFA00BF00BF304670BD2DE9F04113
:1046700005460E464FF0000834797078002855D072
:1046800001282AD003287AD195F8FC01022802D00B
:1046900003281BD107E02CB1802C03D021462846EB
:1046A000FFF79BFE17E0708830B92CB1802C03D047
:1046B00021462846FFF791FED5F81402314682685C
:1046C000284690472846FFF7EAFA04E03146284694
:1046D000FFF7A7FA00BF00BF62E095F8FC010228CF
:1046E00002D003281BD107E02CB1802C03D0214637
:1046F0002846FFF772FE17E0708878B904F07F0053
:1047000048B121462846FFF7A9FCD5F814023146E6
:104710008268284690472846FFF7C1FA04E03146F0
:104720002846FFF77EFA00BF00BF39E095F8FC018C
:10473000022802D003282BD107E004F07F0018B133
:1047400021462846FFF749FE27E004F08000802834
:1047500006D104F07F0105F1140000EB011005E023
:1047600004F07F0105F5827000EB01100746214639
:104770002846FFF777FD18B10120386002E00EE00F
:1047800000203860022239462846FFF777FA04E015
:1047900031462846FFF745FA00BF00BF00E000BFE2
:1047A00000BF4046BDE8F08170B504460D460026C6
:1047B00094F8FC01032814D1287901280CDCD4F8E2
:1047C00014022946826820469047E88840B93EB9DD
:1047D0002046FFF764FA03E029462046FFF721FA56
:1047E00004E029462046FFF71CFA00BF00BF002066
:1047F00070BD70470146014870470000500C002012
:1048000010B51420FCF7C8F80148FCF7F4FF10BD00
:10481000300A002002E008C8121F08C1002AFAD19D
:1048200070477047002001E001C1121F002AFBD130
:104830007047000001461648807A08B90120704789
:1048400013480068124A1289805C0870104A128965
:10485000501CC21700EBD2525212A0EB42220C4B5A
:104860001A811846807A022803D101201A469072D4
:104870000CE00748807A012808D10548C088044A1E
:104880001289904202D10020014A90720020D6E79E
:104890004C3F002070B506460C46002509E0304626
:1048A000761CFFF7C7FF012801D1E8B270BD681C74
:1048B00085B2A542F3DBE0B2F8E7000001461648F6
:1048C000807A022801D10120704713480068124AFB
:1048D000D2888154104AD288501CC21700EBD252A1
:1048E0005212A0EB42220C4BDA801846807A18B99B
:1048F00001201A4690720CE00748807A012808D1FE
:104900000548C088044A1289904202D10220024A16
:1049100090720020D8E700004C3F002038B50446D4
:1049200000253B2C0CD12046FFF7C8FF054600238D
:104930006A4605A10848006801F016F9284638BD06
:104940002046FFF7BBFFFAE731547279506172736A
:1049500065436D64000000000002002010B5FEF702
:104960002BFAFEF711FA0548054908604FF400706C
:1049700088800020C8800881887210BD4C3D0020CE
:104980004C3F002010B50446044890F8FC01032871
:1049900002D02046FFF7C2FF10BD00000C06002029
:1049A00010B50446044890F8FC01032802D12046C3
:1049B000FFF7B4FF10BD00000C06002001B50A4847
:1049C00090F8FC01032809D101E000F045FD012128
:1049D0006846FBF789FD0028F7D103E09DF8000049
:1049E000FEF782FF08BD00000C06002070B50446EB
:1049F0000D460A4890F8FC01032809D101E000F0B7
:104A00002BFD29462046FBF76FFD0028F7D103E078
:104A100029462046FEF75BFF70BD00000C06002013
:104A200070B5054600242E4600E0641C16F8011BF4
:104A30000029FAD1094890F8FC01032809D101E0C6
:104A400000F00AFDA1B22846FBF74EFD0028F7D181
:104A500003E021462846FEF73AFF70BD0C06002011
:104A600038B50446E0B28DF80000200A8DF8010048
:104A7000200C8DF80200200E8DF8030004216846FA
:104A8000FFF7B4FF38BD00001CB505216846FFF7ED
:104A900001FF0446042C0EDB9DF8030000069DF880
:104AA000021040EA01409DF8011040EA01209DF803
:104AB000001008431CBD0CB90148FBE70148F9E7A9
:104AC000454E445F4552525F90B0FBF735FFFEF70D
:104AD00017FCFEF7EFF8FEF7DFF8FEF7D8F8142220
:104AE00011490BA8FBF7C4FB14220F49143106A887
:104AF000FBF7BEFB14220C49283101A8FBF7B8FBD9
:104B000000210BA800F031F8002106A800F02DF8D4
:104B1000002101A800F029F8FEF7B4F800210846AA
:104B200000F017F800BFFEE73C61000801460020D6
:104B3000842901D0CA1C1044704770B5044625462C
:104B40000DB1294600E00121084600F091FC00204B
:104B500070BD70B504460D461CB12946204600F0D4
:104B600004F800F04DFD002070BD70B586B004461D
:104B70000D46B4F90800FFF7D9FF0646002005AA44
:104B8000CDE9012000960390238A9AB22B46D4E9FE
:104B9000001001F0B9F8059806B070BD70B5104C62
:104BA0000025FFF771FF04460E48204418B10E4956
:104BB000084448B907E000235A1E0CA110480068B9
:104BC00000F045FF03E002E00125054C00BF00BFF7
:104BD000002D01DD2C4600E00A4C204670BD00008F
:104BE0004552525FBDB9B8C0FEF702E03453656E5E
:104BF00064436F6D6D73436F6E66696700000000FC
:104C000004020020454E445F70B5104C0025FFF7AC
:104C10003BFF04460E48204418B10E49084448B9E9
:104C200007E000235A1E0CA11048006800F00FFF97
:104C300003E002E00125054C00BF00BF002D01DDAF
:104C40002C4600E00A4C204670BD00004552525FE1
:104C5000BDB9B8C0FEF702E03353656E6453797393
:104C600074656D436F6E6669670000000402002082
:104C7000454E445F1CB504461A48844207D10023C0
:104C80005A1E19A11A48006800F0E1FE29E04520EB
:104C90008DF800006420B4FBF0F00A21B0FBF1F2C3
:104CA00001FB120030308DF801000A20B4FBF0F057
:104CB000B0FBF1F201FB120030308DF802000A2047
:104CC000B4FBF0F100FB114030308DF80300002000
:104CD0008DF804000023421E69460548006800F074
:104CE000B6FE1CBD454E445F41434B5F00000000D3
:104CF0000402002010B504460E48006844600E48C7
:104D00000068844207D20B480168091D0B480068FF
:104D100000F0FDFA0CE007480168091D084800682A
:104D200000F0F5FA07480068844201D205480460A3
:104D300010BD0000A4010020B8010020AC0100203B
:104D4000A8010020D801002070B505460E4650206D
:104D500000F09AF9044694B11EB9A80000F094F945
:104D600000E030462063206B20B9204600F016FB9F
:104D7000002404E0A900A522206BFBF78BFA204653
:104D800070BD000070B523E000F064FC13480068BB
:104D900008B9012000E00020054601F05BF9BDB92B
:104DA00000F0DCFA0D48C068C468201D00F08AFAE3
:104DB0000B480068401E0A4908600A480068401E07
:104DC0000849086000F0DAFA204600F05DF800BFFC
:104DD000044800680028D7D170BD0000241D0020C1
:104DE000B4010020B001002070B504460D462068D3
:104DF00070B1216CE0680844E0606168E068884256
:104E000001D32068E0602846226CE168FBF730FAA5
:104E100070BD70B504460E461546206C38B9206842
:104E200070BB606800F070FB0020606028E07DB916
:104E30003146226CA068FBF71BFA216CA06808447D
:104E4000A060D4E9011088421AD32068A06017E05E
:104E50003146226CE068FBF70BFA216CE068401ADF
:104E6000E0602168E068884203D2216C6068401AE3
:104E7000E060022D04D1A06B10B1A06B401EA063B6
:104E8000A06B401CA06370BD10B50446206B00F001
:104E900085FA204600F082FA10BD00000A4A22F08E
:104EA00007000A4A10600022084B5A6041F6F87267
:104EB000074B5A6000221A60014641F6F8724A60B8
:104EC0001A460A6070470000541D0020E8010020C7
:104ED000F001002000BFFFF755FF034800680128DC
:104EE000F9D900F0B9FAF6E75C1C00202DE9F0478B
:104EF00004460F4615469946DDF82080002607E057
:104F0000B95D04F134008155B85D00B902E0761C4A
:104F1000102EF5D300BF002143200155072D00D3EB
:104F20000625E562E564201D00F0EEF904F11800A5
:104F300000F0EAF92461C5F10700A0616462BDE8F0
:104F4000F087000010B5002407E004EB84010F4A4D
:104F500002EB810000F0CBF9641C072CF5D30C4860
:104F600000F0C5F90B4800F0C2F90B4800F0BFF99A
:104F70000A4800F0BCF90A4800F0B9F904480949A8
:104F8000086004480849086010BD00005C1C00204F
:104F9000E81C0020FC1C0020101D0020241D002007
:104FA000381D0020A8010020AC01002070B5054686
:104FB00000F0D4F9A86B08B9012400E0002400F047
:104FC000DDF9204670BD70B5054600F0C7F9A86B45
:104FD000E96B884201D1012400E0002400F0CEF901
:104FE000204670BD07480068401C08B9012000E059
:104FF000002018B9FBF71CF900BFFEE7FBF718F912
:1050000000BFFEE7DC01002010B5044600F0A6F961
:1050100011E0606A08B9012000E0002038B904F10D
:10502000240000F0D3FF18B100F03EFA00E005E0E4
:10503000A06C401EA064A06C0028EADC00BF4FF00A
:10504000FF30A06400F09AF900F088F911E02069BF
:1050500008B9012000E0002050B904F1100000F070
:10506000B5FF08B100F020FA606C401E606400E0FB
:1050700002E0606C0028EADC00BF4FF0FF306064A3
:1050800000F07CF910BD00002DE9F04104464FF01E
:10509000000800F0DFFA2648006820B9FFF7FEFE9E
:1050A00001202349086044B1083404F0070020B10E
:1050B00004F00700C0F108000444002C32D041F68F
:1050C000F87084422ED21B4F3846056801E02F4607
:1050D0002D686868A04202D228680028F7D11648D7
:1050E00085421FD0386800F1080828683860686871
:1050F000001B102810D92E196868001B70606C60A6
:1051000071680C4800E00068026852688A42FAD36D
:1051100002683260066000BF084968680968081ABA
:105120000649086000F096FF4046BDE8F0810000A7
:10513000FC010020E8010020F0010020F80100201F
:10514000001F4FF080730360001F0160001F054BBC
:10515000036014380260001F6FF002030360203800
:1051600070470000E54F000810B50DA0FFF758FC90
:105170004FF40070FFF774FC4FF4E130FFF770FC60
:1051800009A0FFF74DFC0AA0FFF74AFC0AA0FFF7B1
:1051900047FC0BA0FFF744FC0BA0FFF741FC10BD40
:1051A000434F4D4D000000005041325F00000000B1
:1051B0005041335F000000005553425F0000000083
:1051C00050413132000000005041313100000000F8
:1051D00010B508A0FFF724FCFDF720F80446FFF700
:1051E0003FFCFDF74DF80446FFF73AFC03A0FFF73C
:1051F00017FC10BD535953540000000053544D3355
:10520000324633303356430010B51DA0FFF708FC7B
:105210001DA0FFF705FC20A0FFF702FC20A0FFF770
:10522000FFFB21A0FFF7FCFB22A0FFF7F9FB23A067
:10523000FFF7F6FB5620FFF7C1FBFBF76BFB3021B6
:1052400001EB1060C4B22046FFF7B8FB2E20FFF739
:10525000B5FBFBF75FFB302101EB1040C4B22046E9
:10526000FFF7ACFB2E20FFF7A9FBFBF753FB302128
:1052700001EB1020C4B22046FFF7A0FB10BD0000D8
:105280005645525F00000000496E737472756C6180
:105290006220465700000000312E30300000000030
:1052A00020623031000000004672656552544F5351
:1052B0000000000056372E362E3000005354204890
:1052C000414C00000146D1E901309860D1E9010369
:1052D00058600A695068884201D18868506000208F
:1052E00008611068401E106010687047704700F138
:1052F000080141604FF0FF31816000F10801C16099
:10530000016100210160704700210161704710B503
:1053100002460B685C1C0CB9106907E002F108003A
:1053200000E04068446824689C42FAD944684C60B4
:105330004C68A160886041600A611468641C146054
:1053400010BD42684A6093688B60936859609160B1
:10535000086103685B1C03607047000010B5FAF732
:1053600067FF05480068401C03490860BFF34F8F82
:10537000BFF36F8F10BD0000DC01002010B50648A0
:105380000068401E044908600846006810B9002003
:10539000FAF755FF10BD0000DC01002070B506468D
:1053A0003546B6B1083D2C4600F054F9616809480D
:1053B00000E00068026852688A42FAD302682260FC
:1053C000046005496068096808440349086000F002
:1053D00041FE70BDE8010020F80100200648006889
:1053E0004FF47A71B0FBF1F0401E4FF0E0214861BC
:1053F00007200861704700008C01002070B5FAF7A3
:1054000021FF0546102D0FD305F1E02090F8F04361
:105410000E480078844201DB012000E0002018B92A
:10542000FAF706FF00BFFEE70948006800F4E060F5
:1054300008490968884201D8012000E0002018B915
:10544000FAF7F6FE00BFFEE770BD0000E0010020A5
:105450000CED00E0E40100204FF0805003490860AB
:10546000BFF34F8FBFF36F8F7047000004ED00E074
:1054700070B5044600267CB100F0ECF808480068DE
:10548000051908480068001DFFF71CFF2846FFF7B4
:1054900031FC00F0DFFD06460EB9FFF7DDFF70BD01
:1054A000B8010020A40100200120014908607047D4
:1054B000CC01002070B505460C461DB9FAF7B8FEC0
:1054C00000BFFEE70D48016818312846FFF71FFFAF
:1054D0000A480068001DFFF7F5FE601C30B9074858
:1054E0000168091D0648FFF72CFF05E00548006824
:1054F00006193046FFF7FEFB70BD0000A401002036
:10550000381D0020B801002070B505462C46EDB1CD
:10551000E16CE06A884219D0201DFFF7D3FEE06CF1
:10552000E062E06AC0F10700A0610949E06A096829
:10553000884202D90649E06A0860E16A01EB81010C
:10554000044A02EB8100211DFFF7FBFE70BD000045
:10555000BC0100205C1C002070B505462C4685B3BC
:105560001B49E06A0968C96A88422FD21848006856
:10557000C06AC0F10700A061E16A01EB8101154A30
:1055800002EB81016069884201D1012000E0002026
:10559000C0B1201DFFF796FE0D480068C06AE062AA
:1055A0000D49E06A0968884202D90B49E06A08603F
:1055B000E16A01EB8101074A02EB8100211DFFF73F
:1055C000C0FE03E002480068C06AE06270BD0000EF
:1055D000A40100205C1C0020BC01002010B5044682
:1055E0001CB9FAF725FE00BFFEE7034800682060FB
:1055F00002480068606010BDD0010020B8010020A2
:105600001FB50020009001900290034680220CA15B
:1056100003900D4800F078FB0446012C0AD1FAF7FC
:1056200007FE01200949086000200949086000F0D0
:105630006FF804E01CB9FAF7FBFD00BFFEE71FBDE1
:1056400049444C4500000000D54E0008C001002030
:10565000B801002002480068401C014908607047FA
:10566000C401002010B52548006818B10120244964
:10567000086041E000202249086022480068006874
:1056800020490968096B884205D81E4801683431F1
:105690000068FFF72BFE0BE01B48006818B9FAF70B
:1056A000C7FD00BFFEE718480068401E16490860A5
:1056B0001548006800EB8000144951F8200008B933
:1056C000012000E000200028E6D10F49096801EB25
:1056D00081010E4A02EB810041684968416000F196
:1056E000080142688A4202D14168496841604168C4
:1056F000C968044A116000BF10BD0000C401002049
:10570000CC010020A4010020BC0100205C1C002072
:105710001CB52648014609780191FF210246117007
:105720000146097800919DF8001001F05001204ACF
:10573000117007211F4A116009E01E490968491EBE
:105740001C4A11609DF800104906090E00919DF851
:10575000001001F080018029EFD016490968090284
:10576000144A11601146098801F4E06111600F4A82
:10577000019911701048006840F470000E490860EB
:105780000846006840F070400860FFF727FE0020E0
:105790000A490860FAF71AFD0948006840F04040DD
:1057A00007490860FAF708FD00201CBD00E400E08E
:1057B000E0010020E401002020ED00E0DC010020F9
:1057C00034EF00E010B5FAF733FD00F04FFB18B1ED
:1057D0004FF08050024908600020FAF730FD10BDFC
:1057E00004ED00E070B505465020FFF74DFC04467F
:1057F000E4B1002060602060A060E060A063012050
:10580000E06300202064401E6064A06484F84D5072
:1058100004F11000FFF76BFD04F12400FFF767FDB2
:1058200000231A461946204600F011F91CB9FAF770
:10583000FFFC00BFFEE7204670BD2DE9F04705469E
:105840000E4617464FF00009DDB15020FFF71CFC53
:105850000446B4B105FB06F000F101084046FFF72D
:1058600013FC2060206848B1E563266401212046CE
:1058700000F0B1F884F84D70A14602E02046FFF731
:105880008DFDB9F1000F03D1FAF7D2FC00BFFEE79E
:105890004846BDE8F0872DE9FF4383B005460E4634
:1058A0001F464FF000092C461CB9FAF7C1FC00BF97
:1058B000FEE70EB9206C08B9012000E0002018B9FD
:1058C000FAF7B6FC00BFFEE700BFFFF747FDA06B8D
:1058D00090B3D4F80C8031462046FFF785FAB7B96B
:1058E000A06B401EA063206810B900F0A9FA6060A8
:1058F000206908B9012000E00020B8B904F11000C7
:1059000000F064FB012811D1FFF7A6FD0EE0C4F8FA
:105910000C80606A08B9012000E0002030B904F171
:10592000240000F053FB08B1FFF796FDFFF726FDBA
:10593000012007B0BDE8F083FFE7059818B9FFF72D
:105940001DFD0020F5E7B9F1000F04D101A8FFF714
:1059500045FE4FF00109FFF711FDFFF77BFEFFF752
:10596000FDFC606C401C08B900206064A06C401C09
:1059700008B90020A064FFF701FD05A901A800F007
:1059800089F908BB2046FFF711FBB8B1206830B990
:10599000FFF7E4FC6068FFF7DFFDFFF7EFFC04F1C1
:1059A00024000599FFF786FD2046FFF72DFB00F048
:1059B00051FB002889D1FFF74FFD86E72046FFF70E
:1059C00023FB00F047FB80E72046FFF71DFB00F0BC
:1059D00041FB0020ADE770B505460E462C461CB9CC
:1059E000FAF726FC00BFFEE7FFF7B8FCD4E90F1278
:1059F000206801FB020060600020A0632068A060B6
:105A0000E06B401E226C216800FB0210E0604FF04A
:105A1000FF306064A06476B9206908B9012000E015
:105A2000002080B904F1100000F0D0FA01280AD15A
:105A3000FFF712FD07E004F11000FFF758FC04F136
:105A40002400FFF754FCFFF799FC012070BD2DE9FD
:105A5000FF4182B006460F461D464FF0000834460F
:105A60001CB9FAF7E5FB00BFFEE70FB9206C08B9D7
:105A7000012000E0002018B9FAF7DAFB00BFFEE7CA
:105A8000022D02D1E06B012801D1012000E00020AD
:105A900018B9FAF7CDFB00BFFEE700BFFFF75EFCC9
:105AA000A06BE16B884201D3022D18D12A463946FA
:105AB0002046FFF7AEF9606A08B9012000E0002037
:105AC00038B904F1240000F081FA012801D1FFF770
:105AD000C3FCFFF753FC012006B0BDE8F081049839
