:020000040800F2
:10000000C0EF01204D020008550200085702000809
:10001000590200085B0200085D02000800000000B1
:100020000000000000000000000000009D0100082A
:100030006102000800000000E1010008474F0008CD
:1000400067020008670200086702000867020008EC
:1000500067020008670200086702000867020008DC
:1000600067020008670200086702000867020008CC
:1000700067020008670200086702000867020008BC
:1000800067020008670200086702000867020008AC
:10009000670200086702000867020008670200089C
:1000A000670200086702000867020008670200088C
:1000B000670200086702000867020008670200087C
:1000C000670200086702000867020008670200086C
:1000D0006702000867020008F5540008670200087C
:1000E000670200086702000867020008670200084C
:1000F000670200086702000867020008670200083C
:10010000670200086702000867020008670200082B
:10011000670200086702000867020008670200081B
:10012000670200086702000867020008670200080B
:1001300067020008670200086702000867020008FB
:1001400067020008670200086702000869490008A2
:1001500067020008670200086702000867020008DB
:1001600067020008670200086702000867020008CB
:10017000670200086702000867020008000000002C
:100180006702000867020008DFF80CD000F0F0FA00
:1001900000480047B9850008C0EF0120234B1968CB
:1001A0000868B0E8F04F80F309884FF0000080F352
:1001B000118870470000000003480068006880F361
:1001C000088862B600DF00BF08ED00E0DFF80C0031
:1001D000016841F470010160704700BF88ED00E0E4
:1001E000EFF30980114B1A681EF0100F08BF20EDC5
:1001F000108A20E9F04F106008B44FF0500080F3EF
:10020000118809F067FF4FF0000080F3118808BCE7
:1002100019680868B0E8F04F1EF0100F08BFB0EC86
:10022000108A80F30988704700BF00BF9401002046
:10023000EFF311804FF0500181F31188704780F384
:1002400011887047EFF3058070470000064880472B
:1002500006480047FEE7FEE7FEE7FEE7FEE7FEE7AB
:10026000FEE7FEE7FEE7FEE7C94F00088901000848
:1002700040EA01039B0703D009E008C9121F08C028
:10028000042AFAD203E011F8013B00F8013B521EA8
:10029000F9D27047D2B201E000F8012B491EFBD21F
:1002A00070470022F6E710B513460A460446194681
:1002B000FFF7F0FF204610BD0EB540F2334102912A
:1002C0000021CDE900110A460B4600F03AF803B0D0
:1002D00000BDC1F30A5210B5C1F3130140F2FF3360
:1002E00041F480119A4201DA002010BD40F23343FC
:1002F0009A42A2F2334203DC524200F003F810BDEE
:10030000904010BD202A04DB203A21FA02F000219F
:10031000704721FA02F3D040C2F120029140084315
:100320001946704710B5141E73F1000408DA401C1A
:1003300041F1000192185B411A4301D120F0010004
:1003400010BD2DE9F04D92469B4611B1B1FA81F2F4
:1003500002E0B0FA80F22032904600F01BFA044628
:100360000F4640EA0A0041EA0B0153465A46084349
:1003700013D0114653EA010019D0C8F1400250468B
:10038000FFF7C0FF05460E4650465946424600F06C
:1003900001FA084305D0012004E020463946BDE8B3
:1003A000F08D0020054346EAE0762C4337430A9857
:1003B0006305E40AA0EB08000022FD0A44EA475462
:1003C0000A3002D500200146E9E70105101969410C
:1003D000DDE9084500196941BDE8F04DA2E72DE9C6
:1003E000FE4F804681EA0300C00F0C46009021F0CA
:1003F000004123F00045B8EB0200A94105D2404678
:10040000214690461C460B46024623F0004010430E
:1004100047D0270DC7F30A00C3F30A510290401AD0
:10042000019040286BDAC3F3130040F4801B00985E
:10043000924620B10023D2EB030A63EB0B0B019829
:100440005946C0F14002504600F0A4F906460D4658
:1004500050465946019A00F0ACF910EB0800614192
:10046000002487EA115284EAE7731A4340D0009AC5
:1004700062B3019A012A4FEA075215DC001B61EBB7
:1004800002014FF0004202EA0752CDE90042001C8F
:1004900041F5801132462B46FFF753FF03B0BDE80C
:1004A000F08F40462146F9E7001B61EB0201001C7A
:1004B00041F5801300185B412018A2F5001747EBA7
:1004C000030140EAD570B6196D4111E06D084FEA9D
:1004D000360645EAC0754FEA0752001B61EB020180
:1004E000001C41F5801149084FEA300000195141C4
:1004F00032462B4603B0BDE8F04FFFF713BF00981C
:10050000012240000023D0EB020263EBE07300986D
:1005100021464FEAE074B8EB000061EB0401E9E723
:1005200083F000435BE781F0004158E72DE9FE4F7F
:1005300081EA030404F0004421F0004100944FF0EC
:10054000000B23F0004350EA01045ED052EA03049A
:100550005BD0C3F30A54C1F30A552C44A4F2F3341C
:100560000194A0FB0254C1F3130141F48011C3F3C1
:10057000130343F4801301FB024400FB034E840A7F
:10058000970A44EA815447EA8357A4FB0768029517
:100590008D0A05FB07854FEA932C04FB0C542705B5
:1005A000029D4FEA065847EA1637B5EB08056EEB91
:1005B000070C870E920E47EA811742EA8312A7FBC7
:1005C0000201B6EB0B0164EB00042B0D43EA0C3384
:1005D0005E1844EB1C50DA465146E7FB0201C5F3B6
:1005E00013044FEA0B3343EA14534FEA0432019CDD
:1005F00043EA0603A4F10C040294009CCDE900B484
:10060000FFF79FFE03B0BDE8F08F00200146F9E739
:100610002DE9F04D81EA030404F0004B21F0004580
:1006200014464FF0000A23F0004150EA050220D0A2
:1006300054EA01021DD0C5F30A570246C5F313035D
:10064000C1F31300C1F30A5640F4801543F480133C
:10065000A7EB0608101BD64608F2FD3873EB050021
:1006600002D308F1010801E092185B41B8F1000FD4
:1006700003DA00200146BDE8F08D00204FF4801120
:10068000064684460EE0171B73EB050705D3121BC5
:1006900063EB050306434CEA010C49084FEA3000BE
:1006A00092185B4150EA0107EDD152EA030012D0E3
:1006B00082EA040083EA0501084305D0101BAB4120
:1006C00006D20122002306E000224FF0004302E0A0
:1006D0006FF0010253101AEB06004CEB085110EBBF
:1006E0000A0041EB0B01BDE8F04DFFF71BBE70B5F2
:1006F00021F0004303430CD0C1F30A550024D5EB8D
:10070000040564EB0403D617AD1AB34102DB0020E5
:10071000014670BD201841EB025170BD0EB5C10FEE
:1007200080EAE0700844CA07002140F233438DE8B4
:100730000E000A460B46FFF704FE03B000BD0000A2
:1007400030B5041E71F1000404DB4FF00044404258
:1007500064EB0101141E73F1000405DB1C464FF02D
:100760000043524263EB0403994208BF904230BDFC
:10077000064C074D06E0E06840F0010394E80700EE
:1007800098471034AC42F6D3FFF702FD5CAD000889
:100790007CAD0008202A04DB203A00FA02F1002098
:1007A00070479140C2F1200320FA03F319439040AF
:1007B0007047202A06DBCB17203A41FA02F043EAC1
:1007C000E07306E041FA02F3D040C2F1200291400A
:1007D0000843194670472DE9F04D00231A461B1AAD
:1007E0008A4103DB00200146BDE8F08DC1F30A52C7
:1007F000C1F3130141F480154FF0000BD10702D172
:1008000000186D41521E0027044640F2FF11384681
:1008100001EB620A3E468046024600204FF48011FA
:10082000FFF770FDC2197141BB1846EB0100B4EB34
:10083000030C75EB000C04D3E41A65EB00051746B6
:100840000E46241908F101006D4180463428E3DD8D
:10085000F91946EB0600091BA84103D24FF0FF32FD
:10086000134601E0002213461BEB070046EB0A513A
:10087000BDE8F04DFFF756BD70B58C1810F8015B60
:1008800015F0070301D110F8013B2A1106D110F829
:10089000012B03E010F8016B01F8016B5B1EF9D12D
:1008A0002B0705D40023521E0DD401F8013BFAE7B3
:1008B00010F8013BCB1A921C03E013F8015B01F81E
:1008C000015B521EF9D5A142D8D3002070BD70B58E
:1008D0000546AC6B94F83D00252803D1352084F8FB
:1008E0003D0002E0152084F83D00204600F008FE9F
:1008F00070BD70B50546AC6B042084F83D00206CDB
:1009000040F002002064204600F00DFE70BD70B57E
:100910000446A56B284600F0F4FD70BD70B592B09A
:1009200004460D46164624B1012C1AD0022C48D19B
:100930002FE03422284901A8FFF79AFC2648406B93
:100940000E902548816B0F9190F83C008DF8400087
:10095000214890F83D008DF841001F48006C11902F
:100960002FE034221D4901A8FFF782FC1B48406B91
:100970000E901A48816B0F9190F83C008DF8400062
:10098000164890F83D008DF841001448006C119015
:1009900017E03422124901A8FFF76AFC1048406BA7
:1009A0000E900F48816B0F9190F83C008DF840003D
:1009B0000B4890F83D008DF841000948006C1190FB
:1009C00000BF00BF01A800F079FF3246294601A808
:1009D00000F01AFF12B070BD880F0020CC0F00206D
:1009E000101000204E49096821F440314D4AC2F8E8
:1009F00004131146D1F8041342681143484A1160A8
:100A00000168496821F480710268516001684A6890
:100A1000016942EA0121026851600168496821F0D8
:100A20004071026851600168496882681143026838
:100A300051600168896821F4006102689160016871
:100A40008968C2681143026891600168896821F071
:100A500070610268916001688968026B11430268E5
:100A600091600168896821F04051026891600168D5
:100A70008968C26A1143026891600168896821F03F
:100A800002010268916001688A68816942EA410155
:100A900002689160416AA1B10168496841F400614E
:100AA000026851600168496821F460410268516040
:100AB00001684A68816A491E42EA41310268516010
:100AC00005E00168496821F400610268516001682D
:100AD000C96A21F470010268D1620168CA6A018C96
:100AE000491E42EA01510268D1620168896821F415
:100AF00000710268916001688A68C16942EA412117
:100B0000026891600168896821F4806102689160DF
:100B100001688A68416942EA8121026891607047F0
:100B2000042301400020014010B586B0044600BFF8
:100B300034B91E48006840F008001C49086019E0FC
:100B4000012C06D11948006840F0080017490860D8
:100B500010E0022C06D11548006840F00800134947
:100B6000086007E0032C05D11048006840F0080039
:100B70000E49086000BF0E4830F8140001900120B3
:100B800002900390022004900A4951F8240001A920
:100B900002F0F6F8064A32F81410064A52F8240019
:100BA000002202F0F1F906B010BD0000303802401A
:100BB0004CAC00086001002010B50446044A32F82D
:100BC0001410044A52F82400002202F0DDF910BD8E
:100BD0004CAC00086001002010B50446044A32F80D
:100BE0001410044A52F82400012202F0CDF910BD7D
:100BF0004CAC0008600100200346042B15D007DC34
:100C00007BB1012B0ED0022B0DD0032B12D10BE0A8
:100C1000202B0BD0212B0AD0222B09D0232B09D13A
:100C200007E008E007E006E005E004E003E002E09A
:100C300001E000E000BF00BF0020704700207047C7
:100C400010B50848084908600022084906480068AD
:100C500004F05CFD06490448006804F050FD0020E3
:100C600010BD00004C060020000000204C040020B5
:100C70004C02002070B504460D46002600BF04E07B
:100C800014F8010B07F010FA761C2868B042F7D868
:100C9000024804F010FD002070BD00004C0600204A
:100CA00070B504460D462A4621460448006804F003
:100CB0002DFD0248006804F068FD70BD00000020B2
:100CC00088B0002214210A2009F003FB4C49086077
:100CD00095E000235A1E03A94948006809F027FB44
:100CE0009DF80C003128F3D100BF9DF805008DF868
:100CF00004009DF806008DF805009DF807008DF8AA
:100D000006009DF800008DF80700684607F016F908
:100D100004463CB99DF800003A2803D09DF8000035
:100D20003B28E2D1002C6AD19DF8070000069DF80F
:100D3000061040EA01409DF8051040EA01209DF8A8
:100D4000041008432F4A811A904231D00ADC2E4900
:100D5000084478B12D490844D8B12D4908440028E9
:100D60003BD12CE02B480844D8B12B49084400283B
:100D700033D12BE000235A1E28A12A48006809F02D
:100D8000B2FB00235A1E28A12648006809F0ABFBDD
:100D900034E000235A1E29A12248006809F0A3FB71
:100DA0002CE008F01DF90546284608F04FF925E02B
:100DB00007F0C2FC0546284608F048F91EE007F097
:100DC00021FE0546284608F041F917E007F0EAFC45
:100DD0000546284608F03AF910E000235A1E1CA1E7
:100DE0001048006809F07FFB00BF684607F0A6F8CE
:100DF00018B99DF800003B28F7D100BF00BF68E795
:100E0000F0010020434F4D53B7BBB1C0F3FEFBFFD1
:100E100007F20EEFF0F5F9FE0C1405F541434B5FB8
:100E200000000000F401002053544D333246342DAD
:100E3000446973636F766572790000003953656E9B
:100E4000645379737456657273696F6E00000000A5
:100E5000453939390000000094B007F003F9002249
:100E60001E21052009F035FAAB490860042009F07D
:100E700005FAAA490860AAA30FCBCDE90A23CDE958
:100E80000801ABA207CA01AB07C343E100235A1E06
:100E90000CA9A148006809F04AFA4FF0FF319F48B9
:100EA000006809F020FC9DF83000312872D107F06D
:100EB00057FB04286FD107F039FB049007F04AFB79
:100EC000814607F007FB05900598082816DD07F016
:100ED0004DFB834607F03EFB824607F02DFB0AFBE5
:100EE00000FAABEB1A40049901EB40010498B1FB06
:100EF000F0F200FB12174FEA490911E007F036FB48
:100F0000834607F027FB824607F016FB0AFB00FA30
:100F1000ABEB1A4104980144B1FBF0F200FB12174D
:100F20000598C0B28DF828004FEA19408DF82900C5
:100F30004FEA19208DF82A0009F0FF008DF82B00E8
:100F400000F02AFA8DF82F0007EB0901049881427E
:100F500007D90498C01B07900798A9EB00000690DA
:100F600003E0CDF81C9000200690002658E03046A3
:100F700007F0D4FA8046701CC0B28DF82E00102104
:100F800008A807F0B7F80798B0F5804F1CD9079D5F
:100F900000240DE053E0B9E008EB070101EB8430D9
:100FA0004FF4804107F0A6F8601CC4B2A5F5804557
:100FB000B5F5804FF0D87DB108EB070202EB843025
:100FC000A9B207F097F807E0079828B1079A91B2FD
:100FD00008EB070007F08EF80698B0F5804F16D999
:100FE000069D002409E008EB84304FF4804107F0AF
:100FF00081F8601CC4B2A5F58045B5F5804FF2D8E4
:1010000065B1A9B208EB843007F074F806E00698E1
:1010100020B1069881B2404607F06CF8701CC6B249
:1010200000F0BAF9B042A2DC44A007F07DF800233A
:101030005A1E44A14648006809F055FA66E09DF83A
:10104000300032281DD1002618E006F13100C0B270
:101050008DF80800711CC8B207F074FA0746380C06
:101060008DF80D00380A8DF80E00F8B28DF80F00DB
:101070000C2101A807F03EF8701CC6B2022EE4DB7A
:1010800044E09DF83000332802D108F077FD3DE0C0
:101090009DF83000342802D108F0AAFC36E09DF813
:1010A0003000352802D108F00FFD2FE09DF8300008
:1010B000362802D108F0D0FC28E09DF8300037280F
:1010C00003D124A007F030F820E09DF83000382844
:1010D00003D122A007F028F818E09DF83000392845
:1010E00002D108F067FD11E09DF8300049280AD1CF
:1010F00000235A1E0CA90848006809F018F90CA82A
:1011000007F012F802E00CA807F00EF80348006898
:1011100009F0CCFABAE60000F4010020F801002042
:101120004F53435F4441544178787878434830784E
:1011300047454E5F7843485F46787878535F4F4B1A
:1011400000000000324461746153656E7400000059
:10115000FC010020475F4E5800000000475F4F4BE6
:101160000000000010B503F025FB10BD70B504466B
:10117000A56B284600F0F0FB0120287170BD70B50A
:101180000446A56B284600F0B5FB0120287170BD10
:1011900070B50546AC6B206940F004002061204624
:1011A00000F0DCFB0120207170BD70B50546AC6B12
:1011B000206940F004002061204600F09DFB0120E2
:1011C000207170BD70B50446A56B284600F0C5FBC4
:1011D00070BD70B50446A56B284600F08CFB70BD51
:1011E000F8B504460D461646002714B1012C04D16B
:1011F00001E0002701E0102700BF00BF3946064884
:1012000000F0BCFC002033462A46394600900248D4
:1012100000F024FCF8BD0000D40E002010B592B000
:101220000446012C04D0022C1AD0032C48D12FE004
:101230003422274901A8FFF71BF82548406B0E9080
:101240002348816B0F9190F83C008DF840002048B6
:1012500090F83D008DF841001D48006C11902FE082
:1012600034221C4901A8FFF703F81A48406B0E907E
:101270001848816B0F9190F83C008DF8400015489C
:1012800090F83D008DF841001248006C119017E075
:101290003422114901A8FEF7EBFF0F48406B0E9076
:1012A0000D48816B0F9190F83C008DF840000A4882
:1012B00090F83D008DF841000748006C119000BF88
:1012C00000BF0F980068406880B212B010BD0000E7
:1012D000880F0020CC0F00201010002010B50468EB
:1012E00063608468402C04D10468A2600468E160F3
:1012F00003E00468A1600468E26010BD10B503F06B
:1013000095FE10BD10B503F09DFE10BD86B0FFF731
:1013100029FF03F0A3FE002214210A2008F0D9FFC0
:101320001B49086007F0B2F831E000235A1E01A9FA
:101330001748006808F0FBFF9DF80400312826D00C
:101340009DF80400322822D09DF80400332802D1F1
:101350001048007D1BE09DF8040034280AD10D4898
:10136000007DA0B906F05AFFFFF7CCFF0120094924
:1013700008750CE09DF80400352808D10548007D6B
:10138000012804D1FFF7BAFF002002490875CCE715
:101390003802002080BC01200148407F70470000D7
:1013A00048BC012010B5024600BF92F83C0001285D
:1013B00001D1022010BD012082F83C0000BF086866
:1013C000092816D91068C0680B780A3B03EB430460
:1013D0000723A34098431368D8600B780A3B03EBBC
:1013E0004303886898401368DB6818431368D86023
:1013F00013E0106800690B7803EB43040723A34054
:101400009843136818610B7803EB4303886898408E
:1014100013681B691843136818614868072816D2B7
:101420001068406B0B795B1E03EB83041F23A34002
:101430009843136858630B795B1E03EB83030868BA
:10144000984013685B6B1843136858632FE0486833
:101450000D2816D21068006B0B79DB1F03EB830499
:101460001F23A3409843136818630B79DB1F03EB1A
:1014700083030868984013681B6B1843136818634C
:1014800015E01068C06A0B790D3B03EB83041F2342
:10149000A34098431368D8620B790D3B03EB830399
:1014A000086898401368DB6A18431368D862124BC7
:1014B0001068984208D10868122805D10F480068C2
:1014C00040F48000C3F804030B4B106898420CD121
:1014D0000868102802D00868112806D1074800685B
:1014E00040F40000044BC3F8040300BF002082F85E
:1014F0003C0000BF00BF5DE7002001400423014025
:101500007047704710B504460CB9012010BD022089
:1015100084F83D00204600F025F80020206484F87F
:101520003D0000BFF2E7704710B504460CB901203A
:1015300010BD94F83D0010B9204600F055F8022087
:1015400084F83D002046FFF74DFA0020206401207A
:1015500084F83D0000BF002084F83C0000BF00BFBD
:10156000E6E7000010B504461A49206888420DD10C
:101570001948006820F48070174908600221174854
:1015800001F096FBA06B00F04FFB22E014492068AD
:1015900088420DD11048006820F400700E490860A0
:1015A00004210E4801F084FBA06B00F03DFB10E02D
:1015B0000C49206888420CD10748006820F48060FC
:1015C000054908600821054801F072FBA06B00F096
:1015D0002BFB10BD002001404438024000080240AF
:1015E000002101400022014010B586B004467C492C
:1015F000206888424CD17B48006840F0040079495B
:10160000086078481430006840F4807075491431DF
:10161000086002200190032002900020039001A99D
:10162000714801F0ADFB71487149086000204860C5
:1016300000216F488160C1604FF4806101616D4895
:101640000068B0F1007F04D06A480068B0F1407FC4
:1016500004D1002166488161416105E04FF40051E9
:1016600063488161891041614FF480716048C161B4
:101670004902016200214162012181620021C162AF
:10168000016301F083FA00BF5948A0638463A5E0B9
:101690005949206888424ED15248006840F0040001
:1016A000504908604F481430006840F400704D49BC
:1016B0001431086004200190032002900020039060
:1016C00001A9494801F05CFB484830304B490860AB
:1016D0004FF000704860002148488160C1604FF4BD
:1016E0008061016143480068B0F1007F04D0414847
:1016F0000068B0F1407F04D1002140488161416120
:1017000005E04FF400513D488161891041614FF47B
:1017100080713A48C16149020162002141620121A0
:1017200081620021C162016301F030FA00BF3348D9
:10173000A063846352E03249206888424ED1294830
:10174000006840F00400274908602648143000680B
:1017500040F4806023491431086008200190032080
:1017600002900020039001A91F4801F009FB1F48C7
:101770001830244908604FF08060486000212148FB
:101780008160C1604FF4806101611A480068B0F166
:10179000007F04D017480068B0F1407F04D10021D9
:1017A00018488161416105E04FF40051154881619D
:1017B000891041614FF480711248C1614902016290
:1017C00000214162012181620021C162016301F0B7
:1017D000DDF900BF0B48A063846300BF06B010BDF5
:1017E00000200140303802400008024010640240EE
:1017F000541000204800002000210140A4100020C7
:1018000000220140F41000202DE9F04104460D466D
:101810001646002700BF94F83C00012802D10220A0
:10182000BDE8F081012084F83C0000BF20684068DA
:1018300040F08060216848602068806840F48070D3
:10184000216888601A48A16BC8631A48A16B0864B4
:101850001948A16B8864226802F14C0133462A467C
:10186000A06B01F0D1F9122084F83D002068806857
:1018700000F0010060B92068806840F00100216834
:10188000886002E000BF781C87B2B7F5077FF9DDFA
:10189000E06A28B92068806840F08040216888604C
:1018A00000BF002084F83C0000BF00BFB8E7000084
:1018B000CF0800080F090008F308000810B5044617
:1018C0002068806820F001002168886020684068F6
:1018D00020F08060216848602068806820F4807073
:1018E00021688860A06B00F06FF9012084F83D004A
:1018F000002010BD704770477047000070B5034668
:101900000024002500BF5879012801D1022070BDB4
:101910000120587100BF022018710E48046840F67B
:10192000FE7090408443D1E9000640EA060505FABE
:1019300002F00443074804600068C0269640B043A4
:10194000044E30600120187100BF0020587100BFA4
:1019500000BFDCE70074004070477047704710B567
:1019600004460CB9012010BD207910B9204600F0C2
:1019700009F8022020710020206101202071002040
:10198000F1E7000010B586B004462E492068884271
:1019900056D12D48006840F000502B490860302097
:1019A0000190032002900020039001A9274801F034
:1019B000E7F92748274908604FF0606048604021F8
:1019C000244881600021C1604FF4806101614900B9
:1019D00041618161C910C161490201620021416216
:1019E000012181620021C162016301F0CFF800BFD3
:1019F0001848A060846300BF154818301649086075
:101A00004FF0606048604021134881600021C16050
:101A10004FF480610161490041618161C910C16178
:101A20004902016200214162012181620021C162FB
:101A3000016301F0ABF800BF0748E060846300BFBA
:101A400006B010BD00740040403802400000024063
:101A500088600240E80E0020380F00202DE9F04792
:101A600004460D4616469846089F4FF0000900BFF1
:101A70006079012802D10220BDE8F0870120607161
:101A800000BF0220207115BB3648A168C8633648E4
:101A9000A16808643548A16888642068006840F43B
:101AA00080502168086027B1042F06D0082F0CD180
:101AB00007E0206800F1080908E0206800F10C093F
:101AC00004E0206800F1100900E000BF22E028488F
:101AD000E168C8632748E16808642748E1688864CA
:101AE0002068006840F080502168086027B1042F0A
:101AF00006D0082F0CD107E0206800F1140908E097
:101B0000206800F1180904E0206800F11C0900E0D9
:101B100000BF00BF65B92068006840F4005021682C
:101B2000086043464A463146A06801F06DF80BE074
:101B30002068006840F000502168086043464A462B
:101B40003146E06801F060F8206800680121A94092
:101B500008432168086000BF0020607100BF00BF1B
:101B60008AE700006D110008C511000891110008F6
:101B70007F110008D3110008AB11000870B50446AE
:101B80000D460026206800684FF48051A940884324
:101B900021680860206801680120A840814320680E
:101BA000016025B9A06800F00FF8064603E0E06880
:101BB00000F00AF80646012E02D10420207101E04F
:101BC00001202071304670BD70B5044600252068A4
:101BD000006820F001002168086001F0DFF9054687
:101BE00012E001F0DBF9401BB0F57A7F0CD9E06C14
:101BF00040F02000E06400BF002084F8340000BF03
:101C0000032084F8350070BD2068006800F00100F2
:101C10000028E6D100BF84F8340000BF012084F81A
:101C200035000020EFE70000014609B901207047A8
:101C300091F83500022801D10120F8E70868006812
:101C400020F001000A68106000200A6810600A682D
:101C500050600A6890600A68D0600A6810612120AC
:101C60000A685061F94A086890425CD9F84A0868E5
:101C7000904201D1F74852E0F44A483A086890424D
:101C800001D1F4484BE0F24A60320868904201D139
:101C9000F04844E0ED4A18320868904201D1ED481E
:101CA0003DE0EB4A18320868904201D1801536E0D9
:101CB000E64A303A0868904201D180152FE0E44AA4
:101CC00078320868904201D1801528E0DF4A30322E
:101CD0000868904201D1801521E0DD4A3032086861
:101CE000904202D14FF4802019E0D84A183A08688F
:101CF000904202D14FF4802011E0D54A903208681A
:101D0000904202D14FF4802009E0D04A483208685E
:101D1000904202D14FF4802001E04FF08070CB4A16
:101D20004C3A10601FE1CA4AA832086890425CD958
:101D3000C74A0868904201D1C64852E0C34A483AAF
:101D40000868904201D1C3484BE0C14A603208683C
:101D5000904201D1BF4844E0BC4A18320868904222
:101D600001D1BC483DE0BA4A18320868904201D11E
:101D7000801536E0B54A303A0868904201D18015A6
:101D80002FE0B34A78320868904201D1801528E0EC
:101D9000AE4A30320868904201D1801521E0AC4A49
:101DA00030320868904202D14FF4802019E0A74AEF
:101DB000183A0868904202D14FF4802011E0A44AFA
:101DC00090320868904202D14FF4802009E09F4A87
:101DD00048320868904202D14FF4802001E04FF071
:101DE00080709A4A503A1060BDE0994A48320868BB
:101DF00090425CD9964A0868904201D1954852E0D9
:101E0000924A483A0868904201D192484BE0904A81
:101E100060320868904201D18E4844E08B4A183203
:101E20000868904201D18B483DE0894A1832086821
:101E3000904201D1801536E0844A303A08689042D9
:101E400001D180152FE0824A78320868904201D192
:101E5000801528E07D4A30320868904201D1801513
:101E600021E07B4A30320868904202D14FF4802052
:101E700019E0764A183A0868904202D14FF480205F
:101E800011E0734A90320868904202D14FF48020EA
:101E900009E06E4A48320868904202D14FF480202F
:101EA00001E04FF080706A4A103AD0605BE0684A07
:101EB0000868904201D1674852E0644A483A08688D
:101EC000904201D163484BE0614A60320868904219
:101ED00001D1604844E05D4A18320868904201D15F
:101EE0005C483DE05A4A18320868904201D180159A
:101EF00036E0564A303A0868904201D180152FE00A
:101F0000534A78320868904201D1801528E04F4A40
:101F100030320868904201D1801521E04C4A3032BD
:101F20000868904202D14FF4802019E0474A183ADD
:101F30000868904202D14FF4802011E0444A903268
:101F40000868904202D14FF4802009E03F4A4832AD
:101F50000868904202D14FF4802001E04FF0807079
:101F60003B4A103A9060394A086890425CD9384A36
:101F70000868904201D1202052E0344A483A08686B
:101F8000904201D120204BE0314A603208689042F3
:101F900001D1202044E02D4A18320868904201D136
:101FA00020203DE02A4A18320868904201D1C0142E
:101FB00036E0264A303A0868904201D1C0142FE03A
:101FC000234A78320868904201D1C01428E01F4AA1
:101FD00030320868904201D1C01421E01C4A3032EE
:101FE0000868904202D14FF4001019E0174A183ADD
:101FF0000868904202D14FF4001011E0144A903268
:102000000868904202D14FF4001009E00F4A4832AC
:102010000868904202D14FF4001001E04FF00060D8
:102020000A4A4C3A106021E1094AA83208689042F5
:1020300060D9074A0868904201D1202056E0034A3F
:10204000483A0868904207D120204FE05864024087
:102050001060024004008000F84A0868904201D1F4
:10206000202043E0F64A0868904201D120203DE05C
:10207000F24A483A0868904201D1C01436E0F04A6A
:10208000483A0868904201D1C0142FE0EB4A183258
:102090000868904201D1C01428E0E94A1832086863
:1020A000904201D1C01421E0E44A303A08689042DD
:1020B00002D14FF4001019E0E14A303A086890422A
:1020C00002D14FF4001011E0DC4A3032086890422F
:1020D00002D14FF4001009E0D94A3032086890422A
:1020E00002D14FF4001001E04FF00060D44A683A8A
:1020F0001060BBE0D14A183A086890425BD9CF4AD9
:10210000603A0868904201D1202050E0CC4A603A01
:102110000868904201D1202049E0C84A08689042EE
:1021200001D1202043E0C64A0868904201D1202016
:102130003DE0C24A483A0868904201D1C01436E0F6
:10214000BF4A483A0868904201D1C0142FE0BB4A08
:1021500018320868904201D1C01428E0B84A1832F9
:102160000868904201D1C01421E0B44A303A0868AE
:10217000904202D14FF4001019E0B14A303A086899
:10218000904202D14FF4001011E0AC4A303208689E
:10219000904202D14FF4001009E0A94A3032086899
:1021A000904202D14FF4001001E04FF00060A34ACA
:1021B000703AD0605AE0A14A603A0868904201D172
:1021C000202050E09E4A603A0868904201D12020C9
:1021D00049E09A4A0868904201D1202043E0984A99
:1021E0000868904201D120203DE0944A483A0868AE
:1021F000904201D1C01436E0914A483A08689042B2
:1022000001D1C0142FE08D4A18320868904201D1E4
:10221000C01428E08A4A18320868904201D1C014DC
:1022200021E0864A303A0868904202D14FF400100B
:1022300019E0834A303A0868904202D14FF4001006
:1022400011E07E4A30320868904202D14FF400100B
:1022500009E07B4A30320868904202D14FF4001006
:1022600001E04FF00060754A703A9060744A183A85
:10227000086890425BD9714A603A0868904201D17F
:10228000082050E06E4A603A0868904201D1082068
:1022900049E06A4A0868904201D1082043E0684A50
:1022A0000868904201D108203DE0644A483A086835
:1022B000904201D1401536E0614A483A08689042A0
:1022C00001D140152FE05D4A18320868904201D1D3
:1022D000401528E05A4A18320868904201D140154A
:1022E00021E0564A303A0868904202D14FF400206B
:1022F00019E0534A303A0868904202D14FF4002066
:1023000011E04E4A30320868904202D14FF400206A
:1023100009E04B4A30320868904202D14FF4002065
:1023200001E04FF00070464A643A10601EE1434AF3
:102330004832086890425BD9404A603A0868904247
:1023400001D1082050E03E4A603A0868904201D12D
:10235000082049E0394A0868904201D1082043E04A
:10236000374A0868904201D108203DE0334A483A94
:102370000868904201D1401536E0314A483A086871
:10238000904201D140152FE02C4A18320868904243
:1023900001D1401528E02A4A18320868904201D13C
:1023A000401521E0254A303A0868904202D14FF4A6
:1023B000002019E0224A303A0868904202D14FF4D6
:1023C000002011E01D4A30320868904202D14FF4DB
:1023D000002009E01A4A30320868904202D14FF4D6
:1023E000002001E04FF00070154A683A1060BDE02F
:1023F000124A183A086890425DD9104A603A086853
:10240000904201D1082052E00D4A603A086890429B
:1024100001D108204BE0094A0868904201D1082008
:1024200045E0074A0868904201D108203FE0034A8E
:10243000483A0868904205D1401538E07060024083
:1024400070640240FA4A0868904201D140152EE0BB
:10245000F84A0868904201D1401528E0F44A6032F9
:102460000868904201D1401521E0F24A483A0868D4
:10247000904202D14FF4002019E0ED4A183208686A
:10248000904202D14FF4002011E0EA4A1832086865
:10249000904202D14FF4002009E0E54A7832086802
:1024A000904202D14FF4002001E04FF00070E14A69
:1024B000883AD0605AE0DF4A783A0868904201D101
:1024C000082050E0DA4A183A0868904201D1082002
:1024D00049E0D84A183A0868904201D1082042E001
:1024E000D34A48320868904201D108203BE0D14AE3
:1024F000603A0868904201D1401534E0CC4A08683F
:10250000904201D140152EE0CA4A0868904201D19C
:10251000401528E0C64A60320868904201D1401553
:1025200021E0C44A483A0868904202D14FF40020A2
:1025300019E0BF4A18320868904202D14FF40020D7
:1025400011E0BC4A18320868904202D14FF40020D2
:1025500009E0B74A78320868904202D14FF400206F
:1025600001E04FF00070B34A883A9060B04A3032D0
:10257000086890425BD9AF4A783A0868904201D126
:10258000AD4850E0AA4A183A0868904201D1AA48DA
:1025900049E0A84A183A0868904201D1A64842E0AA
:1025A000A34A48320868904201D1A3483BE0A14ABF
:1025B000603A0868904201D1402034E09C4A0868A3
:1025C000904201D140202EE09A4A0868904201D101
:1025D000402028E0964A60320868904201D14020AD
:1025E00021E0944A483A0868904202D14FF4803082
:1025F00019E08F4A18320868904202D14FF48030B7
:1026000011E08C4A18320868904202D14FF48030B1
:1026100009E0874A78320868904202D14FF480304E
:1026200001E04FF48000824A1C3A106021E1814AA7
:102630003032086890425BD97E4A783A0868904206
:1026400001D17D4850E07A4A183A0868904201D199
:10265000794849E0774A183A0868904201D17648AB
:1026600042E0734A48320868904201D172483BE028
:10267000704A603A0868904201D1402034E06C4AC8
:102680000868904201D140202EE06A4A08689042D2
:1026900001D1402028E0664A60320868904201D1AA
:1026A000402021E0634A483A0868904202D14FF442
:1026B000803019E05E4A18320868904202D14FF427
:1026C000803011E05B4A18320868904202D14FF422
:1026D000803009E0564A78320868904202D14FF4BF
:1026E000803001E04FF48000514A203A1060C0E091
:1026F000504A303A086890425BD94E4A783A0868A6
:10270000904201D14C4850E0494A183A086890423A
:1027100001D1494849E0474A183A0868904201D136
:10272000454842E0424A48320868904201D1424856
:102730003BE0404A603A0868904201D1402034E0D2
:102740003B4A0868904201D140202EE0394A08688F
:10275000904201D1402028E0354A6032086890421A
:1027600001D1402021E0334A483A0868904202D122
:102770004FF4803019E02E4A18320868904202D196
:102780004FF4803011E02B4A18320868904202D191
:102790004FF4803009E0264A78320868904202D12E
:1027A0004FF4803001E04FF48000224A883AD06034
:1027B0005FE0204A783A0868904201D11E4855E00F
:1027C0001B4A183A0868904201D11B484EE0194A4A
:1027D000183A0868904201D1174847E0144A483235
:1027E0000868904201D1144840E0124A603A0868F3
:1027F000904201D1402039E00D4A0868904201D151
:10280000402033E00B4A0868904201D140202DE07F
:10281000074A60320868904201D1402026E0054A0C
:10282000483A0868904209D14FF480301EE0000019
:10283000286402408860024001008000D14A086894
:10284000904202D14FF4803010E0CF4A08689042A5
:1028500002D14FF4803009E0CA4A603208689042E1
:1028600002D14FF4803001E04FF48000C64AA03A14
:102870009060C44A1832086890425BD9C24A903AC4
:102880000868904201D1102050E0BE4A303A0868F2
:10289000904201D1102049E0BB4A303A086890428A
:1028A00001D1102042E0B74A30320868904201D18D
:1028B00010203BE0B44A783A0868904201D10015F4
:1028C00034E0B04A183A0868904201D100152DE072
:1028D000AD4A183A0868904201D1001526E0A94A8D
:1028E00048320868904201D100151FE0A64A603ABC
:1028F0000868904202D14FF4801017E0A14A08689E
:10290000904202D14FF4801010E09F4A0868904234
:1029100002D14FF4801009E09A4A60320868904270
:1029200002D14FF4801001E04FF08060954A343AB4
:1029300010601CE1944A1832086890425BD9924AB0
:10294000903A0868904201D1102050E08D4A303A08
:102950000868904201D1102049E08B4A303A08685B
:10296000904201D1102042E0864A303208689042FD
:1029700001D110203BE0844A783A0868904201D1A6
:10298000001534E07F4A183A0868904201D10015DA
:102990002DE07D4A183A0868904201D1001526E0E2
:1029A000784A48320868904201D100151FE0764A03
:1029B000603A0868904202D14FF4801017E0714AE3
:1029C0000868904202D14FF4801010E06E4A086807
:1029D000904202D14FF4801009E06A4A60320868E0
:1029E000904202D14FF4801001E04FF08060654AC0
:1029F000383A1060BBE0644A483A086890425BD9B4
:102A0000614A903A0868904201D1102050E05D4A36
:102A1000303A0868904201D1102049E05A4A303AD1
:102A20000868904201D1102042E0564A30320868CE
:102A3000904201D110203BE0534A783A0868904216
:102A400001D1001534E04F4A183A0868904201D18C
:102A500000152DE04C4A183A0868904201D1001543
:102A600026E0484A48320868904201D100151FE02C
:102A7000454A603A0868904202D14FF4801017E04E
:102A8000404A0868904202D14FF4801010E03E4A5C
:102A90000868904202D14FF4801009E0394A603250
:102AA0000868904202D14FF4801001E04FF080603E
:102AB000354AA03AD0605AE0334A903A08689042CA
:102AC00001D1102050E02F4A303A0868904201D1DD
:102AD000102049E02C4A303A0868904201D1102079
:102AE00042E0284A30320868904201D110203BE091
:102AF000254A783A0868904201D1001534E0214A0D
:102B0000183A0868904201D100152DE01E4A183A83
:102B10000868904201D1001526E01A4A4832086838
:102B2000904201D100151FE0174A603A08689042B0
:102B300002D14FF4801017E0124A0868904202D187
:102B40004FF4801010E0104A0868904202D14FF410
:102B5000801009E00B4A60320868904202D14FF4BD
:102B6000801001E04FF08060074AA03A906000209A
:102B7000C86481F8350000BF81F8340000BF00BF91
:102B8000FFF755B840640240A060024001460022B1
:102B900009B901207047486A00B100BF022081F8DE
:102BA00035000868026817480240D1E9010318435C
:102BB000CB6818430B6918434B6918438B6918435A
:102BC000CB6918430B6A18430243486A042803D1AF
:102BD000D1E90B03184302430868026008684269A0
:102BE00022F00702486A0243486A042801D1886A31
:102BF0000243086842610020C864012081F8350062
:102C00000020C7E73F8014F02DE9F04104460D464F
:102C100016461F4600BF94F83400012802D1022056
:102C2000BDE8F081012084F8340000BF022084F860
:102C300035002068006820F00100216808603B46EC
:102C4000324629462046FEF749FB2068006840F0DE
:102C50001000216808602068006840F008002168C2
:102C600008602068006840F004002168086020685F
:102C7000406940F08000216848612068006840F0A9
:102C80000200216808602068006840F001002168A7
:102C900008600020C4E731B5002400F07FF9044645
:102CA00000BF00F07BF9001B00998842F9D338BDC2
:102CB000F0B502460B46002400210025002058E014
:102CC000012606FA00F403EA0401A14250D1166875
:102CD0004FEA400C032707FA0CF7BE431660C708FB
:102CE00002F1200656F8276047074FEAD76C0F27F6
:102CF00007FA0CF7BE434FEAD00C02F1200747F861
:102D00002C6096684FEA400C032707FA0CF7BE4385
:102D10009660576801268640B7435760D6684FEAE9
:102D2000400C032707FA0CF7BE43D6608607370F1F
:102D30000F2606FA07F5104E870856F82770AF439E
:102D40004FEA900C46F82C700C4E36688E430B4FB1
:102D50003E603E1D36688E433F1D3E603E1D366818
:102D60008E433F1D3E603E1D36688E433F1D3E60D4
:102D7000401C1028A4D3F0BD08380140003C01409D
:102D8000F0B502460B460025002400200021DCE0BF
:102D9000012606FA01F51E6806EA0504AC426ED16A
:102DA0005E68022E02D05E68122E13D1CF0802F1A7
:102DB000200656F827004E07F70E0F26BE40B043F8
:102DC0004F07FF0E1E69BE403043CF0802F12006B8
:102DD00046F8270010684F000326BE40B0431E7916
:102DE00006F003064F00BE40304310605E68012EBF
:102DF00008D05E68022E05D05E68112E02D05E6893
:102E0000122E13D190684F000326BE40B0434F00EE
:102E1000DE68BE4030439060506801268E40B0436B
:102E20001E79C6F300168E4030435060D0684F00C4
:102E30000326BE40B0434F009E68BE403043D06082
:102E40005E6806F08056B6F1805F7DD1414E3668EF
:102E500046F480463F4F3E603F4E8F0856F82700AD
:102E60008E07370F0F26BE40B0433C4EB24201D111
:102E700000262EE03A4EB24202D1012629E063E05C
:102E8000384EB24201D1022623E0374EB24201D180
:102E900003261EE0354EB24201D1042619E0344E1D
:102EA000B24201D1052614E0324EB24201D10626CB
:102EB0000FE0314EB24201D107260AE02F4EB24256
:102EC00001D1082605E02E4EB24201D1092600E0CC
:102ED0000A268F073F0FBE4030431F4E8F0846F82B
:102EE0002700284E3068A0435E6806F48036B6F5A9
:102EF000803F00D12043234E3060361D3068A04310
:102F00005E6806F40036B6F5003F00D120431D4E42
:102F1000361D3060361D3068A0435E6806F48016AA
:102F2000B6F5801F00D12043164E08363060361D9E
:102F30003068A0435E6806F40016B6F5001F00D1A5
:102F40002043104E0C363060491C1029FFF420AF8E
:102F5000F0BD000044380240083801400000024043
:102F60000004024000080240000C02400010024031
:102F70000014024000180240001C024000200240E1
:102F800000240240003C01400AB1018300E041837B
:102F900070470000004870470000010101480068C8
:102FA000704700009001002002480068401C014961
:102FB000086070479001002010B50D48006840F48B
:102FC00000700B4908600846006840F480600860A3
:102FD0000846006840F480700860032000F080F824
:102FE000002000F007F800F017F8002010BD0000E6
:102FF000003C024070B5044600F088FF4FF47A713F
:10300000B0FBF1F5284601F029FA00222146501EB6
:1030100000F027F8002070BD10B5032000F060F824
:1030200000221146501E00F01CF810BD00BF00F039
:103030001F0201219140034A430942F8231000BFB7
:103040007047000080E200E000BF00F01F02012195
:1030500091404209920002F1E022C2F8001100BF43
:1030600070472DE9F05F80460D461646002701F0B7
:103070005FFC074639462A46334601F00700C0F197
:10308000070ABAF1040F02D94FF0040A01E0C0F1B7
:10309000070AD14600F1040ABAF1070F02D24FF035
:1030A000000A01E0A0F1030AD4464FF0010A0AFA2F
:1030B00009FAAAF1010A0AEA020A0AFA0CFA4FF01E
:1030C000010B0BFA0CFBABF1010B0BEA030B4AEA09
:1030D0000B042146404601F033FCBDE8F09F0000A0
:1030E00000BF00F00702064B19684FF6FF031940B6
:1030F000044B0B4343EA0221014B196000BF7047A8
:103100000CED00E00000FA05024610684162002064
:103110007047F0B503461446002500221868426A3D
:1031200021B942EA04401E68B06219E01868806A5A
:1031300002EB1042002508E0186800F5827050F894
:10314000250002EB1042681CC5B2481EA842F3DC01
:1031500042EA0447186800F582704E1E40F8267057
:103160000020F0BD10B50446D4F8AC0302F044FED4
:1031700010BD70B504460D46C5EBC50304F1300122
:1031800001EB8301CA682946D4F8AC0302F090FD34
:1031900070BD70B504460D46C5EBC50304F5EA7174
:1031A00001EB8301CA682946D4F8AC0302F0E1FDC3
:1031B00070BD10B50446D4F8AC0302F020FE10BD7B
:1031C00070B504460D4605F08000802808D105F052
:1031D0007F00C0EBC00104F1300000EB810607E086
:1031E00005F07F00C0EBC00104F5EA7000EB81063A
:1031F00005F07F00307005F08000C009707000BFDE
:1032000094F87803012801D1022070BD012084F8D0
:10321000780300BF3146206803F0EAF900BF0020C0
:1032200084F8780300BF00BFEFE770B504460D4691
:1032300005F08000802808D105F07F00C0EBC001B8
:1032400004F1300000EB810605E0C5EBC50104F593
:10325000EA7000EB81060020B07005F07F0030704E
:10326000C5F3C010707000BF94F87803012801D135
:10327000022070BD012084F8780300BF3146206829
:1032800003F0F8FB00BF002084F8780300BF00BF04
:10329000EFE7024601F07F00C0EBC00302F5EA70E1
:1032A00000EB8300008B80B270472DE9F0470546A4
:1032B0000E4690461F464FF0000906F08000802819
:1032C00008D106F07F00C0EBC00105F1300000EB33
:1032D000810407E006F07F00C0EBC00105F5EA704D
:1032E00000EB810406F07F00207006F08000C0092A
:1032F0006070C4F80880E770607808B12078E080DA
:10330000022F01D10020207100BF95F87803012819
:1033100002D10220BDE8F087012085F8780300BFC4
:103320002146286803F082F800BF002085F8780362
:1033300000BF4846EEE72DE9F04104460E46174629
:10334000984606F07F00C0EBC00104F5EA7000EB80
:103350008105EF60C5F814800020A861687006F050
:103360007F0028702069012800D12F6100BF94F8E8
:103370007803012802D10220BDE8F081012084F801
:10338000780300BF06F07F0028B9227C2946206818
:1033900003F076FA04E0227C2946206803F0F4FB6F
:1033A00000BF002084F8780300BF00BFE4E770B5D9
:1033B00004460D4605F08000802808D105F07F0006
:1033C000C0EBC00104F1300000EB810605E0C5EB65
:1033D000C50104F5EA7000EB81060120B07005F02C
:1033E0007F003070C5F3C010707000BF94F8780390
:1033F000012801D1022070BD012084F8780300BFAC
:103400003146206803F07AFB05F07F0028B9217C63
:1034100004F55F72206803F00BFB00BF002084F806
:10342000780300BF00BFE6E72DE9F04104460E46F1
:103430001746984606F07F00C0EBC00104F130004B
:1034400000EB8105EF60C5F814800020A861012021
:10345000687006F07F0028702069012800D12F6174
:1034600000BF94F87803012802D10220BDE8F08162
:10347000012084F8780300BF06F07F0028B9227C81
:103480002946206803F0FCF904E0227C29462068E4
:1034900003F07AFB00BF002084F8780300BF00BF70
:1034A000E4E72DE9F84F044626684FF0000AD346BA
:1034B000D0460025002000900027206803F024FD5E
:1034C000002867D1206803F057FD08B9BDE8F88FE0
:1034D000206803F051FD00F00200022801D12168AC
:1034E0004861206803F048FD00F40020B0F5002F8B
:1034F0007CD10025206803F015FD834673E00BF0B6
:10350000010000286CD0E9B2206803F02AFD804653
:1035100008F00100E8B3012106F5306000EB45102A
:103520008160206901282BD1C5EBC50104F5EA7043
:1035300000EB8100816806F5306000EB4510006902
:10354000C0F31200091AC5EBC50204F5EA7000EBDE
:1035500082008161C5EBC50104F5EA7000EB8100D2
:10356000C5EBC502C16804F5EA7000EB8200806813
:103570000144C5EBC50204F5EA7000EB8200C160AE
:10358000E9B22046FFF705FE2069012811D105B9EF
:1035900001E00EE01DE2C5EBC50104F5EA7000EBA9
:1035A0008100406928B904F55F720121206803F0A9
:1035B0003FFA08F00800082808D1204600F052FB26
:1035C000082106F5306000EB4510816008F010001E
:1035D000102805D1102106F5306000EB4510816000
:1035E0006D1C4FEA5B0BBBF1000F88D1206803F024
:1035F000C3FC00F48020B0F5802F7ED1206803F05A
:1036000088FC8346002583E00BF0010000287CD075
:10361000E9B2206803F08FFC804608F00100F0B3A7
:103620000120A840009040F634008059009988435A
:1036300040F634018851012106F5106000EB451079
:1036400081602069012815D1C5EBC50104F1300066
:1036500000EB8100C5EBC502C16804F1300000EB4E
:10366000820080680144C5EBC50204F1300000EB24
:103670008200C160E9B22046FFF77BFD2069012886
:1036800010D165B9C5EBC50104F1300000EB810034
:10369000406920B904F55F720121206800E001E073
:1036A00003F0C6F908F00800082805D1082106F53E
:1036B000106000EB4510816008F01000102805D163
:1036C000102106F5106000EB4510816008F0400005
:1036D000402805D1402106F5106000EB45108160BF
:1036E00008F00200022805D1022106F5106000EB67
:1036F0004510816008F0800001E00DE005E08028C1
:1037000003D12946204601F039F96D1C4FEA5B0BC5
:10371000BBF1000F7FF478AF206803F02DFC00F0C0
:103720000040B0F1004F0ED140F60400805920F067
:10373000010140F604008151204600F06CFA4FF080
:10374000004021684861206803F016FC00F4006026
:10375000B0F5006F0CD140F60800805900F0010070
:1037600010B1204600F0A1FA4FF4006021684861D2
:10377000206803F001FC00F48050B0F5805F5AD15E
:1037800040F60400805920F0010140F60400815108
:103790000021206803F07EFB4FF0000A0CE0FF21BF
:1037A00006F5106000EB4A10816006F5306000EB12
:1037B0004A1081600AF1010A60685045EFD84FF065
:1037C000FF3140F618008151001D805940F0011171
:1037D00040F61C008151A06A70B1D6F8840840F010
:1037E0000B01C6F8841840F64400805940F00B01E4
:1037F00040F6440081510EE040F61400805940F03C
:103800000B0140F614008151001F805940F00B015C
:103810004FF401608151D6F8000820F4FE60C6F82C
:103820000008217C04F55F72206803F001F94FF471
:10383000805021684861206803F09EFB00F400502E
:10384000B0F5005F29D1206802F052FE2068C06800
:1038500020F470502168C860206803F033FB58B929
:103860000021E1604FF4007161612068C06840F49C
:1038700010502168C86009E00321E16040216161C6
:103880002068C06840F4A0502168C860204600F05D
:10389000A9F94FF4005021684861206803F06CFBDF
:1038A00000F01000102843D12068806920F010003B
:1038B00021688861376A07F00F00C0EBC00104F58A
:1038C000EA7000EB8109C7F34340022819D147F69B
:1038D000F070384030B3C7F30A123046D9F80C10F4
:1038E00003F050FBC7F30A11D9F80C000844C9F8DB
:1038F0000C00C7F30A11D9F818000844C9F81800D9
:1039000010E0C7F3434006280CD1082204F55F718C
:10391000304603F037FBC7F30A11D9F81800084402
:10392000C9F818002068806940F01000216888619B
:10393000206803F021FB00F00800082805D120468C
:1039400000F070F9082021684861206803F014FB3A
:1039500000F48010B0F5801F07D1E9B2204600F0D6
:103960003AF84FF4801021684861206803F004FBA6
:1039700000F40010B0F5001F07D1E9B2204600F0B6
:1039800033F84FF4001021684861206803F0F4FA1E
:1039900000F08040B0F1804F06D12046FFF7E2FBF7
:1039A0004FF0804021684861206803F0E5FA00F09C
:1039B000040004280DD12068476807F0040004289B
:1039C00002D12046FFF7F5FB2068406838432168A4
:1039D000486000BF7AE570B504460D462946D4F824
:1039E000AC0302F071FA70BD70B504460D4629466D
:1039F000D4F8AC0302F06BFA70BD30B589B0044660
:103A0000002514B9012009B030BD032084F87903E2
:103A1000204600F093F8206802F02AFF202204F1EB
:103A200010016846FCF724FC94E80F0002F082FDC8
:103A30000021206803F0BAFA002530E00121C5EB2F
:103A4000C50204F1300000EB82004170C5EBC502F5
:103A500004F1300000F82250C5EBC50200EB8200F3
:103A6000C5800021C5EBC50204F1300000EB8200E7
:103A7000C170C5EBC50204F1300000EB820081602B
:103A8000C5EBC50204F1300000EB8200C160C5EB5C
:103A9000C50204F1300000EB820041616D1C0F2D66
:103AA000CCD3002536E00021C5EBC50204F5EA7051
:103AB00000EB82004170C5EBC50204F5EA7000F826
:103AC0002250C5EBC50204F1300000EB8200C58036
:103AD000C5EBC50204F5EA7000EB8200C170C5EBCE
:103AE000C50204F5EA7000EB82008160C5EBC502F7
:103AF00004F5EA7000EB8200C160C5EBC50204F575
:103B0000EA7000EB82004161206800F5827040F8A5
:103B100025106D1C0F2DC6D3202204F1100168461C
:103B2000FCF7A6FB94E80F0002F0D4FD012084F816
:103B30007903206802F0BFFD002064E710B586B06D
:103B400004462068B0F1A04F44D12348006840F0FB
:103B50000100214908600846006840F00400086040
:103B600000BF081D006840F08000091D08601A4869
:103B70001430006840F4804017491431086000BFD9
:103B800001200190029000200390049001A91348A5
:103B9000FFF7F6F84FF400700190002002900390B8
:103BA00001A90F48FFF7ECF84FF4E0500190022014
:103BB00002900020039004900A20059001A9084873
:103BC000FFF7DEF8002205214320FFF74AFA4320E1
:103BD000FFF73AFA06B010BD303802400008024044
:103BE0000000024070B504460125E06810B10228CB
:103BF00004D101E0002503E0012501E0012500BF1B
:103C000000BF2946D4F8AC0302F0BEF9D4F8AC03E7
:103C100002F080F970BD10B50446D4F8AC0302F090
:103C20009BF910BD10B50446D4F8AC0302F09BF923
:103C300010BD70B504460D4600BF94F87803012806
:103C400001D1022070BD012084F8780300BF29460D
:103C5000206803F0C3F900BF002084F8780300BF98
:103C600000BFEFE710B5044604F55F71D4F8AC036C
:103C700002F098F910BD10B5044600BF94F878031F
:103C8000012801D1022010BD012084F8780300BF73
:103C9000206802F001FD206803F0DEF800BF00207C
:103CA00084F8780300BF00BFEDE710B50446D4F8F0
:103CB000AC0302F0C0F910BD70B504460D460026F5
:103CC0009048006800F00F00A8427ED28D490D7028
:103CD0000846006800F00F00A84201D0012070BD26
:103CE000207800F00200022807D18748006820F001
:103CF000F000A168084384490860207800F00100C2
:103D000000283BD06068012807D17F480838006848
:103D1000C0F34040A0B90120E1E76068022807D164
:103D2000794808380068C0F3406048B90120D6E7F8
:103D3000754808380068C0F3400008B90120CEE794
:103D40007148006820F00300616808436E4908600C
:103D5000FFF724F906466068012810D108E0FFF754
:103D60001DF9801B41F28831884201D90320B6E752
:103D70006548006800F00C000428F0D1A2E06068FB
:103D8000022810D108E0FFF709F9801B41F28831C1
:103D9000884201D90320A2E75B48006800F00C00CC
:103DA0000828F0D18EE009E0FFF7F8F8801B41F217
:103DB0008831884202D9032091E706E05248006822
:103DC00000F00C000028EFD17CE0207800F0020029
:103DD000022807D14C48006820F0F000A168084391
:103DE00049490860207800F00100002860D0606830
:103DF000012807D1444808380068C0F34040A0B902
:103E000001206CE76068022807D13F480838006845
:103E1000C0F3406048B9012061E73B4808380068BA
:103E2000C0F3400008B9012059E73748006820F086
:103E300003006168084334490860FFF7AFF806469D
:103E40006068012810D108E0FFF7A8F8801B41F254
:103E50008831884201D9032041E72B48006800F0EF
:103E60000C000428F0D123E06068022810D108E09B
:103E7000FFF794F8801B41F28831884201D9032072
:103E80002DE72148006800F00C000828F0D10FE071
:103E900008E0FFF783F8801B41F28831884201D99E
:103EA00003201CE71848006800F00C000028F0D13F
:103EB00014490D700846006800F00F00A84201D0B8
:103EC00001200CE7207800F00400042807D10E48F8
:103ED000006820F4E050E16808430B49086020784E
:103EE00000F00800082808D10748006820F4604066
:103EF000216940EAC100044908600020FFF77AF810
:103F00000020ECE6003C02400838024000B500F01A
:103F100045F80949096801F0F001F02292FAA2F28D
:103F2000B2FA82F2D140054A515CC84004490860A7
:103F30000846006800BD00000838024057AC000881
:103F40007C01002000B5FFF7E1FF0749096801F493
:103F5000E0514FF4E05292FAA2F2B2FA82F2D1406A
:103F6000024A515CC84000BD0838024057AC000806
:103F700000B5FFF7CBFF0749096801F460414FF432
:103F8000604292FAA2F2B2FA82F2D140024A515C45
:103F9000C84000BD0838024057AC000870B5002189
:103FA0000022002300202B4C246804F00C0424B1D0
:103FB000042C04D0082C48D103E0274847E02748C8
:103FC00045E0244C241F246804F03F01214C241FA9
:103FD000246804F480044FF4800595FAA5F5B5FA39
:103FE00085F5EC4084B11D4CB4FBF1F5194C241F50
:103FF000246847F6C076344096FAA6F6B6FA86F6F6
:10400000F44005FB04F20FE0134CB4FBF1F5114C46
:10401000241F246847F6C076344096FAA6F6B6FA0E
:1040200086F6F44005FB04F20A4C241F246804F4CD
:1040300040344FF4403595FAA5F5B5FA85F5EC40D6
:10404000641C6300B2FBF3F001E0034800BF00BF53
:1040500070BD0000083802400024F40000127A000D
:1040600070B504460025207800F00100002867D0D4
:10407000F648006800F00C0004280DD0F3480068F2
:1040800000F00C00082813D1F048001F006800F46D
:104090008000B0F5800F0BD1EC4808380068C0F301
:1040A000404000284CD06068012849D0012070BDF4
:1040B0000020E649891F0870FEF770FF054608E0FA
:1040C000FEF76CFF401B41F28831884201D9032082
:1040D000EDE7DE4808380068C0F340400028EFD123
:1040E0002079DA49891F08706068012814D1FEF729
:1040F00055FF054608E0FEF751FF401B41F28831AD
:10410000884201D90320D2E7D04808380068C0F3BC
:1041100040400028EFD013E0FEF740FF054608E0DE
:10412000FEF73CFF401B41F28831884201D9032051
:10413000BDE7C64808380068C0F340400028EFD10A
:10414000207800F00200022869D1C048006800F021
:104150000C0058B1BD48006800F00C00082821D1BF
:10416000BA48001F006800F48000D8B9B748083882
:104170000068C0F3400020B1E068012801D00120B0
:1041800095E7B2480838006820F0F800F82292FA63
:10419000A2F2B2FA82F2216991400843AB49083990
:1041A00008603CE0E06828B30120A9490860FEF7F8
:1041B000F5FE054606E0FEF7F1FE401B642801D936
:1041C000032074E7A14808380068C0F340000028C5
:1041D000F1D09E480838006820F0F800F82292FAE2
:1041E000A2F2B2FA82F22169914008439749083954
:1041F000086014E0002096490860FEF7CFFE0546EF
:1042000006E0FEF7CBFE401B642801D903204EE7F1
:104210008E4808380068C0F340000028F1D12078AB
:1042200000F0080008282CD16069A8B10120894954
:104230000860FEF7B3FE054606E0FEF7AFFE401B42
:10424000642801D9032032E780486C300068C0F34D
:1042500040000028F1D014E000207E490860FEF7FD
:104260009DFE054606E0FEF799FE401B642801D935
:1042700003201CE775486C300068C0F3400000283C
:10428000F1D1207800F00400042866D16F4838305E
:10429000006840F080506D49383108606E48006811
:1042A00040F480706C490860FEF778FE054606E031
:1042B000FEF774FE401B642801D90320F7E6664828
:1042C000006800F480700028F2D000205F49683157
:1042D0000870FEF763FE054608E0FEF75FFE401B30
:1042E00041F28831884201D90320E0E6574868301E
:1042F0000068C0F340000028EFD1207A53496831AC
:104300000870A068012814D1FEF748FE054608E0B1
:10431000FEF744FE401B41F28831884201D9032058
:10432000C5E64A4868300068C0F340000028EFD076
:1043300013E0FEF733FE054608E0FEF72FFE401BB4
:1043400041F28831884201D90320B0E63F48683005
:104350000068C0F340000028EFD1A069F0B33B48EB
:10436000006800F00C0008286BD0A069022852D128
:10437000002037490866FEF711FE054606E0FEF705
:104380000DFE401B642801D9032090E62F48083811
:104390000068C0F340600028F1D1206A40F000506E
:1043A00047F6C07292FAA2F2B2FA82F2616A9140C2
:1043B00008430122A16AC2EB51014FF4403292FA44
:1043C000A2F2B2FA82F291400843E16908434FF049
:1043D000706292FAA2F2B2FA82F200E033E0E16A8D
:1043E000914008431949091F0860012018490866CF
:1043F000FEF7D4FD054606E0FEF7D0FD401B64281D
:1044000001D9032053E6114808380068C0F3406022
:104410000028F1D017E000200D490866FEF7BEFD28
:10442000054606E0FEF7BAFD401B642801D90320CB
:104430003DE6064808380068C0F340600028F1D126
:1044400001E0012033E6002031E600000838024098
:1044500000004742800E47420070004070B504469D
:104460002546681EB0F1807F01D301200FE0681E51
:104470004FF0E02148610F214FF0FF3000F060FA6B
:1044800000204FF0E021886107200861002070BD06
:10449000024600BF92F83800012801D1022070477F
:1044A000012082F8380000BF022082F8390010682D
:1044B000406820F0700013685860106840680B680E
:1044C0001843136858601068806820F080001368F3
:1044D0009860106880684B681843136898600120E2
:1044E00082F8390000BF002082F8380000BF00BF0A
:1044F000D5E710B504460CB9012010BD94F8390079
:1045000010B9204600F00CF8022084F83900211D73
:10451000206800F0BDFD012084F839000020ECE7A0
:104520000F4A0168914205D10E49096841F0020124
:104530000C4A11600C4A0168914205D10949096889
:1045400041F01001074A1160084A0168914205D103
:104550000449096841F02001024A116070470000D7
:1045600000040040403802400010004000140040A9
:104570000146022081F839000868006840F0010017
:104580000A681060012081F8390000207047014658
:10459000022081F8390000BF0868006A41F2111258
:1045A000104050B90868006A9210104028B9086895
:1045B000006820F001000A68106000BF012081F847
:1045C00039000020704710B504460CB9012010BD19
:1045D000A06900B100E000BF94F8390010B920468E
:1045E00000F026F8022084F839002068C06820F422
:1045F00000502168C860204600F04CFE2068006929
:1046000020F49040216808612068406920F02A0069
:10461000216848612068C06840F400502168C86083
:10462000002084F83A00012084F839000020CEE709
:1046300010B586B0044615492068884223D1144835
:10464000006840F40030124908600C2001900220FC
:10465000029001200390022004900720059001A9F8
:104660000C48FEF78DFB09480C30006840F0200034
:1046700006490C310860002206212620FEF7F1FCD5
:104680002620FEF7E1FC06B010BD0000004400400B
:10469000403802400000024010B50020FCF78CFAC0
:1046A00010BD10B50020FCF797FA10BD1FB51248D9
:1046B0001249086000204860114801680F48816075
:1046C00000210161816141624FF08051C162491056
:1046D00001630021C16001210162C1614161FCF7F8
:1046E00023FF0B20009001200190002002906946DA
:1046F0000248FCF757FE1FBD00200140880F002034
:10470000480000201FB51248124908600020486088
:10471000114801680F488160002101618161416297
:104720004FF08051C162491001630021C160012135
:104730000162C1614161FCF7F7FE0C20009001208D
:1047400001900020029069460248FCF72BFE1FBD35
:1047500000210140CC0F0020480000201FB5124866
:104760001249086000204860114801680F488160C4
:1047700000210161816141624FF08051C1624910A5
:1047800001630021C16001210162C1614161FCF747
:10479000CBFE0D2000900120019000200290694680
:1047A0000248FCF7FFFD1FBD002201401010002051
:1047B000480000201CB50C480C4908600846FDF76D
:1047C000CEF804200090002001900022694607489E
:1047D000FDF794F814200090002001901022694603
:1047E0000248FDF78BF81CBD00740040D40E002079
:1047F0000548006840F480000349086008460068E6
:1048000040F40010086070473038024010B50020B6
:10481000FCF78AF910BD00001CB50C480C49086073
:104820000020486000210A4881604FF40061C160A7
:1048300000210161FFF75DFE202000900020019023
:1048400069460348FFF724FE1CBD00000004004039
:10485000200E00201CB50C480C49086040F2FF7186
:104860000A48C160002009494860002107480161E9
:104870008160FFF73EFE20200090002001906946F5
:104880000248FFF705FE1CBD001000405C0E002032
:104890001CB50C480C49086040F2FF710A48C16021
:1048A0000020094948600021074801618160FFF745
:1048B00020FE202000900020019069460248FFF76A
:1048C000E7FD1CBD00140040980E002010B50948FB
:1048D000094908604FF4E1304860002106488160D2
:1048E000C16001610C21416100218161C161FFF75B
:1048F0006AFE10BD004400404411002010B50022A3
:104900000749084801F0A7F90749064801F0C1FB2B
:104910000649044800F0ECFE024801F083FC10BD9B
:10492000140000204C0600205C0000200400002041
:1049300002480068C0F30220704700000CED00E060
:1049400010B5002807DA0A07140E054A00F00F0315
:104950001B1FD45403E00A07130E024A135410BD60
:1049600018ED00E000E400E010B54320FEF75EFB28
:104970000148FEF796FD10BD700A00202DE9F84FA2
:1049800007460E46D7F800800025AA46C6EBC601AA
:1049900007F1300000EB8104D4E90501451AA06855
:1049A000A84200D2A568E81CC11700EB91714FEA3C
:1049B000A1091AE0D4E90501451AA068A84200D26D
:1049C000A568E81CC11700EB91714FEAA109387C7A
:1049D000ABB2F2B200904046E16802F019FBE06829
:1049E0002844E060A0692844A06108F5106000EB4D
:1049F0004610806980B2484506D9D4E9051088423E
:104A000002D260690028D5D1002D0CDC012000FA0B
:104A100006FA40F6340050F8080020EA0A0040F692
:104A2000340141F808000020BDE8F88F86B000F09E
:104A30002BFB002214210A2005F04BFC40490860A2
:104A4000042005F01BFC3F49086004F031FE76E0CD
:104A500000235A1E01A93A48006805F068FC4FF08F
:104A6000FF313848006805F03EFE9DF8040032280A
:104A700006D13548007F18B10620334908775AE03F
:104A80009DF8040033281CD12F48007F052852D000
:104A90002D48007F00284ED004F062FD04F070FD28
:104AA0002948007F062846D02748007F042842D0A6
:104AB00001202549087700202449086004F054FDAE
:104AC00039E09DF8040034281ED11F48007F0128DA
:104AD0001AD01D48007F022816D01B48007F0328EB
:104AE00012D01948007F04280ED004F049FD01209F
:104AF0001549087704F038FD00235A1E14A1164802
:104B0000006805F0F0FC16E09DF80400352805D19A
:104B100004F026FD00200C4908770CE09DF8040005
:104B2000362808D10848007F062804D104F01CFD6F
:104B30000120054908770348006805F0B7FD87E7BD
:104B4000FC0100201402002048BC012028020020A3
:104B5000534D504C00000000F4010020B7E1DC4848
:104B6000007F012807D0DA48007F022803D0D84808
:104B7000007F03287ED14FF0FF31D648006805F052
:104B8000B2FDD5480068D5490860D14991F8340094
:104B9000FCF744FBCE49096B081ACF490860CC48A2
:104BA000006B09680844401EC949096BB0FBF1F26B
:104BB00001FB1200CA490860C548007F012866D180
:104BC000C348C08A082812DCC14890F83400401E4F
:104BD000BF49203151F82000C1490968490830F81F
:104BE0001100C04908800846007808800DE0B848E8
:104BF00090F83400401EB649203151F82000B849E1
:104C0000096830F81100B749088005F069F8B34A1F
:104C1000128891B2B04A128890B204F091FCB24965
:104C200009680844B049086008460068AF49096847
:104C300088422BD9A648007C30B9AA480088103099
:104C4000AB490988884217DBA148007C012806D1BE
:104C5000A44800881038A649098888420CDC9C4882
:104C6000407C012812D19A48C0689F490968B1EB7D
:104C7000800F00E029E1DCD9022095490877002364
:104C8000C21E9CA19D48006805F02DFC18E19048CB
:104C9000007F022867D1914A128891B28E4A128809
:104CA00090B204F04DFC9049096808448E490860B0
:104CB0008748C08A082812DC854890F83400401ED6
:104CC0008349203151F8200085490968490830F8A6
:104CD0001100844908800846007808800DE07C486F
:104CE00090F83400401E7A49203151F820007C4968
:104CF000096830F811007B49088004F0F1FF74481E
:104D0000007C28B97748008879490988884214DCF2
:104D10006F48007C012805D17248008874490988D1
:104D200088420ADB6A48407C0128AFD16848C068E5
:104D30006D490968B1EB800FA8D96B4800687049CC
:104D400008600020684908600320614908776448CA
:104D500000686C49086000235A1E6BA16748006810
:104D600005F0C1FBACE05A48007F03288ED15B4AB6
:104D7000128891B2584A128890B204F0E1FB5A4965
:104D800009680844584908605148007F0328E9D160
:104D9000084600685E4909688842E3D304F0E0FBF6
:104DA0004B48407C012867D04948C08A082830DD3C
:104DB0004748007CB0B904E052480068401E5149A1
:104DC0000860434890F83400401E4149203151F8B2
:104DD00020004C49096830F811004549098888428B
:104DE000EADC44E004E047480068401E45490860AA
:104DF000374890F83400401E3549203151F82000E2
:104E00004049096830F81100394909888842EADBCD
:104E10002DE02F48007CA8B904E03A480068401E05
:104E2000384908602A4890F83400401E284920314B
:104E300051F8200033490968405C2D4909888842AF
:104E4000EBDC14E004E02F480068401E2D490860A8
:104E50001F4890F83400401E1D49203151F82000B1
:104E600028490968405C224909888842EBDB2548CB
:104E70000068401C234908602248006814494860C3
:104E8000042008771E480068224908601648006818
:104E9000214908601F48006809680844B0F5801F70
:104EA00002D300201049086000200F49086014490F
:104EB00008600023421E19A11048006805F013FB8A
:104EC0000448006805F0F2FB01E004F0FDFF46E64F
:104ED00048BC012014020020180200201C020020FF
:104EE00020020020240200202802002010020020BE
:104EF00008020020534D504C00000000F401002037
:104F00002C020020040200205452494700000000F7
:104F10000C02002030020020340200203144617471
:104F20006152656164795F5F0000000000BF4FF46B
:104F3000C87003F0CFFBFFF7B4FB282003F0CAFBD7
:104F4000FFF7AAFBF3E710B505F0CCFC08B105F0BC
:104F500085F9FEF729F810BD00B591B01848006832
:104F600040F08050164908601648006840F4404000
:104F70001449086001200590069002200B9041051D
:104F80000C9108210D914FF4A8710E9102210F91FF
:104F90000721109105A8FFF763F80D20009002206B
:104FA0000190002002904FF4A05003904FF48050E5
:104FB000049005216846FEF77FFE11B000BD000099
:104FC00040380240007000401448006840F470000F
:104FD000124908601248006840F00100104908605A
:104FE00000200F49083108600D4800680D4908404D
:104FF0000B4908600C48091D0860081F006820F470
:105000008020091F0860002005490C3108604FF01E
:1050100000600249803908607047000088ED00E0B8
:1050200000380240FFFFF6FE1030002410B50348A0
:10503000FFF7ADFA0248FFF7AAFA10BD5C0E002098
:10504000980E002010B50348FFF792FA0248FFF7C8
:105050008FFA10BD5C0E0020980E002010B5FFF7EF
:10506000F9FBFFF715FC10BD10B50248FFF78FFAEA
:1050700010BD0000200E002010B50248FFF778FA9E
:1050800010BD0000200E002010B5FFF7C5FB10BDBD
:10509000002202682C4B98420ED0B0F1804F0BD00A
:1050A0002A4B984208D02A4B984205D0294B984267
:1050B00002D0294B984201D1012300E000231BB10B
:1050C00022F070024B681A431F4B984220D0B0F177
:1050D000804F1DD01D4B98421AD01D4B984217D0BF
:1050E0001C4B984214D01C4B984211D01B4B984239
:1050F0000ED01B4B98420BD01A4B984208D01A4B3B
:10510000984205D0194B984202D0194B984201D1D0
:10511000012300E000231BB122F44072CB681A4344
:1051200002608B68C3620B688362074B984202D0AF
:10513000094B984201D1012300E000230BB10B6918
:1051400003630123436170470000014000040040F5
:1051500000080040000C00400004014000400140F5
:10516000004401400048014000180040001C00407D
:10517000002000402DE9F05F80460F4691464FF039
:10518000000A4FF0FF0BFEF7F3FE4000B0FBF8F013
:10519000401C440814B94FF06C0B45E0B4F5803F57
:1051A00004DA0025601E86B2AB463DE04FF0FF32C8
:1051B00013464FF6FF7C0CEA244018E000F1010C86
:1051C0001FFA8CF094FBF0FC1FFA8CF101FB1042EB
:1051D0009A4201D2134682464FF6FF7C604506D1C3
:1051E000B4FBFAFC1FFA8CF11FFA8AF001E0002AE6
:1051F000E4D100BF884208DDA1F1010C1FFA8CF553
:10520000A0F1010C1FFA8CF607E0A0F1010C1FFAC7
:105210008CF5A1F1010C1FFA8CF612B14FF06B0B5B
:1052200001E04FF0000B00BFFEF7A2FE0146681C34
:10523000721C5043B1FBF0F0C9F800007D60FE60C5
:105240003846FFF756F95846BDE8F09F70B5054659
:105250000C4616462CB9324607492846FFF78AFF06
:1052600070BD012C05D1324604492846FFF782FF64
:10527000F6E70020F4E700005C0E0020980E002006
:1052800010B50446002202492046FFF773FF10BD07
:10529000200E00202DE9F04104460025A06900B150
:1052A00000BF2068056925F44055E0680543206883
:1052B00005612068C56849F20C6085432169A068D2
:1052C000084361690843E169084305432068C560F4
:1052D0002068456925F44075A0690543206845614B
:1052E000E069B0F5004F72D172492068884203D05E
:1052F00071492068884234D1FEF73AFE00EBC001C4
:1053000001EB001061684900B0FBF1F06421B0FBD3
:10531000F1F6FEF72DFE00EBC00101EB0010616815
:105320004900B0FBF1F7FEF723FE00EBC00101EBF3
:10533000001061684900B0FBF1F06421B0FBF1F0AE
:1053400000EBC00101EB0010A7EB8000322101EB64
:1053500000106421B0FBF1F066F31F102168886033
:10536000A6E0FEF7EFFD00EBC00101EB0010616865
:105370004900B0FBF1F06421B0FBF1F6FEF7E2FD6D
:1053800000EBC00101EB001061684900B0FBF1F7D0
:10539000FEF7D8FD00EBC00101EB00106168490089
:1053A000B0FBF1F06421B0FBF1F000EBC00101EBC8
:1053B0000010A7EB8000322101EB00106421B0FB4C
:1053C000F1F066F31F102168886071E0FFE739494A
:1053D0002068884203D038492068884234D1FEF7DB
:1053E000C7FD00EBC00101EB001061688900B0FB54
:1053F000F1F06421B0FBF1F6FEF7BAFD00EBC0015D
:1054000001EB001061688900B0FBF1F7FEF7B0FD19
:1054100000EBC00101EB001061688900B0FBF1F006
:105420006421B0FBF1F000EBC00101EB0010A7EB31
:105430008000322101EB00106421B0FBF1F066F333
:105440001F102168886033E0FEF77CFD00EBC0018F
:1054500001EB001061688900B0FBF1F06421B0FB42
:10546000F1F6FEF76FFD00EBC00101EB0010616883
:105470008900B0FBF1F7FEF765FD00EBC00101EB21
:10548000001061688900B0FBF1F06421B0FBF1F01D
:1054900000EBC00101EB0010A7EB8000322101EB13
:1054A00000106421B0FBF1F066F31F1021688860E2
:1054B000BDE8F081001001400014014010B5024623
:1054C0000B4604E012F8010B00F006F85B1E002BFF
:1054D000F8D1002010BD000000BF0549096801F0A7
:1054E00080010029F9D00249091D086070470000B9
:1054F0000044004010B505480068C4B2204602F0E0
:10550000C5FD2620FDF792FD10BD000004440040BB
:1055100002460B46D2F81812D2F8180218B1002031
:10552000C1F8140170470220FCE770B504460E462E
:10553000D4F818523146204600F06EFCC5F80C0134
:10554000D4F8180248B1D5F80401D4F81C12CA687E
:1055500005F586719047002070BD0220FCE770B50C
:1055600004460E4600258121204600F097FB0121CC
:10557000204600F093FB8221204600F08FFBD4F8F8
:10558000180250B1D4F81C1248688047D4F81802A9
:1055900002F00AFE0020C4F81802284670BD70B55B
:1055A0000546D5F81842D5F81C0278B194F80001E8
:1055B000FF280BD094F8012194F80001D5F81C12B3
:1055C0008B6821469847FF2084F80001002070BDB9
:1055D00001460A2008800148704700005000002062
:1055E000014643200880014870470000D800002091
:1055F00001464320088001487047000094000020C5
:105600000146432008800148704700001C0100202B
:105610002DE9F04104460F460026207C70B94FF476
:10562000807302228121204600F054FC4FF48073E5
:1056300002220121204600F04DFC0BE04023022213
:105640008121204600F046FC402302220121204611
:1056500000F040FC082303228221204600F03AFC9F
:105660004FF48E7003F000F8C4F81802D4F8180252
:1056700008B901261CE0D4F81852D4F81C120868A6
:1056800080470020C5F81401C5F81801207C40B9F6
:105690004FF4807301212046D5F8042100F02AFC44
:1056A00006E0402301212046D5F8042100F022FC29
:1056B0003046BDE8F08170B50446D4F81852D4F8ED
:1056C000180298B1207C40B94FF480730121204624
:1056D000D5F8042100F00EFC06E04023012120460D
:1056E000D5F8042100F006FC002070BD0220FCE784
:1056F0000246022011B1C2F81C1200207047024677
:10570000D2F81832C3F804110020704710B50346D0
:10571000D3F81842C4F80811C4F81021002010BDB5
:1057200070B505460C46D5F81862207800F0600088
:10573000202826D1E088E0B1207800F0800060B118
:10574000E2886078D5F81C128B6831469847E28869
:105750003146284600F0A7F812E0607886F800018C
:10576000A07986F80101E2883146284600F07AF8EF
:1057700006E06078D5F81C1200228B681146984725
:1057800000E000BF00BF002070BD70B50546D5F831
:105790001842D5F8180290B1D4F8140168B9012064
:1057A000C4F81401B4F8100183B281212846D4F85A
:1057B000082100F04AFC002070BD0120FCE7022017
:1057C000FAE770B504460D46D4F81402294642683B
:1057D00020469047002070BD70B504460D4694F8F1
:1057E000FC01022802D0032811D100E000BF688824
:1057F00001280BD10020C4F80402D4F81402294671
:10580000826820469047204600F05EF804E0294672
:10581000204600F01BF800BF00BF70BD70B5064603
:105820000C4615462B4622460021304600F062FB0E
:10583000002070BD70B506460C4615462B46224624
:105840000021304600F001FC002070BD70B5044618
:105850000D468021204600F0DCFB0021204600F0B0
:10586000D8FB70BD70B504460E4615460320C4F83B
:10587000F4014FF484700551001D05512B4632464A
:105880000021204600F036FB002070BD10B5044614
:105890000520C4F8F40100231A461946204600F0FA
:1058A00029FB002010BD70B504460E4615460220A7
:1058B000C4F8F401A561E5612B463246002120467B
:1058C00000F0C3FB002070BD10B504460420C4F8EE
:1058D000F40100231A461946204600F0B6FB0020CA
:1058E00010BD000070B505460C462DB9224606498C
:1058F00006A000F087F904E02246034903A000F067
:1059000081F9014870BD0000700800204344432025
:10591000436F6E66696700000246122008800148E6
:10592000704700003000002070B505460C462DB9C8
:105930002246064906A000F065F904E02246034924
:1059400003A000F05FF9014870BD0000700800205E
:1059500043444320496E74657266616365000000CC
:1059600002460420088001487047000044000020DF
:1059700070B505460C462246024903A000F042F9E4
:10598000004870BD7008002053544D6963726F6504
:105990006C656374726F6E696373000070B5054661
:1059A0000C462DB92246064906A000F02BF904E06A
:1059B0002246034903A000F025F9014870BD00000C
:1059C0007008002053544D3332205669727475614B
:1059D0006C20436F6D506F727400000070B5054607
:1059E0000C462DB92246064906A000F00BF904E04A
:1059F0002246034903A000F005F9014870BD0000EC
:105A000070080020303030303030303030303141AC
:105A10000000000070B504460D46E888012804D057
:105A200029462046FFF712FF1BE094F8FC010228EC
:105A300002D003280FD108E00020A060012204F169
:105A400008012046FFF72FFF0AE00122211D204612
:105A5000FFF729FF04E029462046FFF7F7FE00BFC5
:105A600000BF70BDF8B504460E46708800120828C5
:105A70007FD2DFE800F07E040C207E7E5F6D207C0C
:105A8000D4F810120A6869469047054676E0207CF3
:105A900040B9D4F81402816A684688470546022155
:105AA000697007E0D4F81402C16A68468847054661
:105AB0000221697062E0B078062834D2DFE800F095
:105AC000030B131B232B207CD4F810124A68694661
:105AD000904705462CE0207CD4F810128A6869466D
