:020000040800F2
:10000000202E00204D02000855020008570200086B
:10001000590200085B0200085D02000800000000B1
:100020000000000000000000000000009D0100082A
:100030006102000800000000E1010008EB41000837
:1000400067020008670200086702000867020008EC
:1000500067020008670200086702000867020008DC
:1000600067020008670200086702000867020008CC
:1000700067020008670200086702000867020008BC
:1000800067020008670200086702000867020008AC
:10009000670200086702000867020008670200089C
:1000A000670200086702000867020008670200088C
:1000B00067020008670200080000000067020008ED
:1000C000670200080000000000000000670200084E
:1000D0000000000067020008C54900086702000828
:1000E000670200086702000800000000000000002E
:1000F0000000000000000000000000000000000000
:1001000000000000000000000000000000000000EF
:1001100000000000000000006702000867020008FD
:1001200000000000000000000000000000000000CF
:1001300000000000000000000000000000000000BF
:1001400067020008670200080000000000000000CD
:10015000000000000000000000000000000000009F
:10016000000000000000000000000000000000008F
:10017000000000000000000000000000000000007F
:100180000000000067020008DFF80CD000F0F0FA71
:1001900000480047455E0008202E0020234B1968C8
:1001A0000868B0E8F04F80F309884FF0000080F352
:1001B000118870470000000003480068006880F361
:1001C000088862B600DF00BF08ED00E0DFF80C0031
:1001D000016841F470010160704700BF88ED00E0E4
:1001E000EFF30980114B1A681EF0100F08BF20EDC5
:1001F000108A20E9F04F106008B44FF0500080F3EF
:10020000118807F09BFB4FF0000080F3118808BCB9
:1002100019680868B0E8F04F1EF0100F08BFB0EC86
:10022000108A80F30988704700BF00BF28000020B3
:10023000EFF311804FF0500181F31188704780F384
:1002400011887047EFF3058070470000064880472B
:1002500006480047FEE7FEE7FEE7FEE7FEE7FEE7AB
:10026000FEE7FEE7FEE7FEE77542000889010008A9
:1002700040EA01039B0703D009E008C9121F08C028
:10028000042AFAD203E011F8013B00F8013B521EA8
:10029000F9D27047D2B201E000F8012B491EFBD21F
:1002A00070470022F6E710B513460A460446194681
:1002B000FFF7F0FF204610BD0EB540F2334102912A
:1002C0000021CDE900110A460B4600F03AF803B0D0
:1002D00000BDC1F30A5210B5C1F3130140F2FF3360
:1002E00041F480119A4201DA002010BD40F23343FC
:1002F0009A42A2F2334203DC524200F003F810BDEE
:10030000904010BD202A04DB203A21FA02F000219F
:10031000704721FA02F3D040C2F120029140084315
:100320001946704710B5141E73F1000408DA401C1A
:1003300041F1000192185B411A4301D120F0010004
:1003400010BD2DE9F04D92469B4611B1B1FA81F2F4
:1003500002E0B0FA80F22032904600F01BFA044628
:100360000F4640EA0A0041EA0B0153465A46084349
:1003700013D0114653EA010019D0C8F1400250468B
:10038000FFF7C0FF05460E4650465946424600F06C
:1003900001FA084305D0012004E020463946BDE8B3
:1003A000F08D0020054346EAE0762C4337430A9857
:1003B0006305E40AA0EB08000022FD0A44EA475462
:1003C0000A3002D500200146E9E70105101969410C
:1003D000DDE9084500196941BDE8F04DA2E72DE9C6
:1003E000FE4F804681EA0300C00F0C46009021F0CA
:1003F000004123F00045B8EB0200A94105D2404678
:10040000214690461C460B46024623F0004010430E
:1004100047D0270DC7F30A00C3F30A510290401AD0
:10042000019040286BDAC3F3130040F4801B00985E
:10043000924620B10023D2EB030A63EB0B0B019829
:100440005946C0F14002504600F0A4F906460D4658
:1004500050465946019A00F0ACF910EB0800614192
:10046000002487EA115284EAE7731A4340D0009AC5
:1004700062B3019A012A4FEA075215DC001B61EBB7
:1004800002014FF0004202EA0752CDE90042001C8F
:1004900041F5801132462B46FFF753FF03B0BDE80C
:1004A000F08F40462146F9E7001B61EB0201001C7A
:1004B00041F5801300185B412018A2F5001747EBA7
:1004C000030140EAD570B6196D4111E06D084FEA9D
:1004D000360645EAC0754FEA0752001B61EB020180
:1004E000001C41F5801149084FEA300000195141C4
:1004F00032462B4603B0BDE8F04FFFF713BF00981C
:10050000012240000023D0EB020263EBE07300986D
:1005100021464FEAE074B8EB000061EB0401E9E723
:1005200083F000435BE781F0004158E72DE9FE4F7F
:1005300081EA030404F0004421F0004100944FF0EC
:10054000000B23F0004350EA01045ED052EA03049A
:100550005BD0C3F30A54C1F30A552C44A4F2F3341C
:100560000194A0FB0254C1F3130141F48011C3F3C1
:10057000130343F4801301FB024400FB034E840A7F
:10058000970A44EA815447EA8357A4FB0768029517
:100590008D0A05FB07854FEA932C04FB0C542705B5
:1005A000029D4FEA065847EA1637B5EB08056EEB91
:1005B000070C870E920E47EA811742EA8312A7FBC7
:1005C0000201B6EB0B0164EB00042B0D43EA0C3384
:1005D0005E1844EB1C50DA465146E7FB0201C5F3B6
:1005E00013044FEA0B3343EA14534FEA0432019CDD
:1005F00043EA0603A4F10C040294009CCDE900B484
:10060000FFF79FFE03B0BDE8F08F00200146F9E739
:100610002DE9F04D81EA030404F0004B21F0004580
:1006200014464FF0000A23F0004150EA050220D0A2
:1006300054EA01021DD0C5F30A570246C5F313035D
:10064000C1F31300C1F30A5640F4801543F480133C
:10065000A7EB0608101BD64608F2FD3873EB050021
:1006600002D308F1010801E092185B41B8F1000FD4
:1006700003DA00200146BDE8F08D00204FF4801120
:10068000064684460EE0171B73EB050705D3121BC5
:1006900063EB050306434CEA010C49084FEA3000BE
:1006A00092185B4150EA0107EDD152EA030012D0E3
:1006B00082EA040083EA0501084305D0101BAB4120
:1006C00006D20122002306E000224FF0004302E0A0
:1006D0006FF0010253101AEB06004CEB085110EBBF
:1006E0000A0041EB0B01BDE8F04DFFF71BBE70B5F2
:1006F00021F0004303430CD0C1F30A550024D5EB8D
:10070000040564EB0403D617AD1AB34102DB0020E5
:10071000014670BD201841EB025170BD0EB5C10FEE
:1007200080EAE0700844CA07002140F233438DE8B4
:100730000E000A460B46FFF704FE03B000BD0000A2
:1007400030B5041E71F1000404DB4FF00044404258
:1007500064EB0101141E73F1000405DB1C464FF02D
:100760000043524263EB0403994208BF904230BDFC
:10077000064C074D06E0E06840F0010394E80700EE
:1007800098471034AC42F6D3FFF702FDDC85000831
:10079000FC850008202A04DB203A00FA02F1002040
:1007A00070479140C2F1200320FA03F319439040AF
:1007B0007047202A06DBCB17203A41FA02F043EAC1
:1007C000E07306E041FA02F3D040C2F1200291400A
:1007D0000843194670472DE9F04D00231A461B1AAD
:1007E0008A4103DB00200146BDE8F08DC1F30A52C7
:1007F000C1F3130141F480154FF0000BD10702D172
:1008000000186D41521E0027044640F2FF11384681
:1008100001EB620A3E468046024600204FF48011FA
:10082000FFF770FDC2197141BB1846EB0100B4EB34
:10083000030C75EB000C04D3E41A65EB00051746B6
:100840000E46241908F101006D4180463428E3DD8D
:10085000F91946EB0600091BA84103D24FF0FF32FD
:10086000134601E0002213461BEB070046EB0A513A
:10087000BDE8F04DFFF756BD2DE9F04104460D46A9
:100880000027B84600262068806800F00C0008B1F8
:10089000012000E0002000286AD02068806800F075
:1008A0000070F0B1E06901281BD1A069012818D1BE
:1008B0000C250DE02F48864209D3042084F845001A
:1008C000A06C40F00100A0640120BDE8F081761C1E
:1008D00020680068C0F380100028EBD04020216819
:1008E0000860602D0FD02068806800F0040050B1CF
:1008F0002068806800F0020028B92068806840F015
:100900001000216888600C2D0FD02068806800F0EE
:10091000080050B12068806800F0020028B9206803
:10092000806840F0200021688860602D03D06C2D25
:1009300003D10C2703E0082701E0042700BF00BF14
:1009400001F0DAFE80460EE001F0D6FEA0EB0800D2
:100950000B2808D9042084F84500A06C40F0010061
:10096000A0640120B1E72068806838400028EBD1FE
:100970000020AAE70094090070B505466C6A94F857
:10098000450004280ED094F8450035280AD094F884
:100990004500252803D1352084F8450002E01520C4
:1009A00084F84500204600F013FF70BD70B5054681
:1009B0006C6A042084F84500A06C40F00400A06438
:1009C000204601F009F870BD70B50446656A2846F6
:1009D00000F0FFFE70BD000070B594B004460D46F7
:1009E000164614B1012C30D117E03C221C4901A855
:1009F000FFF73EFC1A48C06B10901948016C11912A
:100A000090F844008DF84800154890F845008DF89E
:100A100049001348806C139017E03C22114901A84B
:100A2000FFF726FC0F48C06B10900E48016C119127
:100A300090F844008DF848000A4890F845008DF879
:100A400049000848806C139000BF00BF01A801F066
:100A5000EFF93246294601A801F088F914B070BDBB
:100A6000240200207002002070B504460025206892
:100A7000806800F00300012806D12068006800F0BB
:100A8000010008B1012000E0002070B320688068F8
:100A900000F00D00012800D100E0002050B100BF9F
:100AA0002068806840F00200216888600320216887
:100AB000086008E0042084F84500A06C40F00100C4
:100AC000A064012070BD01F017FE05460EE001F0A4
:100AD00013FE401B022809D9042084F84500A06CAD
:100AE00040F00100A0640120ECE705E02068806888
:100AF00000F001000028EAD10020E3E770B50446C9
:100B000000252068806800F00300012806D12068D5
:100B1000006800F0010008B1012000E0002078BB6F
:100B2000206880681749084008B9012000E00020CB
:100B300040B9042084F84500A06C40F00100A06496
:100B4000012070BD2068806840F001002168886045
:100B500001F0D2FD05460DE001F0CEFD401B02285C
:100B600008D9042084F84500A06C40F00100A0647E
:100B70000120E6E72068006800F001000028EBD0C3
:100B80000020DEE73F00008010B586B0044600BFBD
:100B90001048406940F480200E49486100BF0E486B
:100BA00030F814000190012002900390032004907B
:100BB0000A4951F8240001A901F0AEFC064A32F8B6
:100BC0001410064A52F82400002201F08BFD06B0F2
:100BD00010BD000000100240B08400080C0000208E
:100BE00010B50446044A32F81410044A52F824009E
:100BF000002201F077FD10BDB08400080C00002039
:100C000010B50446044A32F81410044A52F824007D
:100C1000012201F067FD10BDB08400080C00002027
:100C200088B000221421052006F085FF4C49086099
:100C300095E000235A1E03A94948006806F0A9FF61
:100C40009DF80C003128F3D100BF9DF805008DF808
:100C500004009DF806008DF805009DF807008DF84A
:100C600006009DF800008DF80700684604F01EFE9F
:100C700004463CB99DF800003A2803D09DF80000D6
:100C80003B28E2D1002C6AD19DF8070000069DF8B0
:100C9000061040EA01409DF8051040EA01209DF849
:100CA000041008432F4A811A904231D00ADC2E49A1
:100CB000084478B12D490844D8B12D49084400288A
:100CC0003BD12CE02B480844D8B12B4908440028DC
:100CD00033D12BE000235A1E28A12A48006807F0D0
:100CE00034F800235A1E28A12648006807F02DF882
:100CF00034E000235A1E29A12248006807F025F895
:100D00002CE005F09BFD0546284605F0CDFD25E0CD
:100D100005F02EF90546284605F0C6FD1EE005F053
:100D20009FFA0546284605F0BFFD17E005F056F985
:100D30000546284605F0B8FD10E000235A1E1CA108
:100D40001048006807F001F800BF684604F0AEFDE7
:100D500018B99DF800003B28F7D100BF00BF68E735
:100D600084000020434F4D53B7BBB1C0F3FEFBFFDF
:100D700007F20EEFF0F5F9FE0C1405F541434B5F59
:100D8000000000008800002053544D3332463330B9
:100D9000332D4E75636C656F2D3332003953656E9C
:100DA000645379737456657273696F6E0000000046
:100DB000453939390000000094B004F00BFE0022E0
:100DC0001E21052006F0B7FEB3490860042006F096
:100DD00087FEB2490860B2A30FCBCDE90A23CDE963
:100DE0000801B3A207CA01AB07C353E100235A1E8F
:100DF0000CA9A948006806F0CCFE4FF0FF31A748C7
:100E0000006807F0A2F89DF8300031287ED104F088
:100E1000EDFF04287BD104F0D7FF049004F0E0FF3D
:100E2000814604F0A7FF059005F0D8FF0446200E88
:100E30008DF82400200C8DF82500200A8DF826005E
:100E4000E0B28DF827000598082816DD04F0D4FFDD
:100E5000834604F0C5FF824604F0BCFF0AFB00FA9B
:100E6000ABEB1A40049901EB40010498B1FBF0F29E
:100E700000FB12144FEA490911E004F0BDFF83465C
:100E800004F0AEFF824604F0A5FF0AFB00FAABEBCC
:100E90001A4104980144B1FBF0F200FB12140598CA
:100EA000C0B28DF828004FEA19408DF829004FEAAA
:100EB00019208DF82A0009F0FF008DF82B0000F0B2
:100EC00047FA8DF82F0004EB09010498814207D9F5
:100ED0000498001B07900798A9EB0000069003E018
:100EE000CDF81C9000200690002759E0384604F009
:100EF00063FF8046781CC0B28DF82E00102108A830
:100F000004F086FD0798B0F5804F01E057E0BDE0A2
:100F10001AD9079E00250BE008EB040101EB853090
:100F20004FF4804104F074FD681CC5B2A6F58046FC
:100F3000B6F5804FF0D87EB108EB040202EB8530A5
:100F4000B1B204F065FD07E0079828B1079A91B2A5
:100F500008EB040004F05CFD0698B0F5804F16D94C
:100F6000069E002509E008EB85304FF4804104F02F
:100F70004FFD681CC5B2A6F58046B6F5804FF2D885
:100F800066B1B1B208EB853004F042FD06E0069888
:100F900020B1069881B2404604F03AFD781CC7B2F1
:100FA00000F0D6F9B842A1DC44A004F039FD0023DA
:100FB0005A1E44A14648006806F0C7FE66E09DF848
:100FC000300032281DD1002718E007F13100C0B2EF
:100FD0008DF80800791CC8B204F062FD0446200CAC
:100FE0008DF80D00200A8DF80E00E0B28DF80F008C
:100FF0000C2101A804F00CFD781CC7B2022FE4DB21
:1010000044E09DF83000332802D106F0EBF93DE0D2
:101010009DF83000342802D106F03AF936E09DF808
:101020003000352802D106F089F92FE09DF8300014
:10103000362802D106F04AF928E09DF8300037281A
:1010400003D124A004F0ECFC20E09DF83000382807
:1010500003D122A004F0E4FC18E09DF83000392808
:1010600002D106F0DBF911E09DF8300049280AD1E1
:1010700000235A1E0CA90848006806F08AFD0CA837
:1010800004F0CEFC02E00CA804F0CAFC034800689F
:1010900006F03EFFAAE60000880000208C00002039
:1010A0004F53435F79797979787878784348307805
:1010B00047454E5F7843485F46787878535F4F4B9B
:1010C00000000000324461746153656E74000000DA
:1010D00090000020475F4E5800000000475F4F4BD4
:1010E0000000000000B585B0602000900020019055
:1010F0000220029069464FF0904001F00DFA05B0D1
:1011000000BD00B585B06020009003200190002054
:10111000029069464FF0904001F0FEF905B000BD25
:1011200000200149086070470000002002200149AA
:10113000086070470000002070B50446656A2846C4
:1011400000F0E2FE0120287170BD70B50446656AAA
:10115000284600F0A9FE0120287170BD70B5054633
:101160006C6A206940F004002061204600F0CEFE49
:101170000120207170BD70B505466C6A206940F091
:1011800004002061204600F091FE0120207170BD16
:1011900070B50446656A284600F0B7FE70BD70B5AC
:1011A0000446656A284600F080FE70BDF8B5044626
:1011B0000D461646002714B1012C1CD10DE0002766
:1011C00039460E4800F0C8FF002033462A4639460B
:1011D00000900A4800F02EFF0DE01027394608481D
:1011E00000F0BAFF002033462A46394600900448F2
:1011F00000F020FF00BF00BFF8BD0000A0010020EC
:101200008C01002010B594B00446012C02D0022CB1
:1012100030D117E03C221B4901A8FFF729F81948F3
:10122000C06B10901748016C119190F844008DF834
:101230004800144890F845008DF849001148806C2A
:10124000139017E03C22104901A8FFF711F80E484F
:10125000C06B10900C48016C119190F844008DF80F
:101260004800094890F845008DF849000648806C10
:10127000139000BF00BF11980068406880B214B09E
:1012800010BD0000240200207002002010B5046888
:1012900063604468102C04D10468A2600468E160B3
:1012A00003E00468A1600468E26010BD10B5FFF7B8
:1012B00019FF03F01DF810BD10B502F00FFC02F08D
:1012C00025FCFFF71EFF03F01FF810BD86B00022BB
:1012D0001421052006F02FFC1B49086004F026FDB0
:1012E00031E000235A1E01A91748006806F051FC9E
:1012F0009DF80400312826D09DF80400322822D021
:101300009DF80400332802D11048007D1BE09DF8B1
:10131000040034280AD10D48007DA0B904F0C8FBB0
:10132000FFF7CAFF0120094908750CE09DF8040089
:10133000352808D10548007D012804D1FFF7B6FF04
:10134000002002490875CCE7CC000020FC290020D1
:10135000014890F821007047C4290020F0B593B0EF
:10136000024600260025C868012800D000E000BF22
:1013700000BF92F84400012802D1022013B0F0BD52
:10138000012082F8440000BF10688068C0F380002C
:10139000002878D14868052818D21068006B0F79AA
:1013A00007EB47074FEA470C1F2707FA0CF7B8432C
:1013B000176838630F7907EB47077F000868B84064
:1013C00017683F6B38431768386355E048680A2848
:1013D0001AD21068406B0F797F1F07EB47074FEA5F
:1013E000470C1F2707FA0CF7B843176878630F7983
:1013F0007F1F07EB47077F000868B84017687F6BBF
:1014000038431768786337E048680F281AD21068A5
:10141000806B0F790A3F07EB47074FEA470C1F27FE
:1014200007FA0CF7B8431768B8630F790A3F07EB60
:1014300047077F000868B8401768BF6B38431768D4
:10144000B86319E01068C06B0F790F3F07EB4707CF
:101450004FEA470C1F2707FA0CF7B8431768F863E1
:101460000F790F3F07EB47077F000868B840176800
:10147000FF6B38431768F8631068806800F00C0051
:1014800010B1012001E092E10020002877D1086826
:101490000A2817D9106880690F780A3F07EB470CB4
:1014A000072707FA0CF7B8431768B8610F780A3FA7
:1014B00007EB47078868B8401768BF693843176863
:1014C000B86114E0106840690F7807EB470C0727F4
:1014D00007FA0CF7B843176878610F7807EB4707EE
:1014E0008868B84017687F69384317687861486929
:1014F0001768FF68C7F3C1077F0000FA07F408699F
:10150000012806D0022816D0032826D0042849D165
:1015100036E01068006EAB4F3840176838661068C8
:10152000076E08784FF0004C4CEA80602043074378
:10153000106807666FE01068406EA24F3840176869
:1015400078661068476E08784FF0004C4CEA80606F
:1015500020430743106847665DE01068806E994F2E
:1015600038401768B8661068806E0F784FF0004CEE
:101570004CEA8767274338431768B8664BE04BE06F
:101580001068C06E8F4F38401768F8661068C76ED5
:1015900008784FF0004C4CEA806020430743106805
:1015A000C76638E01068006E00F0F8400F78B0EBC6
:1015B000876F05D11068006E20F00040176838660C
:1015C0001068406E00F0F8400F78B0EB876F05D1DF
:1015D0001068406E20F00040176878661068806ED2
:1015E00000F0F8400F78B0EB876F05D11068806E7F
:1015F00020F000401768B8661068C06E00F0F84030
:101600000F78B0EB876F05D11068C06E20F00040F6
:101610001768F86600BF00BF1068806800F003001C
:10162000012806D11068006800F0010008B101200F
:1016300000E0002000287BD1C86801280CD0106889
:10164000D0F8B00091F800C0012707FA0CF7B843B2
:101650001768C7F8B0003EE01068D0F8B00091F805
:1016600000C0012707FA0CF738431768C7F8B00025
:1016700008680A2818D9106887690878093800EBC3
:10168000400C072000FA0CF0874310688761087847
:10169000093800EB40008F6807FA00F01768BF694F
:1016A00038431768B86116E0106840690F787F1CEE
:1016B00007EB470C072707FA0CF7B8431768786160
:1016C0000F787F1C07EB47078868B84017687F6969
:1016D0003843176878613C4B0868102803D1986834
:1016E00000F4000068B10868112803D1986800F080
:1016F000807030B1086812285DD1986800F48000CD
:10170000B0B91068B0F1A04F02D13048009002E0AB
:101710004FF0A04000901068806800F0030001289E
:1017200007D11068006800F0010010B1012001E04D
:1017300036E00020A8BB009870B10098806800F0E7
:101740000300012806D10098006800F0010008B1EC
:10175000012000E0002020BB086810280DD110688F
:10176000B0F1A04F09D1986840F40000986000E003
:101770006D1CB5F5347FFBD31DE00868112808D136
:101780001068B0F1A04F04D1986840F08070986064
:1017900011E0086812280ED1986840F48000986023
:1017A00009E0FFE7042082F84500012603E0042059
:1017B00082F84500012600BF002082F8440000BFE7
:1017C0003046DBE500F0FF830003005000010050CD
:1017D0007047704770B594B00446002514B90120D5
:1017E00014B070BD022084F845006C212046FFF73C
:1017F00043F80546012D10D02068C06840F4001061
:101800002168C8602046FFF72FF90546012D03D057
:10181000012084F8450000E00125012D7ED02068DC
:1018200040686FF30A002168486040F2FF70216849
:1018300008602068806820F0E040216888602068A7
:10184000806840F00050216888602068C0685A496C
:1018500008402168C86020684069584908402168EC
:1018600048612068806900F07840216888612068BC
:10187000006A00F0F020216808622068406A00F0E9
:10188000FF20216848622068806A00F0FF202168FC
:1018900088622068006B4A49084021680863206814
:1018A000406B474910390840216848632068806BC5
:1018B000434910390840216888632068C06B40F2B2
:1018C000DF7188432168C8632068006E3D49084085
:1018D000216808662068406E3A49084021684866D9
:1018E0002068806E37490840216888662068C06E8D
:1018F000344908402168C8662068D0F8A000324901
:1019000008402168C1F8A0002068D0F8A4002E4942
:1019100008402168C1F8A400206800E044E0D0F845
:10192000B000294908402168C1F8B0002068D0F80B
:10193000B40020F07F102168C1F8B400234E206865
:10194000B0F1A04F02D12248019002E04FF0A04038
:1019500001902068806800F00300012806D120680B
:10196000006800F0010008B1012000E00020A0B9EB
:10197000019870B10198806800F00300012806D139
:101980000198006800F0010008B1012000E000208B
:1019900018B9B0680F490840B060204600F006F959
:1019A0000020A06484F8450000BF002084F84400B3
:1019B00000BF284614E7000004800080070000C034
:1019C000300882E000F0FF030100F8FF0003005040
:1019D00000010050E0D03CFE704700002DE9F041CE
:1019E00094B0044600270026B0461CB9012014B06C
:1019F000BDE8F08194F8450010BB204600F014F9D2
:101A00002068806800F08050D0B92046FFF72CF89D
:101A10000746012F14D0022084F845002068806812
:101A200020F04050216888602068806840F0805035
:101A30002168886001E008F10108B8F5347FFAD325
:101A40002068806800F04050B0F1805F07D004202B
:101A500084F84500A06C40F00100A064012794F8D0
:101A6000450004287ED020688068C0F380000028EC
:101A700078D1022084F84500494D2068B0F1A04F8C
:101A800002D14848019002E04FF0A0400190206848
:101A9000806800F00300012806D12068006800F08B
:101AA000010008B1012000E00020C0B9019870B128
:101AB0000198806800F00300012806D101980068B1
:101AC00000F0010008B1012000E0002038B9A8684A
:101AD00020F44030A860A86861680843A8602068C6
:101AE000C068314908402168C860A06B012802D055
:101AF0004FF4805100E00021E06941EA4030E168A4
:101B00000843A16808430643606A012808D1E069D8
:101B100030B9208D401E4FF4803141EA40400643E9
:101B2000E06A012803D0D4E90B010843064320688A
:101B3000806800F00C0008B1012000E0002060B9CE
:101B40002068C06844F2020188432168C860A06927
:101B50008103606B41EA400006432068C06830435F
:101B6000216800E016E0C8602068006B20F00F00DC
:101B7000216808632069012806D12068006B216A6A
:101B8000491E0843216808630020A064012084F8EE
:101B9000450003E0042084F845000127384626E785
:101BA000000300500001005007C0F0FF10B50446CC
:101BB0002068B0F1A04F16D118480068401E1749A0
:101BC00008600846006828B91548406920F0805030
:101BD0001349486108214FF0904000F035FC206C1B
:101BE00000F010FB19E00F492068884215D10B481E
:101BF0000068401E094908600846006828B908487E
:101C0000406920F080500649486110214FF0904013
:101C100000F01AFC206C00F0F5FA10BD0400002062
:101C2000001002400001005010B586B00446206844
:101C3000B0F1A04F42D146480068401C44490860BA
:101C400008460068012805D14248406940F08050AC
:101C50004049486108200190032002900020039031
:101C600001A94FF0904000F057FC3B483B49086009
:101C7000002048600021394881608021C1603848D7
:101C80000068102803D036480068182804D10021C5
:101C900032484161016105E04FF480612F484161A4
:101CA0008910016120212D4881610902C16100F084
:101CB0006BFB00BF29482064446247E02949206843
:101CC000884243D122480068401C214908600846E8
:101CD0000068012805D11F48406940F080501D4927
:101CE000486110200190032002900020039001A978
:101CF0004FF0904000F010FC174814301A4908606B
:101D0000002048600021184881608021C16014488B
:101D10000068102803D012480068182804D1002158
:101D200011484161016105E04FF480610E48416155
:101D30008910016120210C4881610902C16100F014
:101D400023FB00BF08482064446200BF06B010BDFA
:101D5000040000200010024008000240BC020020E5
:101D60000800002000010050F40200202DE9F0419D
:101D700004460D461646002700BF94F8440001288B
:101D800002D10220BDE8F081012084F8440000BFA8
:101D90002348006800F01F00002839D12046FEF7D4
:101DA000ADFE0746012F34D094F84500222803D118
:101DB000322084F8450002E0122084F8450000201B
:101DC000A0641848216C88621748216CC8621748C3
:101DD000216C08631C20216808602068406840F07E
:101DE0001000216848602068C06840F00100216848
:101DF000C860226802F1400133462A46206C00F098
:101E0000E7FA2068806840F004002168886000E0FC
:101E1000012700BF002084F8440000BF3846B1E726
:101E20000803005079090008C9090008AD09000835
:101E300070B50446002500BF94F84400012801D184
:101E4000022070BD012084F8440000BF6C212046B0
:101E5000FEF712FD054605BB2068C06820F00100B2
:101E60002168C860206C00F09CF9054615B104207B
:101E700084F845002068406820F010002168486020
:101E800025B92046FEF7F0FD054602E02046FEF7A4
:101E9000EBFD15B9012084F8450000BF002084F84F
:101EA000440000BF2846CCE770477047704770B5C4
:101EB00003460024002500BF5879012801D10220E3
:101EC00070BD0120587100BF0220187118680468A5
:101ED00040F6FE7090408443D1E9000640EA0605D2
:101EE00005FA02F004431868046018680668C02008
:101EF00090408643186806600120187100BF0020DA
:101F0000587100BF00BFDBE770477047704710B5DE
:101F100004460CB9012010BD207910B9204600F00C
:101F200009F802202071002020610120207100208A
:101F3000F1E7000010B586B00446374920688842B2
:101F400031D13648C06940F000503449C861202082
:101F50000190032002900020039001A94FF09040CF
:101F600000F0DAFA2E482F4908601020486000215E
:101F70002C4881608021C160490001618900416174
:101F8000202181610902C16100F0FEF900BF2648ED
:101F9000006840F480402449086000BF00BF214829
:101FA000E060446236E021492068884232D11B4813
:101FB000C06940F080601949C86140200190032049
:101FC00002900020039001A94FF0904000F0A4FA85
:101FD0001348143016490860102048600021144846
:101FE00081608021C1604900016189004161202137
:101FF00081610902C16100F0C7F900BF0A480068A9
:1020000040F400400849086000BF00BF0848A060D5
:10201000446200BF06B010BD0074004000100240D2
:1020200044000240B401002000000140009800403C
:10203000EC0100202DE9F04704460D46164698466F
:10204000089F4FF0000900BF6079012802D10220EB
:10205000BDE8F0870120607100BF022020714DB9FA
:102060003748A16888623748A168C8623648A168C5
:10207000086308E03548E16888623548E168C8626D
:102080003448E1680863CDB92068006840F48050A6
:102090002168086027B1042F06D0082F0CD107E073
:1020A000206800F1080908E0206800F10C0904E04C
:1020B000206800F1100900E000BF19E02068006806
:1020C00040F080502168086027B1042F06D0082F07
:1020D0000CD107E0206800F1140908E0206800F145
:1020E000180904E0206800F11C0900E000BF00BFEF
:1020F00065B92068006840F40050216808604346D4
:102100004A463146A06800F063F90BE02068006899
:1021100040F000502168086043464A463146E06876
:1021200000F056F9206800680121A94008432168A1
:10213000086000BF0020607100BF00BF88E700009A
:1021400039110008911100085D1100084B110008B9
:102150009F1100087711000870B504460D4600264F
:10216000206800684FF48051A940884321680860C6
:10217000206801680120A84081432068016025B9DA
:10218000A06800F00EF8064603E0E06800F009F8E9
:10219000064616B10420207101E00120207130466E
:1021A00070BD70B5044600252068006820F001006D
:1021B0002168086000F0A0FA054613E000F09CFAE0
:1021C000401BB0F57A7F0DD9606B40F02000606352
:1021D000032084F8210000BF002084F8200000BF05
:1021E000032070BD2068006800F001000028E5D1E0
:1021F000012084F8210000BF002084F8200000BFE7
:1022000000BFEEE7014609B90120704791F82100AF
:10221000022801D10120F8E70868006820F00100D9
:102220000A68106000200A6810600A6850600A6836
:1022300090600A68D06053484068524B08330A687F
:102240009A4201D1022227E04E4B1C330A689A427F
:1022500001D1202220E04B4B30330A689A4201D151
:10226000521519E0474B44330A689A4202D14FF4A1
:10227000005211E0434B58330A689A4202D14FF49E
:10228000003209E03F4B6C330A689A4202D14FF4A6
:10229000001201E04FF0007210433A4A50601046BD
:1022A0004068384B08330A689A4201D1082227E077
:1022B000344B1C330A689A4201D1802220E0314B12
:1022C00030330A689A4201D1D21419E02D4B4433BD
:1022D0000A689A4202D14FF4004211E0294B583368
:1022E0000A689A4202D14FF4002209E0254B6C3370
:1022F0000A689A4202D14FF4000201E04FF00062F6
:102300001043204A5060104640681E4B08330A684C
:102310009A4201D1042227E01A4B1C330A689A42E0
:1023200001D1402220E0174B30330A689A4201D194
:10233000121519E0134B44330A689A4202D14FF444
:10234000804211E00F4B58330A689A4202D14FF491
:10235000802209E00B4B6C330A689A4202D14FF499
:10236000800201E04FF080621043064A5060002076
:10237000486381F8210000BF81F8200000BF00BF42
:1023800043E70000000002400146002209B9012095
:102390007047022081F821000868026843F6F07057
:1023A0008243D1E901031843CB6818430B691843F2
:1023B0004B6918438B691843CB691843024308687B
:1023C000026000204863012081F821000020DFE73F
:1023D0002DE9F04104460D4616461F4600BF94F80D
:1023E0002000012802D10220BDE8F081012084F8FC
:1023F000200000BF022084F821002068006820F03F
:102400000100216808603B46324629462046FEF717
:102410003DFF2068006840F00200216808602068E5
:10242000006840F00400216808602068006840F0FF
:102430000800216808602068006840F001002168F9
:1024400008600020D0E70000F0B502460B460024EB
:1024500000210025002058E0012606FA00F403EAD6
:102460000401A14250D116684FEA400C032707FA35
:102470000CF7BE431660C70802F1200656F8276025
:1024800047074FEAD76C0F2707FA0CF7BE434FEA0E
:10249000D00C02F1200747F82C6096684FEA400CF8
:1024A000032707FA0CF7BE4396605768012686405B
:1024B000B7435760D6684FEA400C032707FA0CF77A
:1024C000BE43D6608607370F0F2606FA07F5104E73
:1024D000870856F82770AF434FEA900C46F82C70E7
:1024E0000C4E36688E430B4F3E603E1D36688E4361
:1024F0003F1D3E603E1D36688E433F1D3E603E1DC3
:1025000036688E433F1D3E60401C1028A4D3F0BDAA
:102510000800014000040140F0B503460A460025CA
:10252000002400200021C9E0012606FA01F5166802
:1025300006EA0504AC426FD15668022E02D05668F6
:10254000122E13D1CF0803F1200656F827004E07AC
:10255000F70E0F26BE40B0434F07FF0E1669BE4070
:102560003043CF0803F1200646F8270018684F00D3
:102570000326BE40B043167906F003064F00BE4066
:10258000304318605668012E08D05668022E05D0D8
:102590005668112E02D05668122E13D198684F003B
:1025A0000326BE40B0434F00D668BE40304398601B
:1025B000586801268E40B0431679C6F300168E4047
:1025C00030435860D8684F000326BE40B0434F00E8
:1025D0009668BE403043D860566806F08056B6F123
:1025E000805F6AD1374EB66946F00106354FBE614D
:1025F0004FEAB7368F0856F827008E07370F0F2699
:10260000BE40B043B3F1904F01D100261AE02E4EE8
:10261000B34202D1012615E04FE02C4EB34201D166
:1026200002260FE02A4EB34201D103260AE0294ECA
:10263000B34201D1042605E0274EB34201D105265D
:1026400000E006268F073F0FBE403043234E8F0821
:1026500046F82700224E3068A043566806F48036BC
:10266000B6F5803F00D120431D4E3060361D3068E6
:10267000A043566806F40036B6F5003F00D120436B
:10268000174E361D3060361D3068A043566806F47C
:102690008016B6F5801F00D12043114E08363060F9
:1026A000361D3068A043566806F40016B6F5001FC4
:1026B00000D120430A4E0C363060491C1029FFF42B
:1026C00033AFF0BD0010024000040048000800488D
:1026D000000C0048001000480014004808000140A9
:1026E000000401400AB1018300E04183704700000B
:1026F0000048704700010101014800687047000070
:102700002400002002480068401C0149086070470E
:102710002400002010B50848006840F01000064969
:102720000860032000F080F8002000F007F800F0B7
:1027300017F8002010BD00000020024070B50446CC
:1027400000F076FB4FF47A71B0FBF1F5284601F00A
:1027500033F800222146501E00F027F8002070BDFB
:1027600010B5032000F060F800221146501E00F062
:102770001CF810BD00BF00F01F0201219140034A68
:10278000430942F8231000BF7047000080E200E0D8
:1027900000BF00F01F02012191404209920002F1A6
:1027A000E022C2F8001100BF70472DE9F05F8046BB
:1027B0000D461646002701F057FA074639462A46C5
:1027C000334601F00700C0F1070ABAF1040F02D93D
:1027D0004FF0040A01E0C0F1070AD14600F1040AF3
:1027E000BAF1070F02D24FF0000A01E0A0F1030A8C
:1027F000D4464FF0010A0AFA09FAAAF1010A0AEAD4
:10280000020A0AFA0CFA4FF0010B0BFA0CFBABF1BF
:10281000010B0BEA030B4AEA0B042146404601F088
:102820002BFABDE8F09F000000BF00F00702064B46
:1028300019684FF6FF031940044B0B4343EA02218A
:10284000014B196000BF70470CED00E00000FA0575
:1028500070B5044600250026206800F48030B0F5ED
:10286000803F75D16248C06940F080506049C861BE
:102870006048006840F480705E490860FFF73CFFE4
:10288000054606E0FFF738FF401B642801D9032006
:1028900070BD5848006800F480700028F2D0544899
:1028A000006A00F44070A18801F4407188420AD0A7
:1028B0004F48006A20F4407601204F49086000200C
:1028C00008604B4806626068B0F5807F38D1FFF73A
:1028D00013FF054608E0FFF70FFF401B41F2883168
:1028E000884201D90320D3E74020022191FAA1F1C7
:1028F000B1FA81F108430121B1EB501F02D13C48EC
:1029000000680FE04020022191FAA1F1B1FA81F1B3
:1029100008430221B1EB501F02D13548006A01E0A3
:102920003348406A4021022292FAA2F2B2FA82F2BD
:10293000114301F01F020121914008400028CAD034
:102940002B48006A20F440706168084328490862F7
:10295000207800F0010038B12548006B20F003001A
:10296000A168084322490863207800F00200022889
:1029700007D11F48006B20F44030E16808431C4930
:102980000863207800F00400042807D11848006B81
:1029900020F440202169084315490863207800F09D
:1029A0002000202807D11248006B20F01000616938
:1029B00008430F490863207800F08000802807D181
:1029C0000B48C06A20F4F870A16908430849C8623E
:1029D000208800F48050B0F5805F07D10448006B78
:1029E00020F48070E16908430149086300204FE743
:1029F00000100240007000404004424270B504469E
:102A00000D460026F748006800F00700A84270D283
:102A1000F448006820F007002843F249086008469F
:102A2000006800F00700A84201D0012070BD2078A6
:102A300000F00200022807D1EB48406820F0F000C7
:102A4000A1680843E8494860207800F001000028A8
:102A50006FD0606801282DD12020010391FAA1F1E7
:102A6000B1FA81F108430121B1EB501F02D1DE48D8
:102A700000680FE02020010391FAA1F1B1FA81F181
:102A800008430221B1EB501F02D1D748006A01E090
:102A9000D548406A20210A0392FAA2F2B2FA82F2E1
:102AA000114301F01F02012191400840002861D12B
:102AB0000120BBE7606802282DD12020010591FA92
:102AC000A1F1B1FA81F108430121B1EB501F02D10C
:102AD000C548006810E02020010591FAA1F1B1FA83
:102AE00081F108430221B1EB501F03D1BE48006AB7
:102AF00002E083E0BC48406A20210A0592FAA2F273
:102B0000B2FA82F2114301F01F0201219140084004
:102B100078BB01208AE72020022191FAA1F1B1FAC5
:102B200081F108430121B1EB501F03D1AE48006889
:102B300010E05BE12020022191FAA1F1B1FA81F1CC
:102B400008430221B1EB501F02D1A748006A01E0FF
:102B5000A548406A2021022292FAA2F2B2FA82F239
:102B6000114301F01F0201219140084008B90120E2
:102B70005CE7FFE79C48406820F003006168084379
:102B800099494860FFF7B8FD06466068012810D1F2
:102B900008E0FFF7B1FD801B41F28831884201D97E
:102BA000032043E79048406800F00C000428F0D16F
:102BB0001CE16068022810D108E0FFF79DFD801B32
:102BC00041F28831884201D903202FE786484068C6
:102BD00000F00C000828F0D108E108E0FFF78CFDB8
:102BE000801B41F28831884201D903201EE77E48CC
:102BF000406800F00C000028F0D1F7E0207800F0E9
:102C00000200022807D17848406820F0F000A1684F
:102C1000084375494860207800F0010000286ED014
:102C2000606801282CD12020010391FAA1F1B1FAAA
:102C300081F108430121B1EB501F02D16A480068BD
:102C40000FE02020010391FAA1F1B1FA81F10843CC
:102C50000221B1EB501F02D16348006A01E06248D3
:102C6000406A20210A0392FAA2F2B2FA82F21143D8
:102C700001F01F0201219140084088BB0120D5E6E8
:102C8000606802282DD12020010591FAA1F1B1FA46
:102C900081F108430121B1EB501F02D15248006875
:102CA0000FE02020010591FAA1F1B1FA81F108436A
:102CB0000221B1EB501F02D14B48006A01E04A48A3
:102CC000406A20210A0592FAA2F2B2FA82F2114376
:102CD00001F01F0201219140084008B90120A5E63A
:102CE0002DE02020022191FAA1F1B1FA81F10843EF
:102CF0000121B1EB501F03D13B48006810E061E0B7
:102D00002020022191FAA1F1B1FA81F108430221B8
:102D1000B1EB501F02D13448006A01E03248406AEA
:102D20002021022292FAA2F2B2FA82F2114301F0B9
:102D30001F0201219140084008B9012076E62A4887
:102D4000406820F003006168084327494860FFF7A6
:102D5000D3FC06466068012810D108E0FFF7CCFCE0
:102D6000801B41F28831884201D903205EE61E486B
:102D7000406800F00C000428F0D123E060680228CD
:102D800010D108E0FFF7B8FC801B41F2883188427F
:102D900001D903204AE61448406800F00C000828D6
:102DA000F0D10FE008E0FFF7A7FC801B41F288316B
:102DB000884201D9032039E60B48406800F00C0036
:102DC0000028F0D10748006820F007002843054993
:102DD00008600846006800F00700A84206D00120FD
:102DE00024E600000020024000100240207800F09D
:102DF0000400042807D10D48406820F4E060E16831
:102E000008430A494860207800F00800082808D1E3
:102E10000648406820F46050216940EAC100034937
:102E200048600020FFF78AFC0020FFE50010024008
:102E300010B500F045F80949496801F0F001F022A9
:102E400092FAA2F2B2FA82F2D140054A515CC8402D
:102E5000044908600846006810BD000000100240E8
:102E6000B28400081000002010B5FFF7E1FF074909
:102E7000496801F4E0614FF4E06292FAA2F2B2FA1A
:102E800082F2D140024A515CC84010BD001002409D
:102E9000B284000810B5FFF7CBFF0749496801F479
:102EA00060514FF4605292FAA2F2B2FA82F2D1402B
:102EB000024A515CC84010BD00100240B2840008B4
:102EC00070B5002100240022002300201A4D6968FB
:102ED00001F00C0565B3042D02D0082D27D101E0C7
:102EE000164827E001F470154FF4701696FAA6F60E
:102EF000B6FA86F6F540124E725D0F4DED6A05F09A
:102F00000F050F2696FAA6F6B6FA86F6F5400D4E90
:102F1000745D01F480352DB1084DB5FBF4F505FB6A
:102F200002F302E0084D02FB05F3184602E000BF81
:102F3000024800BF00BF70BD0010024000127A00BE
:102F4000C2840008D284000800093D0070B5044620
:102F50000025207800F0010000286FD0F948406873
:102F600000F00C0004280CD0F648406800F00C007B
:102F7000082837D1F348406800F48030B0F5803F2E
:102F800030D12020010391FAA1F1B1FA81F1084377
:102F90000121B1EB501F02D1EA4800680FE0202068
:102FA000010391FAA1F1B1FA81F108430221B1EBD9
:102FB000501F02D1E348006A01E0E248406A202144
:102FC0000A0392FAA2F2B2FA82F2114301F01F024E
:102FD0000121914008400028BFD060680128BCD082
:102FE000012070BD0020D7498870FFF785FB05469A
:102FF00008E0FFF781FB401B41F28831884201D98C
:103000000320EEE72020010391FAA1F1B1FA81F14A
:1030100008430121B1EB501F02D1CA48006810E0FB
:103020002020010391FAA1F1B1FA81F108430221B4
:10303000B1EB501F03D1C348006A02E090E0C148E1
:10304000406A20210A0392FAA2F2B2FA82F21143F4
:1030500001F01F020121914008400028C9D12079C8
:10306000B84988700846C06A20F00F00A16808437C
:10307000B449C8626068012839D1FFF73DFB0546B5
:1030800008E0FFF739FB401B41F28831884201D943
:103090000320A6E72020010391FAA1F1B1FA81F102
:1030A00008430121B1EB501F02D1A64800680FE090
:1030B0002020010391FAA1F1B1FA81F10843022124
:1030C000B1EB501F02D19F48006A01E09D48406A61
:1030D00020210A0392FAA2F2B2FA82F2114301F01D
:1030E0001F020121914008400028CAD038E0FFF7B4
:1030F00003FB054608E0FFF7FFFA401B41F2883169
:10310000884201D903206CE72020010391FAA1F144
:10311000B1FA81F108430121B1EB501F02D1894876
:1031200000680FE02020010391FAA1F1B1FA81F1CA
:1031300008430221B1EB501F02D18248006A01E02E
:103140008048406A20210A0392FAA2F2B2FA82F27F
:10315000114301F01F020121914008400028CAD10B
:10316000207800F0020002284ED17648406800F036
:103170000C0050B17348406800F00C00082844D19E
:103180007048406800F4803078BB2020022191FA1A
:10319000A1F1B1FA81F108430121B1EB501F02D135
:1031A000684800680FE02020022191FAA1F1B1FAED
:1031B00081F108430221B1EB501F02D16148006A3E
:1031C00001E06048406A2021022292FAA2F2B2FA9B
:1031D00082F2114301F01F0201219140084028B101
:1031E0002069012802D00120FBE60EE05548006866
:1031F00020F0F800F82292FAA2F2B2FA82F26169A3
:10320000914008434F49086086E02069F0B30120EF
:103210004D490860FFF770FA054606E0FFF76CFAC3
:10322000401B642801D90320DBE62020022191FA0B
:10323000A1F1B1FA81F108430121B1EB501F02D194
:10324000404800680FE02020022191FAA1F1B1FA74
:1032500081F108430221B1EB501F02D13948006AC5
:1032600001E03848406A2021022292FAA2F2B2FA22
:1032700082F2114301F01F02012191400840002811
:10328000CCD03048006820F0F80000E00AE0F822D6
:1032900092FAA2F2B2FA82F2616991400843294996
:1032A000086039E0002028490860FFF725FA054644
:1032B00006E0FFF721FA401B642801D9032090E6BD
:1032C0002020022191FAA1F1B1FA81F108430121F4
:1032D000B1EB501F02D11B4800680FE020200221F3
:1032E00091FAA1F1B1FA81F108430221B1EB501F2B
:1032F00002D11448006A01E01248406A20210222EB
:1033000092FAA2F2B2FA82F2114301F01F020121F5
:10331000914008400028CCD1207800F0080008280F
:103320007ED1A06980B3012008490860FFF7E4F965
:1033300005460DE0FFF7E0F9401B642808D903209B
:103340004FE600000010024000004242800442426A
:103350006020022191FAA1F1B1FA81F10843012123
:10336000B1EB501F02D1FA48006810E06020022142
:1033700091FAA1F1B1FA81F108430221B1EB501F9A
:1033800003D1F348006A02E010E0F148406A60218E
:10339000022292FAA2F2B2FA82F2114301F01F0263
:1033A0000121914008400028C4D039E00020E949BB
:1033B0000860FFF7A1F9054606E0FFF79DF9401BFD
:1033C000642801D903200CE66020022191FAA1F1C2
:1033D000B1FA81F108430121B1EB501F02D1DC4861
:1033E00000680FE06020022191FAA1F1B1FA81F1A9
:1033F00008430221B1EB501F02D1D548006A01E019
:10340000D348406A6021022292FAA2F2B2FA82F212
:10341000114301F01F020121914008400028CCD146
:10342000207800F00400042873D1C948C06940F036
:103430008050C749C861C848006840F48070C649D8
:103440000860FFF759F9054606E0FFF755F9401BFC
:10345000642801D90320C4E5BF48006800F48070E7
:103460000028F2D0BA48006A20F00500B849086286
:10347000FFF742F9054608E0FFF73EF9401B41F22D
:103480008831884201D90320ABE54020022191FA1E
:10349000A1F1B1FA81F108430121B1EB501F02D132
:1034A000AB4800680FE04020022191FAA1F1B1FA87
:1034B00081F108430221B1EB501F02D1A448006AF8
:1034C00001E0A348406A4021022292FAA2F2B2FA35
:1034D00082F2114301F01F020121914008400028AF
:1034E000CAD19B48006A20F00500E168084398496A
:1034F0000862E06801283AD1FFF7FEF8054609E0C6
:10350000FFF7FAF8401B41F28831884202D90320C4
:1035100067E565E04020022191FAA1F1B1FA81F15D
:1035200008430121B1EB501F02D1894800680FE028
:103530004020022191FAA1F1B1FA81F10843022160
:10354000B1EB501F02D18248006A01E08048406A16
:103550004021022292FAA2F2B2FA82F2114301F061
:103560001F020121914008400028C9D038E0FFF730
:10357000C3F8054608E0FFF7BFF8401B41F2883169
:10358000884201D903202CE54020022191FAA1F1C3
:10359000B1FA81F108430121B1EB501F02D16C480F
:1035A00000680FE04020022191FAA1F1B1FA81F107
:1035B00008430221B1EB501F02D16548006A01E0C7
:1035C0006348406A4021022292FAA2F2B2FA82F2E1
:1035D000114301F01F020121914008400028CAD187
:1035E000E069002876D05A48406800F00C000828AE
:1035F00071D0E06902286FD1002058490866FFF7B2
:103600007BF8054606E0FFF777F8401B642801D9F0
:103610000320E6E42020010591FAA1F1B1FA81F13D
:1036200008430121B1EB501F02D1494800680FE067
:103630002020010591FAA1F1B1FA81F1084302219C
:10364000B1EB501F02D14248006A01E04048406A95
:1036500020210A0592FAA2F2B2FA82F2114301F095
:103660001F020121914008400028CCD1D4E9081064
:1036700008433749496821F47411084334494860C4
:10368000012036490866FFF737F8054606E0FFF7E0
:1036900033F8401B642801D90320A2E4202001054F
:1036A00091FAA1F1B1FA81F108430121B1EB501F68
:1036B00002D12748006812E02020010591FAA1F10B
:1036C000B1FA81F108430221B1EB501F05D1204826
:1036D000006A04E057E054E010E01D48406A2021F1
:1036E0000A0592FAA2F2B2FA82F2114301F01F0225
:1036F0000121914008400028C9D044E0002017492A
:103700000866FEF7F9FF054606E0FEF7F5FF401BE9
:10371000642801D9032064E42020010591FAA1F175
:10372000B1FA81F108430121B1EB501F02D10848E1
:10373000006817E02020010591FAA1F1B1FA81F1AA
:1037400008430221B1EB501F0AD10148006A09E089
:1037500000100240800442420070004000004242DB
:103760000A48406A20210A0592FAA2F2B2FA82F2CD
:10377000114301F01F020121914008400028C4D1EB
:1037800001E001202DE400202BE4000000100240A5
:10379000042808D14FF0E021096941F004014FF0FD
:1037A000E022116107E04FF0E021096921F00401F6
:1037B0004FF0E0221161704770B504462546681E3F
:1037C000B0F1807F01D301200FE0681E4FF0E021AF
:1037D00048610F214FF0FF3000F04EFA00204FF00B
:1037E000E021886107200861002070BD30B50246E5
:1037F0000B4600BF92F83800012801D1022030BDED
:10380000012082F8380000BF1068416810688468A1
:103810000D4D1068A84203D121F47001586801438E
:1038200021F070011868014324F080049868044373
:10383000106841601068846000BF002082F8380082
:1038400000BF00BFDBE70000002C014010B50446BC
:103850000CB9012010BD94F8390010B9204600F0D1
:103860000DF8022084F83900211D206800F068FD61
:10387000012084F839000020ECE700000F4A0168BD
:10388000914205D10E49C96941F002010C4AD1614A
:103890000C4A0168914205D10949C96941F01001FA
:1038A000074AD161084A0168914205D10449C969B2
:1038B00041F02001024AD16170470000000400403D
:1038C0000010024000100040001400400146022099
:1038D00081F839000868006840F001000A6810604B
:1038E000012081F83900002070470146022081F84C
:1038F000390000BF0868006A41F21112104050B947
:103900000868006A9210104028B90868006820F022
:1039100001000A68106000BF012081F83900002012
:10392000704710B504460CB9012010BDA06900B164
:1039300000E000BF94F8690010B9204600F02AF8B2
:10394000022084F869002068006820F001002168E6
:103950000860204600F088FE012800D1E5E7606A93
:1039600010B1204600F0DCFD2068406820F4904053
:10397000216848602068806820F02A0021688860FB
:103980002068006840F0010021680860204600F0CF
:103990003CFECAE710B586B0044614492068884248
:1039A00022D11348C06940F400301149C861C813DE
:1039B0000190022002900120039003200490072030
:1039C000059001A94FF09040FEF7A6FD074800685A
:1039D00040F0200005490860002206212620FEF75D
:1039E000E4FE2620FEF7D4FE06B010BD00440040E1
:1039F0000010024010B50020FDF7F2F810BD10B520
:103A00000020FDF7FDF810BD00B587B04FF0A040D5
:103A1000164908604FF400304860154801681348A3
:103A2000816000210161C16141624FF480610163E5
:103A30008910C1620021C16001210162416304213A
:103A40004161002181618163FDF7C8FF042001907D
:103A5000012002900020049003900590069001A997
:103A60000248FDF77BFC07B000BD000024020020E7
:103A70000800002000B587B01548164908604002CC
:103A80004860154801681348816000210161C161E7
:103A900041624FF4806101638910C1620021C160FD
:103AA000012101624163042141610021816181633F
:103AB000FDF794FF012001900290002004900390F4
:103AC0000590069001A90348FDF748FC07B000BD2A
:103AD0000001005070020020080000201CB50848BA
:103AE000084908600846FEF712FA042000900648CC
:103AF00000680190102269460248FEF7D8F91CBD03
:103B0000007400408C010020000000201CB5084813
:103B1000084908600846FEF7FAF9142000900648A4
:103B200000680190002269460248FEF7C0F91CBDFA
:103B300000980040A00100200000002003484069D8
:103B400040F0010001494861704700000010024048
:103B500010B50020FDF718F80548406940F48000D2
:103B6000034948610846406940F40030486110BD8F
:103B7000001002400EB50C480C4908600220486055
:103B800000210A4881604FF40061C1600021016199
:103B9000FFF75CFE20200090002002906946034859
:103BA000FFF724FE0EBD000000040040D8000020F6
:103BB0000EB50C480C49086040F2FF710A48C1601C
:103BC0000020094948600021074801618160FFF732
:103BD0003DFE202000900020029069460248FFF739
:103BE00005FE0EBD00100040140100200EB50C486B
:103BF0000C49086040F2FF710A48C1600020094981
:103C000048600021074801618160FFF71FFE202006
:103C100000900020029069460248FFF7E7FD0EBDC4
:103C2000001400405001002010B50D480D490860F7
:103C30004FF4E130486000210A4881604FF40051A0
:103C4000C160002101610C21416100218161C161DC
:103C500001621020034948620846FFF762FE10BD6A
:103C6000004400402C03002002480068C0F30220FA
:103C7000704700000CED00E010B5002807DA0A07D5
:103C8000140E054A00F00F031B1FD45403E00A076B
:103C9000130E024A135410BD18ED00E000E400E0DA
:103CA00086B000221421052003F045FF4849086032
:103CB000042003F015FF4749086003F033F985E05D
:103CC00000235A1E01A94248006803F062FF4FF02A
:103CD000FF314048006804F038F99DF804003228AC
:103CE00008D13D4890F8200020B106203A4981F8DB
:103CF000200067E09DF80400332821D1364890F871
:103D0000200005285ED0344890F82000002859D0C3
:103D100003F054F803F068F82F4890F820000628C4
:103D200050D02D4890F8200004284BD001202A497B
:103D300081F8200000202949086003F043F841E0A1
:103D40009DF80400342823D1234890F8200001284E
:103D50001ED0214890F82000022819D01E4890F863
:103D60002000032814D01C4890F8200004280FD00D
:103D700003F03AF80120184981F8200003F022F8F6
:103D800000235A1E16A11848006803F0DEFF19E050
:103D90009DF80400352806D103F010F800200E49E4
:103DA00081F820000EE09DF8040036280AD10A4868
:103DB00090F82000062805D103F004F801200649F8
:103DC00081F820000348006804F0A2F878E70000BA
:103DD00090000020A8000020C4290020BC00002082
:103DE000534D504C0000000088000020C1E1E14824
:103DF00090F82000012809D0DE4890F82000022821
:103E000004D0DC4890F8200003287DD14FF0FF312A
:103E1000D948006804F099F8D8480068D849086083
:103E2000D44991F83400FDF7EDF9D249096B081A2D
:103E3000D2490860CF48006B09680844401ECD494C
:103E4000096BB0FBF1F201FB1200CE490860C948D2
:103E500090F82000012867D1C648408B082812DC62
:103E6000C44890F83400401EC249243151F8200063
:103E7000C4490968490830F81100C3490880084658
:103E8000007808800DE0BB4890F83400401EB94926
:103E9000243151F82000BB49096830F81100BA49B3
:103EA000088003F051FBB64A128891B2B34A1288D7
:103EB00090B202F073FFB54909680844B34908603D
:103EC00008460068B249096888422CD9A948007D93
:103ED00030B9AD4800881030AE490988884217DBF8
:103EE000A448007D012806D1A74800881038A949B8
:103EF000098888420CDC9F48407D012813D19D48E9
:103F00000069A249096800E031E1B1EB800FDCD91A
:103F10000220984981F820000023C21E9EA1A048DB
:103F2000006803F012FF1DE1924890F8200002287B
:103F300068D1934A128891B2904A128890B202F0E6
:103F40002DFF924909680844904908608948408BD0
:103F5000082812DC874890F83400401E8549243137
:103F600051F8200087490968490830F8110086494E
:103F700008800846007808800DE07E4890F83400FC
:103F8000401E7C49243151F820007E49096830F8F0
:103F900011007D49088003F0D7FA7648007D28B9E2
:103FA000794800887B490988884214DC7148007D83
:103FB000012805D1744800887649098888420ADBBF
:103FC0006C48407D0128AED16A4800696F49096894
:103FD000B1EB800FA7D96D480068724908600020D6
:103FE0006A4908600320634981F820006548006839
:103FF0006D49086000235A1E6CA16948006803F0EF
:10400000A4FEAFE05B4890F8200003288BD15C4A07
:10401000128891B2594A128890B202F0BFFE5B49F1
:104020000968084459490860524890F8200003285C
:10403000E7D1084600685F4909688842E1D302F089
:10404000BDFE4C48407D012867D04A48408B082877
:1040500030DD4848007DB0B904E053480068401E98
:1040600051490860434890F83400401E41492431CA
:1040700051F820004C49096830F811004549098879
:104080008842EADC44E004E047480068401E4649B4
:104090000860384890F83400401E3649243151F801
:1040A00020004149096830F811003A4909888842DE
:1040B000EADB2DE02F48007DA8B904E03A4800680B
:1040C000401E394908602B4890F83400401E2949A9
:1040D000243151F8200034490968405C2D49098891
:1040E0008842EBDC14E004E02F480068401E2E49B3
:1040F0000860204890F83400401E1E49243151F8D1
:10410000200029490968405C224909888842EBDB84
:1041100025480068401C2449086023480068154968
:104120004860042081F820001E4800682249086089
:1041300016480068214908601F480068096808445B
:10414000B0F5801F02D300201049086000200F49FD
:104150000860144908600023421E19A11048006835
:1041600003F0F3FD0448006803F0D2FE01E003F021
:10417000DFFA3CE6C4290020A8000020AC000020A3
:10418000B0000020B4000020B8000020BC000020D7
:10419000A40000209C000020534D504C0000000063
:1041A00088000020C0000020980000205452494799
:1041B00000000000A0000020C4000020C800002073
:1041C000314461746152656164795F5F0000000091
:1041D00000BF4FF4C87001F09AFEFFF710FC2820D2
:1041E00001F095FEFFF706FCF3E710B503F0ACFF16
:1041F00008B103F065FCFEF785FA10BD10B598B064
:1042000002200E9001201290102013900220159091
:10421000002116914FF4601117910EA8FEF796FE3B
:104220000520099002200A9000200B904FF4806036
:104230000C9000200D90022109A8FEF7DFFB022060
:1042400001900020049001A8FEF702FBFEF7F0FDAC
:104250004FF47A71B0FBF1F42046FFF7ADFA042079
:10426000FFF796FA00221146501EFEF79EFA18B08C
:1042700010BD00001948006840F47000174908603C
:104280001748006840F0010015490860084640687A
:10429000144908401249486008460068124908401D
:1042A0000F4908600846006820F48020086008462E
:1042B000406820F4FE0048600846C06A20F00F0005
:1042C000C8620846006B0949084005490863002098
:1042D0008860C803014980390860704788ED00E0B4
:1042E000001002400CC07FF8FFFFF6FECCFC00FF80
:1042F00010B50348FFF7F9FA0248FFF7F6FA10BDC8
:10430000140100205001002010B50348FFF7DEFA29
:104310000248FFF7DBFA10BD140100205001002015
:1043200010B50248FFF7E1FA10BD0000D8000020E8
:1043300010B50248FFF7CAFA10BD0000D8000020EF
:10434000002202681C4B984205D0B0F1804F02D089
:104350001A4B984203D122F070024B681A43164B55
:1043600098420ED0B0F1804F0BD0144B984208D039
:10437000134B984205D0134B984202D0124B9842EF
:1043800003D122F44072CB681A4302608B68C36287
:104390000B688362084B984208D0094B984205D0BD
:1043A000084B984202D0084B984201D10B69036335
:1043B0000123436170470000002C014000040040CD
:1043C0000040014000440140004801402DE9F05FF9
:1043D0008146884617464FF0000A4FF0FF0BFEF764
:1043E00059FD4000B0FBF9F0401C450815B94FF0ED
:1043F0006C0B45E0B5F5803F04DA0026681E84B2F8
:10440000B3463DE04FF0FF3213464FF6FF7C0CEA17
:10441000254018E000F1010C1FFA8CF095FBF0FC30
:104420001FFA8CF101FB10529A4201D213468246C8
:104430004FF6FF7C604506D1B5FBFAFC1FFA8CF104
:104440001FFA8AF001E0002AE4D100BF884208DDAB
:10445000A1F1010C1FFA8CF6A0F1010C1FFA8CF4EB
:1044600007E0A0F1010C1FFA8CF6A1F1010C1FFA74
:104470008CF412B14FF06B0B01E04FF0000B00BF5A
:10448000DFB1FEF707FD0146701C621C5043B1FB13
:10449000F0F038600E49386888420ED94FF6FF7048
:1044A00084420ADA601C84B2FEF7F4FC0146701CF8
:1044B000621C5043B1FBF0F03860C8F80C40C8F8FB
:1044C00004604046FFF7C2F95846BDE8F09F00007F
:1044D000404B4C0070B505460C4616462CB932468A
:1044E00007492846FFF772FF70BD012C05D13246FF
:1044F00004492846FFF76AFFF6E70020F4E70000CA
:10450000140100205001002070B505460C462246DB
:1045100002492846FFF75AFF70BD0000D80000206E
:1045200090F8241001F0010139B10168496821F4C3
:104530000031826A11430268516090F8241001F042
:10454000020139B10168496821F48031C26A11431E
:104550000268516090F8241001F0040139B101683B
:10456000496821F48021026B11430268516090F880
:10457000241001F0080139B10168496821F40041B3
:10458000426B11430268516090F8241001F0100151
:1045900039B10168896821F48051826B1143026846
:1045A000916090F8241001F0200139B10168896808
:1045B00021F40051C26B11430268916090F82410FD
:1045C00001F0400199B10168496821F48011026C41
:1045D000114302685160016CB1F5801F07D1016879
:1045E000496821F4C001426C11430268516090F89F
:1045F000241001F0800139B10168496821F40021DB
:10460000826C114302685160704710B50446002067
:1046100084F86A002068006800F00800082809D1C2
:104620006FF07E4300228104204600F035F908B186
:10463000032010BD2068006800F00400042809D1A0
:104640006FF07E4300220105204600F025F908B1F5
:104650000320EEE7012084F8690000BF002084F801
:10466000680000BF00BFE4E72DE9F04704460025DD
:1046700010260027A846A9462169A0680843616959
:104680000843E16940EA0105206800687B49084069
:104690002843216808602068406820F44050E168A1
:1046A000084321684860216AA06940EA0105206842
:1046B000806820F4306028432168886000BF70491A
:1046C0002068884214D16F48006B00F0030030B1BD
:1046D000012808D0022808D0032808D101E00026CC
:1046E00005E0022603E0042601E0082600BF37E0CB
:1046F00065492068884217D16248006B00F4403059
:1047000048B1B0F5803F0AD0B0F5003F09D0B0F510
:10471000403F08D101E0002605E0022603E0042620
:1047200001E0082600BF1BE058492068884217D1E5
:104730005448006B00F4402048B1B0F5802F0AD0F7
:10474000B0F5002F09D0B0F5402F08D101E00026C8
:1047500005E0022603E0042601E0082600BF00BFB2
:1047600000BFE069B0F5004F46D1042E24D005DC2F
:104770004EB1012E10D0022E2FD116E0082E24D0DB
:10478000102E2AD12AE0FEF76FFB40006168B0FBD3
:10479000F1F01FFA80F824E0FEF77CFB400061682E
:1047A000B0FBF1F01FFA80F81BE039496068B1FBFB
:1047B000F0F01FFA80F814E0FEF782FB4000616819
:1047C000B0FBF1F01FFA80F80BE04FF48031606825
:1047D000B1FBF0F01FFA80F803E000BF4FF00109D1
:1047E00000BF00BF4FF6F07008EA0007C8F34200B0
:1047F00007432068C7603DE0042E25D005DC4EB19C
:10480000012E10D0022E30D116E0082E25D0102E09
:104810002BD12BE0FEF728FB6168B0FBF1F080B2F2
:104820002168C86025E0FEF735FB6168B0FBF1F058
:1048300080B22168C8601CE016496068B1FBF0F0E6
:1048400080B22168C86014E0FEF73AFB6168B0FBF3
:10485000F1F080B22168C8600BE04FF4004160685D
:10486000B1FBF0F02168C86003E000BF4FF0010920
:1048700000BF00BF4846BDE8F0870000F369FFEFC6
:104880000038014000100240004400400048004051
:104890000024F40000127A002DE9F04104460E468F
:1048A00017461D46FDF728FF80469FBB2BE0681C7E
:1048B00048B32DB1FDF720FFA0EB0800A84222D994
:1048C0002068006820F08000216808602068006887
:1048D00020F02000216808602068006820F48070C3
:1048E000216808602068806820F0010021688860E5
:1048F000032084F8690000BF002084F8680000BF2E
:104900000320BDE8F0812068C0693040B04202D188
:10491000012001E003E000200028C8D035E02AE0B3
:10492000681C40B32DB1FDF7E7FEA0EB0800A842DC
:1049300021D92068006820F0800021680860206884
:10494000006820F02000216808602068006820F4DA
:104950008070216808602068806820F0010021686C
:104960008860032084F8690000BF002084F8680094
:1049700000BF0320C5E72068C0693040B04201D1C4
:10498000012000E000200028CAD10020B9E710B5BE
:1049900002460B4604E012F8010B00F005F85B1E1E
:1049A000002BF8D1002010BD00BF0549096801F0B7
:1049B00080010029F9D002490C31088070470000BD
:1049C0001C44004010B505480088C4B2204601F0E0
:1049D00013F82620FDF7CEFE10BD00002444004051
:1049E00003B401984100009850EAC12018BF042088
:1049F0004A0D18BF40F0010040F2FF72B2EB515F68
:104A000008BF40F00200012808BF052002B070472F
:104A10002DE9F04D2DED040B2DED0E8B96B0DDE95B
:104A20002550279CDDF890A025F0004624F0004892
:104A3000BAF1000F14BF0121002101EB4502FC492E
:104A400053184A1093422AD3002814BF012300238D
:104A500003EB44030B44F7498B4220D358EA00018F
:104A60009FEDF59B76D0DFF8D8B35D4503D1BAF161
:104A7000000F05D188E0BAF1000F08BF002100D077
:104A8000012101EB450111F5001F08D8002814BFD2
:104A90000121002101EB440111F5001F0BD99DED0F
:104AA000261B9DED240B16B0BDEC0E8B04B0BDE8AB
:104AB000F04D00F069BE0027002DBCBFE1498845DC
:104AC00021DAE1498845A8BF02271CDAC3451ADC70
:104AD000DE4901EB2851142908DDC1F1340220FA26
:104AE00002F101FA02F282420DD108E058B9C1F197
:104AF000140228FA02F101FA02F2424503D101F050
:104B00000101C1F1020756EA0A0124D1002C22DA80
:104B1000002D18BF022F01D0012F0AD0022000F073
:104B20007FFE16B0BDEC0E8B04B0BDE8F04D00F07A
:104B300013BE022000F074FE00F00EFE51EC100BCC
:104B400081F0004141EC100B16B0BDEC0E8B04B0AF
:104B5000BDE8F08D18E09FEDBEAB9FEDBF8B002848
:104B600071D1B848804522D105F1804010F5801000
:104B700008BFBAF1000F07D0B3450ADC002CA8BF6C
:104B80009DED260BE0DA0DE0B0EE490AF0EE690A81
:104B9000DAE7002C06DA9DED260B51EC100B81F0C4
:104BA00000416FE0AE48784490ED000BCCE7D8456B
:104BB0004DD1002C48DA2EB186423AD1BAF1000F1D
:104BC00042D126E0BAF1000F13D0022000F028FEF7
:104BD00000F0F6FD8DED020B9DED240B8DED000B2D
:104BE00010EE900A039961F31E0003909DED020BF5
:104BF000AAE78DED02AB9DED240B1AEE901A10EE94
:104C0000900A8DED000B61F31E0003909DED020BE9
:104C10009AE78DED028B9DED240B18EE901A10EEA5
:104C2000900A8DED000B61F31E0003909DED020BC9
:104C30008AE709DA9DED240B51EC190B53EC102B8C
:104C4000FBF7E6FC1EE020E09DED240B7CE78642AE
:104C50001BDAB4F1804F0DD0A4F10050B0F1FF5039
:104C600013D1002D11DB9DED240B51EC100B02F044
:104C700033FC07E09DED240B53EC102B51EC100B93
:104C800000F0C2BC41EC100B5EE79DED240B51EC33
:104C9000100B00F0E7FEBAF1000FCDE90E0142D192
:104CA0009FED710B46B3A6F1E040B0F17F600CD0F0
:104CB0005E4538D1002D00DAA7B3022F0CBF0120CA
:104CC0004FF0FF30FBF72AFDDCE7002D01DD002C63
:104CD0000DDA002D01DD002C1FDB002D16DA002C73
:104CE00014DB012F08BF9FED620B3FF42DAFB0EE38
:104CF0004A0AF0EE6A0A27E7022F18BF002D0CD0EF
:104D0000012F0AD1002DFFF61FAF06E0002DB8BF1E
:104D1000002C08DA012F3FF417AFB0EE480AF0EE8E
:104D2000680A11E71BE0012000EBE57050EA07017B
:104D300015D0791EB0EE498AF0EE698A084308BFA3
:104D40009FED4D8B4E480025804570DD4D494E4806
:104D5000884514DDB0420DDB002C19DB2FE001206B
:104D600000F05EFD16B0BDEC0E8B04B0BDE8F04D5A
:104D700000F016BDB34502DC002C09DC1FE08642C2
:104D800002DA002C1BDA03E05E452BDD002C16DD79
:104D9000022000F045FD00F013FD8DED020B53ECF9
:104DA0001A2B51EC180BFBF7C1FBCDE9000103995D
:104DB000019861F31E0003909DED020BC4E60220F2
:104DC00000F02EFD00F00CFD10EE901A18EE900A87
:104DD0008DED020B8DED008B61F31E0003909DEDB8
:104DE000020BB1E69DED0E0B53EC192B51EC100BA1
:104DF000FBF796FB9FED260BCDE9080153EC102B3A
:104E00009DED080B51EC100BFBF790FB9FED221B67
:104E100053EC112BFBF787FB9DED081B53EC112B7B
:104E2000FBF784FB9FED1E1B53EC112B3CE08CE049
:104E3000FFFF1F00FFFF0F00000000000000F03F19
:104E40000000F03F0000F07F0000404301FCFFFF46
:104E5000000000000000F07F0000000000000000E3
:104E6000D6390000000000000000000000000080B3
:104E7000000000000000F0FF000000000000F0BF94
:104E80000000E0410000F043FFFFEF3F00000000A2
:104E9000000000000000D03F555555555555D53FF1
:104EA000000000000000E03FFBF73DFB9DED080B1C
:104EB00041EC1A0B53EC102B51EC100BFBF736FBAB
:104EC00053EC1A2BFBF732FB41EC1A0B9FEDFE0B58
:104ED00053EC102B9DED080B51EC100BFBF726FB50
:104EE00041EC1B0B9FEDFA0B51EC1A0B53EC102B02
:104EF000FBF71CFB41EC1A0B9FEDF70B53EC102B4F
:104F00009DED080B51EC100BFBF710FB53EC1A2B2B
:104F1000FBF706FB41EC1A0B51EC1B0B53EC1A2B65
:104F2000FBF75DFA0690CDE906519DED060B53ECBB
:104F30001B2B51EC100BFBF7F3FA53EC1A2BFBF77E
:104F4000F2FA41EC100B00F0A1B90020B6F5801F79
:104F50000EDA9FEDE30B53EC102B9DED0E0B51EC95
:104F6000100BFBF7E3FACDE90E016FF034000E46AB
:104F700000EB2650A0F2FF37C6F31300DA4940F0E9
:104F80007F6646F040568842D8BF002408DDD749E6
:104F90008142C8BF012403DC0024A6F580167F1CD3
:104FA000D348784400EBC4000F9690ED00CB9DED04
:104FB0000E0B53EC1C2B51EC100BFBF7B1FA9DEDD3
:104FC0000E0B41EC1B0B53EC1C2B51EC100BFBF7A5
:104FD00006FA41EC100B51EC190B53EC102BFBF7BC
:104FE00017FB41EC1D0B51EC1B0B53EC1D2BFBF77E
:104FF0009DFA41EC1A0BBF488DED10AB784410952B
:1050000090ED000B4FF0005040EA660000EB84404A
:105010008DED080B00F5002009909DED080B53EC79
:105020001C2B51EC100BFBF77BFA9DED0E1B53EC88
:10503000112BFBF778FA41EC100B53EC102B9DED84
:10504000100B51EC100BFBF771FA9DED080B41ECC6
:105050001C0B53EC102B9DED100B51EC100BFBF7C0
:1050600065FA53EC1B2BFBF75EFA53EC1C2BFBF79A
:1050700057FA53EC1D2BFBF759FA41EC1C0B53EC80
:105080001A2B51EC1A0BFBF751FA41EC1B0B9A4807
:105090000621B0EE4B0AF0EE6B0A784400F0E0FA1D
:1050A000B0EE401AF0EE601AB0EE41DAF0EE61DADE
:1050B00053EC1B2B51EC1B0BFBF738FA53EC1D2B5D
:1050C000FBF734FA9DED100B41EC1B0B53EC1A2B44
:1050D00051EC100BFBF783F953EC1C2BFBF726FA72
:1050E00053EC1B2BFBF77BF99DED100B41EC1B0BDD
:1050F00053EC102B51EC100BFBF718FA41EC1D0B85
:105100009FED7FEB53EC1E2BFBF769F953EC1B2B48
:10511000FBF765F90890CDE908519DED080B53ECBC
:105120001E2B51EC100BFBF7FBF953EC1D2BFBF77F
:10513000F7F953EC1B2BFBF7F6F99DED080B41EC4F
:105140001D0B53EC102B9DED100B51EC100BFBF7CE
:10515000EDF941EC1B0B53EC1A2B51EC1D0BFBF73B
:10516000E5F99DED080B41EC1A0B53EC102B51ECBB
:105170001C0BFBF7DBF953EC1A2BFBF730F941EC76
:105180001A0B51EC1B0B53EC1A2BFBF728F90C9064
:10519000CDE90C519DED0C0B53EC1B2B51EC100B7E
:1051A000FBF7BEF953EC1A2BFBF7BDF941EC1B0BD7
:1051B0009FED550B53EC102B9DED0C0B51EC100B90
:1051C000FBF7B4F941EC1A0B9FED510B51EC1B0BA3
:1051D00053EC102BFBF7AAF941EC1B0B9FED4E0B88
:1051E00053EC102B9DED0C0B51EC100BFBF79EF9C3
:1051F00053EC1B2BFBF7F3F841EC100B48487844B9
:1052000000EBC40090ED001B51EC100B53EC112B84
:10521000FBF7E5F841EC1B0B3846FBF77FFACDE9CD
:10522000080153EC1B2B51EC1A0BFBF7D8F841EC9F
:10523000100B3C48784400EBC40090ED00CB51ECDF
:10524000100B53EC1C2BFBF7CAF89DED081B53EC1D
:10525000112BFBF7C4F80690CDE906519DED080B24
:1052600053EC102B9DED060B51EC100BFBF758F98E
:1052700053EC1C2BFBF754F953EC1A2BFBF750F9AA
:1052800053EC1B2BFBF74FF941EC100B9DED261B4C
:1052900053EC102B8DED001B00959DED260B51EC72
:1052A000100BFBF743F99DED000B41EC1A0B53EC8F
:1052B000102B9DED260B51EC100BFBF731F99DEDFA
:1052C000061B53EC112B2FE0000000604715F73F41
:1052D000FE822B654715F73F44DF5DF80BAE543E69
:1052E00000000000000040438E9803007AB60B00D7
:1052F00052350000803500008A34000000000000B4
:105300000000000000000840000000E009C7EE3F78
:10531000FD033ADC09C7EE3FF5015B14E02F3EBE0A
:1053200016330000D0320000FBF700F953EC1A2BC3
:10533000FBF755F89DED060B41EC1A0B53EC102BC7
:105340009DED000B51EC100BFBF7F0F8CDE90C01D3
:105350009DED0C0B51EC1A0B53EC102BFBF73FF8A7
:10536000CDE902010C46AA498C422FDB611A0843A1
:1053700018D19DED0C0B53EC102B9DED020B51EC55
:10538000100BFBF7CDF841EC1B0B9FEDA30B51EC81
:105390001A0B53EC102BFBF722F853EC1B2BFBF7EB
:1053A000CFF92DD2022000F03BFA00F009FA10EEFE
:1053B000901A18EE900A8DED020B8DED008B61F3C3
:1053C0001E0003909DED020BFFF7BEBB944A24F034
:1053D0000041914214D39349214408437FF4EFAC38
:1053E0009DED0C0B53EC102B9DED020B51EC100BB3
:1053F000FBF796F853EC1A2BFBF7A2F97FF6DFAC1C
:1054000024F000408849894A002601EB205182425D
:105410002BDA481C4FF4801121FA00F02044844A12
:10542000C0F30A517A44A1F2FF3192ED000B814A98
:105430008DED080BCA4020EA0202C0F3130040F4CD
:105440008010C1F1140120FA01F60992002CB8BFB6
:1054500076429DED080B53EC102B9DED0C0B51EC9F
:10546000100BFBF75DF8CDE90C019DED0C0B51EC39
:105470001A0B53EC102BFAF7B2FF9FED6F0B08904D
:10548000CDE9085153EC102B9DED080B51EC100B9E
:10549000FBF74CF841EC1B0B9FED690B53EC102B09
:1054A0009DED080B51EC100BFBF740F89DED0C0B3C
:1054B00041EC1C0B53EC102B9DED080B51EC100B29
:1054C000FBF72EF853EC1A2BFBF72DF89FED5E1B24
:1054D00053EC112BFBF72AF853EC1C2BFAF77FFF48
:1054E00041EC1A0B51EC1B0B53EC1A2BFAF777FF1C
:1054F000CDE902019DED020B53EC1B2B51EC100B7F
:10550000FBF70EF853EC1A2BFBF70DF89DED020B91
:1055100041EC1A0B53EC102B51EC100BFBF706F877
:10552000CDE908014A489DED080B0521784400F0BB
:1055300097F89DED081B51EC100B53EC112BFAF76B
:10554000F5FF9DED021B53EC112BFAF7ECFFCDE9B3
:1055500006019DED020B53EC1A2B51EC100BFAF7E0
:10556000E5FF53EC1A2BFAF73AFF9FED3B0B41ECAA
:105570001A0B53EC102B9DED060B51EC100BFAF7A8
:10558000CFFF9DED060B41EC1B0B53EC102B9DED5B
:10559000020B51EC100BFAF7C9FF53EC1B2BFBF776
:1055A00037F853EC1A2BFAF7BBFF9DED021B53ECB7
:1055B000112BFAF7B5FF53EC192BFAF7B4FFCDE92D
:1055C000020101EB065001150029C8BF039015DC4C
:1055D0009DED020B324651EC100BFBF788F8FFF7FC
:1055E000FFF9042808BF00F0FBF832469DED020BDE
:1055F00051EC100BFBF77BF8CDE902019DED020B9E
:1056000051EC180B53EC102BFAF790FFFFF73ABB55
:105610000000904000000000FE822B654715973C7B
:1056200000CC904000346F3F01FCFFFF0000E03FE2
:1056300058310000FFFF0F0000000000432EE63F3E
:10564000396CA80C615C20BEEF39FAFE422EE63FB1
:1056500028300000000000000000000000000040B2
:1056600070B504462DED028B4D1E00EBC500B0EE6B
:10567000408AF0EE608A90ED000B35F0060017D0FE
:1056800053EC182B51EC100BFAF750FF41EC100BB8
:105690006D1E04EBC50090ED001B51EC100B53EC9C
:1056A000112BFAF79CFE41EC100B35F00600E7D108
:1056B000022D36D0042D1CD0062D1CBFBDEC028B54
:1056C00070BD53EC182B51EC100BFAF72FFF94ED33
:1056D0000A1B53EC112BFAF782FE53EC182BFAF746
:1056E00025FF94ED081B53EC112BFAF778FE41ECE3
:1056F000100B53EC182B51EC100BFAF717FF94ED2D
:10570000061B53EC112BFAF76AFE53EC182BFAF731
:105710000DFF94ED040B53EC102BFAF760FE41ECF7
:10572000100B53EC182B51EC100BFAF7FFFE94ED15
:10573000021B53EC112BFAF752FE53EC182BFAF71D
:10574000F5FE94ED001B53EC112BFAF748FEBDEC6F
:10575000028B41EC100B70BD9FED070B10B553ECA5
:10576000102B9FED070B51EC100BFAF751FF41EC9A
:10577000100B10BD00000000000000000000000041
:10578000000000000000F03F10B553EC112B51EC6D
:10579000100BFAF724FE41EC100B10BD00000000C6
:1057A0009FED050B10B553EC102B51EC100BFAF7D5
:1057B0002FFF41EC100B10BD0000000000000000A6
:1057C0009FED050B10B553EC102B51EC100BFAF7B5
:1057D000ADFE41EC100B10BD000000000000007099
:1057E0009FED050B10B553EC102B51EC100BFAF795
:1057F0009DFE41EC100B10BD0000000000000010E9
:1058000002E008C8121F08C1002AFAD17047704789
:10581000002001E001C1121F002AFBD170470000E7
:105820000149086070470000D400002010B504460C
:1058300001F0C4FA1248FCF7FBFA1248FCF7F8FA38
:10584000082C03D110201049086006E00C2C03D16D
:1058500000200D49086000E010BD0948FBF7BAFFC1
:105860000848FBF7B7FF0948FCF7CCFC0848FCF7F1
:10587000C9FCFEF7C9F8FEF7FDF800BFECE7000031
:10588000240200207002002008000020BC0200203A
:10589000F4020020002004E00021034A22F8101046
:1058A000401CFA28F8D37047282A002001461648E1
:1058B000807A08B90120704713480068124A12899B
:1058C000805C0870104A1289501CC21700EB5262AB
:1058D000D211A0EBC2120C4B1A811846807A022812
:1058E00003D101201A4690720CE00748807A012803
:1058F00008D10548C088044A1289904202D100208C
:10590000014A90720020D6E70825002070B50646AF
:105910000C46002509E03046761CFFF7C7FF01283A
:1059200001D1E8B270BD681C85B2A542F3DBE0B2DC
:10593000F8E7000001461648807A022801D10120CC
:10594000704713480068124AD2888154104AD2889E
:10595000501CC21700EB5262D211A0EBC2120C4BCA
:10596000DA801846807A18B901201A4690720CE045
:105970000748807A012808D10548C088044A12895E
:10598000904202D10220024A90720020D8E7000023
:105990000825002038B5044600253B2C0CD12046B4
:1059A000FFF7C8FF054600236A4605A108480068BE
:1059B00002F058FA284638BD2046FFF7BBFFFAE749
:1059C000315472795061727365436D640000000058
:1059D0008400002010B5FEF727F905480549086046
:1059E000802088800020C8800881887210BD000057
:1059F000882400200825002010B504462046FFF723
:105A0000C9FF10BD10B504462046FEF7CDFF10BDFE
:105A100070B504460D4629462046FEF7B8FF70BD16
:105A200070B504460026254600E0761C15F8011BDB
:105A30000029FAD131462046FEF7A9FF70BD38B5DE
:105A40000446E0B28DF80000200A8DF80100200C19
:105A50008DF80200200E8DF8030004216846FFF740
:105A6000D7FF38BD82B0CDE9000121F000400190A0
:105A70009DED000B02B051EC100B704710B50023E8
:105A80005A1E03A10548006802F05FF910BD00002E
:105A90003747656E4E65787400000000880000206E
:105AA0000146481E014A52F820007047082A00208B
:105AB00010B500241DE01048407DA0420ADD0E48CC
:105AC000203030F81420083850F824102046FBF716
:105AD0006DFB04E0012209492046FBF767FB0649FC
