:020000040800F2
:100000000823012059020008610200086302000869
:10001000650200086702000869020008000000008D
:10002000000000000000000000000000A90100081E
:100030006D02000800000000ED0100083B460008CA
:1000400073020008730200087302000873020008BC
:1000500073020008730200087302000873020008AC
:10006000730200087302000873020008730200089C
:10007000730200087302000873020008730200088C
:1000800073020008730200087302000800000000F9
:1000900000000000000000000000000073020008E3
:1000A000730200087302000873020008730200085C
:1000B000730200087302000873020008730200084C
:1000C000730200087302000873020008730200083C
:1000D0007302000873020008454B0008000000008E
:1000E0007302000873020008730200080000000099
:1000F0000000000000000000000000007302000883
:100100000000000073020008730200087302000878
:1001100000000000000000000000000000000000DF
:1001200073020008730200087302000873020008DB
:100130007302000800000000000000000000000042
:100140000000000000000000000000005D4000080A
:1001500073020008730200087302000873020008AB
:100160007302000873020008000000000000000095
:10017000000000000000000000000000000000007F
:1001800000000000730200080000000000000000F2
:1001900073020008DFF80CD000F0F0FA00480047C6
:1001A0008978000808230120234B19680868B0E803
:1001B000F04F80F309884FF0000080F311887047FA
:1001C0000000000003480068006880F3088862B6F9
:1001D00000DF00BF08ED00E0DFF80C00016841F42B
:1001E00070010160704700BF88ED00E0EFF3098007
:1001F000114B1A681EF0100F08BF20ED108A20E97D
:10020000F04F106008B44FF0500080F3118808F0F0
:100210004BFF4FF0000080F3118808BC1968086894
:10022000B0E8F04F1EF0100F08BFB0EC108A80F35A
:100230000988704700BF00BF84010020EFF31180E0
:100240004FF0500181F31188704780F31188704797
:10025000EFF30580704700000648804706480047D6
:10026000FEE7FEE7FEE7FEE7FEE7FEE7FEE7FEE766
:10027000FEE7FEE7BD4600089501000840EA0103DD
:100280009B0703D009E008C9121F08C0042AFAD24C
:1002900003E011F8013B00F8013B521EF9D2704710
:1002A000D2B201E000F8012B491EFBD270470022B8
:1002B000F6E710B513460A4604461946FFF7F0FF65
:1002C000204610BD0EB540F2334102910021CDE928
:1002D00000110A460B4600F03AF803B000BDC1F326
:1002E0000A5210B5C1F3130140F2FF3341F48011FB
:1002F0009A4201DA002010BD40F233439A42A2F242
:10030000334203DC524200F003F810BD904010BDB0
:10031000202A04DB203A21FA02F00021704721FA5A
:1003200002F3D040C2F120029140084319467047C1
:1003300010B5141E73F1000408DA401C41F10001ED
:1003400092185B411A4301D120F0010010BD2DE944
:10035000F04D92469B4611B1B1FA81F202E0B0FA3B
:1003600080F22032904600F01BFA04460F4640EA25
:100370000A0041EA0B0153465A46084313D011467E
:1003800053EA010019D0C8F140025046FFF7C0FF00
:1003900005460E4650465946424600F001FA0843CB
:1003A00005D0012004E020463946BDE8F08D00204C
:1003B000054346EAE0762C4337430A986305E40A8E
:1003C000A0EB08000022FD0A44EA47540A3002D597
:1003D00000200146E9E7010510196941DDE90845FA
:1003E00000196941BDE8F04DA2E72DE9FE4F8046B6
:1003F00081EA0300C00F0C46009021F0004123F079
:100400000045B8EB0200A94105D24046214690467E
:100410001C460B46024623F00040104347D0270DF0
:10042000C7F30A00C3F30A510290401A0190402812
:100430006BDAC3F3130040F4801B0098924620B19E
:100440000023D2EB030A63EB0B0B01985946C0F172
:100450004002504600F0A4F906460D465046594663
:10046000019A00F0ACF910EB08006141002487EA22
:10047000115284EAE7731A4340D0009A62B3019A9A
:10048000012A4FEA075215DC001B61EB02014FF015
:10049000004202EA0752CDE90042001C41F58011FA
:1004A00032462B46FFF753FF03B0BDE8F08F4046BE
:1004B0002146F9E7001B61EB0201001C41F58013A6
:1004C00000185B412018A2F5001747EB030140EA32
:1004D000D570B6196D4111E06D084FEA360645EA50
:1004E000C0754FEA0752001B61EB0201001C41F589
:1004F000801149084FEA30000019514132462B461D
:1005000003B0BDE8F04FFFF713BF00980122400091
:100510000023D0EB020263EBE073009821464FEA20
:10052000E074B8EB000061EB0401E9E783F00043FD
:100530005BE781F0004158E72DE9FE4F81EA0304B3
:1005400004F0004421F0004100944FF0000B23F030
:10055000004350EA01045ED052EA03045BD0C3F3C7
:100560000A54C1F30A552C44A4F2F3340194A0FBBD
:100570000254C1F3130141F48011C3F3130343F494
:10058000801301FB024400FB034E840A970A44EAED
:10059000815447EA8357A4FB076802958D0A05FB3F
:1005A00007854FEA932C04FB0C542705029D4FEA64
:1005B000065847EA1637B5EB08056EEB070C870EB1
:1005C000920E47EA811742EA8312A7FB0201B6EBBB
:1005D0000B0164EB00042B0D43EA0C335E1844EB73
:1005E0001C50DA465146E7FB0201C5F313044FEAFB
:1005F0000B3343EA14534FEA0432019C43EA0603E7
:10060000A4F10C040294009CCDE900B4FFF79FFE16
:1006100003B0BDE8F08F00200146F9E72DE9F04D69
:1006200081EA030404F0004B21F0004514464FF02A
:10063000000A23F0004150EA050220D054EA0102EA
:100640001DD0C5F30A570246C5F31303C1F31300C7
:10065000C1F30A5640F4801543F48013A7EB060853
:10066000101BD64608F2FD3873EB050002D308F1E3
:10067000010801E092185B41B8F1000F03DA002095
:100680000146BDE8F08D00204FF4801106468446F7
:100690000EE0171B73EB050705D3121B63EB050375
:1006A00006434CEA010C49084FEA300092185B41BE
:1006B00050EA0107EDD152EA030012D082EA0400A9
:1006C00083EA0501084305D0101BAB4106D2012285
:1006D000002306E000224FF0004302E06FF0010229
:1006E00053101AEB06004CEB085110EB0A0041EBDB
:1006F0000B01BDE8F04DFFF71BBE70B521F00043C4
:1007000003430CD0C1F30A550024D5EB040564EB78
:100710000403D617AD1AB34102DB0020014670BDB9
:10072000201841EB025170BD0EB5C10F80EAE07098
:100730000844CA07002140F233438DE80E000A4600
:100740000B46FFF704FE03B000BD000030B5041EE9
:1007500071F1000404DB4FF00044404264EB0101FE
:10076000141E73F1000405DB1C464FF00043524297
:1007700063EB0403994208BF904230BD064C074D1D
:1007800006E0E06840F0010394E807009847103461
:10079000AC42F6D3FFF702FD049D0008249D00083B
:1007A000202A04DB203A00FA02F100207047914031
:1007B000C2F1200320FA03F3194390407047202A26
:1007C00006DBCB17203A41FA02F043EAE07306E079
:1007D00041FA02F3D040C2F1200291400843194689
:1007E00070472DE9F04D00231A461B1A8A4103DB9E
:1007F00000200146BDE8F08DC1F30A52C1F3130198
:1008000041F480154FF0000BD10702D100186D4163
:10081000521E0027044640F2FF11384601EB620ADF
:100820003E468046024600204FF48011FFF770FDDF
:10083000C2197141BB1846EB0100B4EB030C75EB18
:10084000000C04D3E41A65EB000517460E46241984
:1008500008F101006D4180463428E3DDF91946EBCB
:100860000600091BA84103D24FF0FF32134601E0F6
:10087000002213461BEB070046EB0A51BDE8F04D82
:10088000FFF756BD70B58C1810F8015B15F0070323
:1008900001D110F8013B2A1106D110F8012B03E019
:1008A00010F8016B01F8016B5B1EF9D12B0705D421
:1008B0000023521E0DD401F8013BFAE710F8013B6A
:1008C000CB1A921C03E013F8015B01F8015B521E86
:1008D000F9D5A142D8D3002070BD70B50546AC6BE8
:1008E00094F83D00252803D1352084F83D0002E02E
:1008F000152084F83D00204600F086FC70BD70B5E0
:100900000546AC6B042084F83D00206C40F00200EA
:100910002064204600F08BFC70BD70B50446A56BCA
:10092000284600F072FC70BD70B592B004460D46CA
:100930001646BCB93422114901A8FFF79FFC0F48A5
:10094000406B0E900D48816B0F9190F83C008DF834
:1009500040000A4890F83D008DF841000748006CBF
:10096000119000BF00BF01A800F056FD3246294695
:1009700001A800F0F7FC12B070BD0000440E00208A
:100980004E49096821F440314D4AC2F8041311461A
:10099000D1F8041342681143484A1160016849685C
:1009A00021F480710268516001684A68016942EA75
:1009B0000121026851600168496821F040710268B4
:1009C000516001684968826811430268516001689A
:1009D000896821F400610268916001688968C268D1
:1009E0001143026891600168896821F070610268B2
:1009F000916001688968026B114302689160016827
:100A0000896821F040510268916001688968C26A72
:100A10001143026891600168896821F0020102684F
:100A2000916001688A68816942EA410102689160C7
:100A3000416AA1B10168496841F4006102685160EE
:100A40000168496821F460410268516001684A68A0
:100A5000816A491E42EA41310268516005E001683D
:100A6000496821F40061026851600168C96A21F493
:100A700070010268D1620168CA6A018C491E42EAAB
:100A800001510268D1620168896821F4007102682D
:100A9000916001688A68C16942EA412102689160F7
:100AA0000168896821F480610268916001688A6840
:100AB000416942EA81210268916070470423014044
:100AC0000020014010B586B0044600BF2CB9104884
:100AD000006840F001000E49086000BF0D4830F882
:100AE00014000190012002900390022004900A4912
:100AF00051F8240001A901F087FD064A32F81410CC
:100B0000054A52F82400002201F082FE06B010BD12
:100B100030380240089C00086001002010B50446EF
:100B2000044A32F81410044A52F82400002201F05A
:100B30006FFE10BD089C00086001002010B504463F
:100B4000044A32F81410044A52F82400012201F039
:100B50005FFE10BD089C0008600100200346042BC6
:100B600015D007DC7BB1012B0ED0022B0DD0032B4F
:100B700012D10BE0202B0BD0212B0AD0222B09D035
:100B8000232B09D107E008E007E006E005E004E0D8
:100B900003E002E001E000E000BF00BF002070477A
:100BA0000020704710B5084808490860002208492D
:100BB0000648006804F0D2F806490448006804F0CA
:100BC000C6F8002010BD0000340600200000002000
:100BD000340400203402002070B504460D4600267F
:100BE00000BF04E014F8010B06F05AFD761C2868DB
:100BF000B042F7D8024804F086F8002070BD00002B
:100C00003406002070B504460D462A4621460448A5
:100C1000006804F0A3F80248006804F0DEF870BD34
:100C20000000002088B0002214210A2008F039FBBF
:100C3000474908608BE000235A1E03A94448006816
:100C400008F05DFB9DF80C003128F3D100BF9DF842
:100C500005008DF804009DF806008DF805009DF84C
:100C600007008DF806009DF800008DF80700684623
:100C700006F060FC04463CB99DF800003A2803D019
:100C80009DF800003B28E2D1002C60D19DF80700C0
:100C900000069DF8061040EA01409DF8051040EA64
:100CA00001209DF8041008432A4A811A904235D049
:100CB00007DC2949084460B128490844002834D198
:100CC00016E02748084410B32649084400282CD1D0
:100CD00016E000235A1E24A12548006808F0EBFB0B
:100CE00000235A1E23A12248006808F0E4FB2DE0EF
:100CF00000235A1E24A11E48006808F0DCFB25E0F2
:100D000007F09CF90546284607F0CEF91EE006F0EC
:100D100071FE0546284607F0C7F917E006F0A0FE69
:100D20000546284607F0C0F910E000235A1E1BA113
:100D30000F48006808F0BFFB00BF684606F0FAFBEA
:100D400018B99DF800003B28F7D100BF00BF72E73B
:100D5000E00100204F534350B7BBB1C0F3FEFBFF8F
:100D60000C04F6FCF0F5F9FE41434B5F0000000077
:100D7000E401002053544D3332463430312D4E754A
:100D8000636C656F000000003953656E64537973BE
:100D90007456657273696F6E000000004539393909
:100DA0000000000090B006F059FC00221E21052032
:100DB00008F077FA93490860042008F047FA92494E
:100DC000086092A30FCBCDE90623CDE9040118E119
:100DD00000235A1E08A98B48006808F090FA4FF0CB
:100DE000FF318948006808F066FC9DF82000312832
:100DF0007ED106F01DFD04287BD106F007FD80465C
:100E000006F010FD074606F0F3FC02900298082851
:100E100014DD06F013FD834606F004FD824606F05D
:100E2000FBFC0AFB00FAABEB1A4008EB4000B0FBFE
:100E3000F8F108FB110000907F0011E006F0FEFCC5
:100E4000834606F0EFFC824606F0E6FC0AFB00FA59
:100E5000ABEB1A404044B0FBF8F108FB11000090E6
:100E60000298C0B28DF81800380C8DF81900380AB5
:100E70008DF81A00F8B28DF81B0000F011F98DF80A
:100E80001F0000983844404506D90098A8EB000997
:100E9000A7EB0900039002E0B94600200390002070
:100EA00001905CE0019806F0A9FC06460198401C00
:100EB000C0B28DF81E00102104A806F017FCB9F589
:100EC000804F1DD94D4600240BE00099314401EBC1
:100ED00084304FF4804106F009FC601CC4B2A5F5D3
:100EE0008045B5F5804FF0D89DB1009A324401E0BD
:100EF00045E04EE002EB8430A9B206F0F7FB08E0D3
:100F0000B9F1000F05D01FFA89F1009AB01806F068
:100F1000EDFB0398B0F5804F16D9039D002409E03E
:100F200006EB84304FF4804106F0E0FB601CC4B255
:100F3000A5F58045B5F5804FF2D865B1A9B206EBAD
:100F4000843006F0D3FB06E0039820B1039881B209
:100F5000304606F0CBFB0198401CC0B2019000F077
:100F60009FF8019988429DDC2CA006F0D9FB002354
:100F70005A1E2CA12E48006808F09DFA3DE09DF80D
:100F80002000322839D09DF82000332802D107F004
:100F9000DFFD32E09DF82000342802D107F054FD37
:100FA0002BE09DF82000352802D107F081FD24E0D8
:100FB0009DF82000362820D09DF8200037281CD02E
:100FC0009DF82000382818D09DF82000392802D13B
:100FD00007F0DAFD11E09DF8200049280AD100232E
:100FE0005A1E08A90748006808F089F908A806F001
:100FF00097FB02E008A806F093FB0348006808F09E
:101000003DFBE5E6E4010020E80100204F53435F8B
:10101000444154417878787843483078535F4F4B57
:1010200000000000324461746153656E740000007A
:10103000EC01002010B592B00446012C17D13422E7
:101040000E4901A8FFF71AF90C48406B0E900B48A7
:10105000816B0F9190F83C008DF84000074890F8A4
:101060003D008DF841000548006C119000BF00BFA5
:101070000F980068406880B212B010BD440E002086
:1010800010B5046863608468402C04D10468A260D1
:101090000468E16003E00468A1600468E26010BDD8
:1010A0000148407F70470000D41C012010B5024663
:1010B00000BF92F83C00012801D1022010BD0120A0
:1010C00082F83C0000BF0868092816D91068C0687B
:1010D0000B780A3B03EB43040723A34098431368B0
:1010E000D8600B780A3B03EB430388689840136889
:1010F000DB6818431368D86013E0106800690B7848
:1011000003EB43040723A3409843136818610B784B
:1011100003EB43038868984013681B6918431368FE
:1011200018614868072816D21068406B0B795B1E5F
:1011300003EB83041F23A3409843136858630B7980
:101140005B1E03EB83030868984013685B6B1843CE
:10115000136858632FE048680D2816D21068006B9A
:101160000B79DB1F03EB83041F23A3409843136811
:1011700018630B79DB1F03EB83030868984013683F
:101180001B6B18431368186315E01068C06A0B796D
:101190000D3B03EB83041F23A34098431368D862DD
:1011A0000B790D3B03EB8303086898401368DB6AF7
:1011B00018431368D862124B1068984208D1086827
:1011C000122805D10F48006840F48000C3F80403DA
:1011D0000B4B106898420CD10868102802D00868A0
:1011E000112806D10748006840F40000044BC3F8FA
:1011F000040300BF002082F83C0000BF00BF5DE791
:1012000000200140042301407047704710B5044698
:101210000CB9012010BD022084F83D00204600F0EA
:1012200025F80020206484F83D0000BFF2E77047F5
:1012300010B504460CB9012010BD94F83D0010B95A
:10124000204600F02DF8022084F83D002046FFF7EC
:1012500097FB00202064012084F83D0000BF00209F
:1012600084F83C0000BF00BFE6E7000010B504466C
:101270000849206888420CD10748006820F4807033
:10128000054908600221054801F056F9A06B00F0FD
:101290000FF910BD00200140443802400008024010
:1012A00010B586B004462949206888424CD12848A8
:1012B000006840F0040026490860254814300068A2
:1012C00040F480702249143108600220019003200C
:1012D00002900020039001A91E4801F095F91E48D4
:1012E0001E4908600020486000211C488160C160E0
:1012F0004FF4806101611A480068B0F1007F04D0AA
:1013000017480068B0F1407F04D100211348816183
:10131000416105E04FF4005110488161891041613D
:101320004FF480710D48C1614902016200214162A0
:10133000012181620021C162016301F06BF800BFED
:101340000648A063846300BF06B010BD00200140C2
:10135000303802400008024010640240880E00202D
:10136000480000202DE9F04104460D4616460027AE
:1013700000BF94F83C00012802D10220BDE8F081B2
:10138000012084F83C0000BF2068406840F0806085
:10139000216848602068806840F480702168886017
:1013A0001A48A16BC8631A48A16B08641948A16B5D
:1013B0008864226802F14C0133462A46A06B01F092
:1013C00067F8122084F83D002068806800F0010072
:1013D00060B92068806840F001002168886002E000
:1013E00000BF781C87B2B7F5077FF9DDE06A28B93E
:1013F0002068806840F080402168886000BF00203D
:1014000084F83C0000BF00BFB8E70000DB0800081C
:101410001B090008FF08000810B504462068806812
:1014200020F00100216888602068406820F080601A
:10143000216848602068806820F480702168886096
:10144000A06B00F005F8012084F83D00002010BDDD
:1014500070B5044600252068006820F0010021686E
:10146000086001F0DFF9054612E001F0DBF9401BEE
:10147000B0F57A7F0CD9E06C40F02000E06400BF4A
:10148000002084F8340000BF032084F8350070BDCC
:101490002068006800F001000028E6D100BF84F851
:1014A000340000BF012084F835000020EFE7000081
:1014B000014609B90120704791F83500022801D191
:1014C0000120F8E70868006820F001000A68106051
:1014D00000200A6810600A6850600A6890600A6814
:1014E000D0600A68106121200A685061F94A0868D2
:1014F00090425CD9F84A0868904201D1F74852E01E
:10150000F44A483A0868904201D1F4484BE0F24A64
:1015100060320868904201D1F04844E0ED4A183248
:101520000868904201D1ED483DE0EB4A1832086866
:10153000904201D1801536E0E64A303A0868904280
:1015400001D180152FE0E44A78320868904201D139
:10155000801528E0DF4A30320868904201D18015BA
:1015600021E0DD4A30320868904202D14FF48020F9
:1015700019E0D84A183A0868904202D14FF4802006
:1015800011E0D54A90320868904202D14FF4802091
:1015900009E0D04A48320868904202D14FF48020D6
:1015A00001E04FF08070CB4A4C3A10601FE1CA4A0C
:1015B000A832086890425CD9C74A0868904201D1B5
:1015C000C64852E0C34A483A0868904201D1C3482D
:1015D0004BE0C14A60320868904201D1BF4844E004
:1015E000BC4A18320868904201D1BC483DE0BA4A72
:1015F00018320868904201D1801536E0B54A303A79
:101600000868904201D180152FE0B34A783208680B
:10161000904201D1801528E0AE4A303208689042ED
:1016200001D1801521E0AC4A30320868904202D1E5
:101630004FF4802019E0A74A183A0868904202D176
:101640004FF4802011E0A44A90320868904202D101
:101650004FF4802009E09F4A48320868904202D146
:101660004FF4802001E04FF080709A4A503A1060A9
:10167000BDE0994A4832086890425CD9964A0868A9
:10168000904201D1954852E0924A483A0868904207
:1016900001D192484BE0904A60320868904201D1F3
:1016A0008E4844E08B4A18320868904201D18B483A
:1016B0003DE0894A18320868904201D1801536E031
:1016C000844A303A0868904201D180152FE0824A5E
:1016D00078320868904201D1801528E07D4A303286
:1016E0000868904201D1801521E07B4A30320868B9
:1016F000904202D14FF4802019E0764A183A0868E7
:10170000904202D14FF4802011E0734A9032086871
:10171000904202D14FF4802009E06E4A48320868B6
:10172000904202D14FF4802001E04FF080706A4A6D
:10173000103AD0605BE0684A0868904201D167487F
:1017400052E0644A483A0868904201D163484BE04D
:10175000614A60320868904201D1604844E05D4AC5
:1017600018320868904201D15C483DE05A4A18326C
:101770000868904201D1801536E0564A303A086830
:10178000904201D180152FE0534A78320868904288
:1017900001D1801528E04F4A30320868904201D1CB
:1017A000801521E04C4A30320868904202D14FF453
:1017B000802019E0474A183A0868904202D14FF455
:1017C000802011E0444A90320868904202D14FF4E0
:1017D000802009E03F4A48320868904202D14FF425
:1017E000802001E04FF080703B4A103A9060394A07
:1017F000086890425CD9384A0868904201D120209C
:1018000052E0344A483A0868904201D120204BE027
:10181000314A60320868904201D1202044E02D4ACC
:1018200018320868904201D120203DE02A4A18323F
:101830000868904201D1C01436E0264A303A086860
:10184000904201D1C0142FE0234A783208689042B8
:1018500001D1C01428E01F4A30320868904201D1FB
:10186000C01421E01C4A30320868904202D14FF483
:10187000001019E0174A183A0868904202D14FF454
:10188000001011E0144A90320868904202D14FF4DF
:10189000001009E00F4A48320868904202D14FF424
:1018A000001001E04FF000600A4A4C3A106021E15C
:1018B000094AA8320868904260D9074A08689042ED
:1018C00001D1202056E0034A483A0868904207D1E7
:1018D00020204FE058640240106002400400800065
:1018E000F84A0868904201D1202043E0F64A08688F
:1018F000904201D120203DE0F24A483A08689042E7
:1019000001D1C01436E0F04A483A0868904201D14B
:10191000C0142FE0EB4A18320868904201D1C0147D
:1019200028E0E94A18320868904201D1C01421E049
:10193000E44A303A0868904202D14FF4001019E0AE
:10194000E14A303A0868904202D14FF4001011E0A9
:10195000DC4A30320868904202D14FF4001009E0AE
:10196000D94A30320868904202D14FF4001001E0A9
:101970004FF00060D44A683A1060BBE0D14A183A90
:10198000086890425BD9CF4A603A0868904201D11A
:10199000202050E0CC4A603A0868904201D12020D3
:1019A00049E0C84A0868904201D1202043E0C64A75
:1019B0000868904201D120203DE0C24A483A0868B8
:1019C000904201D1C01436E0BF4A483A08689042BC
:1019D00001D1C0142FE0BB4A18320868904201D1EF
:1019E000C01428E0B84A18320868904201D1C014E7
:1019F00021E0B44A303A0868904202D14FF4001016
:101A000019E0B14A303A0868904202D14FF4001010
:101A100011E0AC4A30320868904202D14FF4001015
:101A200009E0A94A30320868904202D14FF4001010
:101A300001E04FF00060A34A703AD0605AE0A14A3A
:101A4000603A0868904201D1202050E09E4A603AF6
:101A50000868904201D1202049E09A4A08689042E3
:101A600001D1202043E0984A0868904201D120200B
:101A70003DE0944A483A0868904201D1C01436E0EB
:101A8000914A483A0868904201D1C0142FE08D4A2B
:101A900018320868904201D1C01428E08A4A1832EE
:101AA0000868904201D1C01421E0864A303A0868A3
:101AB000904202D14FF4001019E0834A303A08688E
:101AC000904202D14FF4001011E07E4A3032086893
:101AD000904202D14FF4001009E07B4A303208688E
:101AE000904202D14FF4001001E04FF00060754ABF
:101AF000703A9060744A183A086890425BD9714A0B
:101B0000603A0868904201D1082050E06E4A603A7D
:101B10000868904201D1082049E06A4A086890426A
:101B200001D1082043E0684A0868904201D10820AA
:101B30003DE0644A483A0868904201D1401536E0D9
:101B4000614A483A0868904201D140152FE05D4A49
:101B500018320868904201D1401528E05A4A1832DC
:101B60000868904201D1401521E0564A303A086891
:101B7000904202D14FF4002019E0534A303A0868ED
:101B8000904202D14FF4002011E04E4A30320868F2
:101B9000904202D14FF4002009E04B4A30320868ED
:101BA000904202D14FF4002001E04FF00070464A0D
:101BB000643A10601EE1434A4832086890425BD99B
:101BC000404A603A0868904201D1082050E03E4AFD
:101BD000603A0868904201D1082049E0394A086813
:101BE000904201D1082043E0374A0868904201D171
:101BF00008203DE0334A483A0868904201D1401538
:101C000036E0314A483A0868904201D140152FE049
:101C10002C4A18320868904201D1401528E02A4A1F
:101C200018320868904201D1401521E0254A303A27
:101C30000868904202D14FF4002019E0224A303A5D
:101C40000868904202D14FF4002011E01D4A303262
:101C50000868904202D14FF4002009E01A4A30325D
:101C60000868904202D14FF4002001E04FF000706C
:101C7000154A683A1060BDE0124A183A0868904266
:101C80005DD9104A603A0868904201D1082052E0BC
:101C90000D4A603A0868904201D108204BE0094A99
:101CA0000868904201D1082045E0074A0868904240
:101CB00001D108203FE0034A483A0868904205D124
:101CC000401538E07060024070640240FA4A0868CB
:101CD000904201D140152EE0F84A0868904201D1A7
:101CE000401528E0F44A60320868904201D140155E
:101CF00021E0F24A483A0868904202D14FF40020AD
:101D000019E0ED4A18320868904202D14FF40020E1
:101D100011E0EA4A18320868904202D14FF40020DC
:101D200009E0E54A78320868904202D14FF4002079
:101D300001E04FF00070E14A883AD0605AE0DF4A93
:101D4000783A0868904201D1082050E0DA4A183AFF
:101D50000868904201D1082049E0D84A183A08683A
:101D6000904201D1082042E0D34A483208689042AC
:101D700001D108203BE0D14A603A0868904201D185
:101D8000401534E0CC4A0868904201D140152EE05D
:101D9000CA4A0868904201D1401528E0C64A60321C
:101DA0000868904201D1401521E0C44A483A0868C9
:101DB000904202D14FF4002019E0BF4A183208685F
:101DC000904202D14FF4002011E0BC4A183208685A
:101DD000904202D14FF4002009E0B74A78320868F7
:101DE000904202D14FF4002001E04FF00070B34A5E
:101DF000883A9060B04A3032086890425BD9AF4A66
:101E0000783A0868904201D1AD4850E0AA4A183AA1
:101E10000868904201D1AA4849E0A84A183A0868DF
:101E2000904201D1A64842E0A34A48320868904255
:101E300001D1A3483BE0A14A603A0868904201D131
:101E4000402034E09C4A0868904201D140202EE0B6
:101E50009A4A0868904201D1402028E0964A6032B0
:101E60000868904201D1402021E0944A483A08682D
:101E7000904202D14FF4803019E08F4A183208683E
:101E8000904202D14FF4803011E08C4A1832086839
:101E9000904202D14FF4803009E0874A78320868D6
:101EA000904202D14FF4803001E04FF48000824A2A
:101EB0001C3A106021E1814A3032086890425BD9B7
:101EC0007E4A783A0868904201D17D4850E07A4ACB
:101ED000183A0868904201D1794849E0774A183A9F
:101EE0000868904201D1764842E0734A4832086857
:101EF000904201D172483BE0704A603A08689042D3
:101F000001D1402034E06C4A0868904201D1402061
:101F10002EE06A4A0868904201D1402028E0664AD3
:101F200060320868904201D1402021E0634A483A7B
:101F30000868904202D14FF4803019E05E4A1832AE
:101F40000868904202D14FF4803011E05B4A1832A9
:101F50000868904202D14FF4803009E0564A783246
:101F60000868904202D14FF4803001E04FF48000C5
:101F7000514A203A1060C0E0504A303A0868904216
:101F80005BD94E4A783A0868904201D14C4850E0FB
:101F9000494A183A0868904201D1494849E0474AFD
:101FA000183A0868904201D1454842E0424A483216
:101FB0000868904201D142483BE0404A603A0868D4
:101FC000904201D1402034E03B4A0868904201D160
:101FD00040202EE0394A0868904201D1402028E094
:101FE000354A60320868904201D1402021E0334AEE
:101FF000483A0868904202D14FF4803019E02E4AE6
:1020000018320868904202D14FF4803011E02B4A18
:1020100018320868904202D14FF4803009E0264A15
:1020200078320868904202D14FF4803001E04FF4DA
:102030008000224A883AD0605FE0204A783A0868F7
:10204000904201D11E4855E01B4A183A0868904258
:1020500001D11B484EE0194A183A0868904201D154
:10206000174847E0144A48320868904201D11448A2
:1020700040E0124A603A0868904201D1402039E0BD
:102080000D4A0868904201D1402033E00B4A0868AD
:10209000904201D140202DE0074A6032086890420A
:1020A00001D1402026E0054A483A0868904209D10B
:1020B0004FF480301EE00000286402408860024037
:1020C00001008000D14A0868904202D14FF480306C
:1020D00010E0CF4A0868904202D14FF4803009E006
:1020E000CA4A60320868904202D14FF4803001E061
:1020F0004FF48000C64AA03A9060C44A183208687B
:1021000090425BD9C24A903A0868904201D11020AF
:1021100050E0BE4A303A0868904201D1102049E0B0
:10212000BB4A303A0868904201D1102042E0B74AD9
:1021300030320868904201D110203BE0B44A783A2E
:102140000868904201D1001534E0B04A183A086896
:10215000904201D100152DE0AD4A183A086890422E
:1021600001D1001526E0A94A48320868904201D101
:1021700000151FE0A64A603A0868904202D14FF469
:10218000801017E0A14A0868904202D14FF48010F5
:1021900010E09F4A0868904202D14FF4801009E095
:1021A0009A4A60320868904202D14FF4801001E0F0
:1021B0004FF08060954A343A10601CE1944A18321E
:1021C000086890425BD9924A903A0868904201D1DF
:1021D000102050E08D4A303A0868904201D110201A
:1021E00049E08B4A303A0868904201D1102042E021
:1021F000864A30320868904201D110203BE0844A80
:10220000783A0868904201D1001534E07F4A183AC4
:102210000868904201D100152DE07D4A183A0868FF
:10222000904201D1001526E0784A48320868904271
:1022300001D100151FE0764A603A0868904202D149
:102240004FF4801017E0714A0868904202D14FF4B1
:10225000801010E06E4A0868904202D14FF480105E
:1022600009E06A4A60320868904202D14FF4801057
:1022700001E04FF08060654A383A1060BBE0644A84
:10228000483A086890425BD9614A903A086890429F
:1022900001D1102050E05D4A303A0868904201D1E7
:1022A000102049E05A4A303A0868904201D1102083
:1022B00042E0564A30320868904201D110203BE09B
:1022C000534A783A0868904201D1001534E04F4AE9
:1022D000183A0868904201D100152DE04C4A183A8E
:1022E0000868904201D1001526E0484A4832086843
:1022F000904201D100151FE0454A603A08689042BB
:1023000002D14FF4801017E0404A0868904202D191
:102310004FF4801010E03E4A0868904202D14FF41A
:10232000801009E0394A60320868904202D14FF4C7
:10233000801001E04FF08060354AA03AD0605AE04A
:10234000334A903A0868904201D1102050E02F4A59
:10235000303A0868904201D1102049E02C4A303AC6
:102360000868904201D1102042E0284A30320868C3
:10237000904201D110203BE0254A783A086890420B
:1023800001D1001534E0214A183A0868904201D181
:1023900000152DE01E4A183A0868904201D1001538
:1023A00026E01A4A48320868904201D100151FE021
:1023B000174A603A0868904202D14FF4801017E043
:1023C000124A0868904202D14FF4801010E0104A7F
:1023D0000868904202D14FF4801009E00B4A603245
:1023E0000868904202D14FF4801001E04FF0806005
:1023F000074AA03A90600020C86481F8350000BF09
:1024000081F8340000BF00BFFFF755B840640240B8
:10241000A06002400146002209B901207047486AC5
:1024200000B100BF022081F8350008680268174833
:102430000240D1E901031843CB6818430B691843E4
:102440004B6918438B691843CB6918430B6A1843CF
:102450000243486A042803D1D1E90B03184302431D
:10246000086802600868426922F00702486A02436D
:10247000486A042801D1886A024308684261002042
:10248000C864012081F835000020C7E73F8014F0C0
:102490002DE9F04104460D4616461F4600BF94F84C
:1024A0003400012802D10220BDE8F081012084F827
:1024B000340000BF022084F835002068006820F056
:1024C0000100216808603B46324629462046FEF757
:1024D000D7FD2068006840F010002168086020687F
:1024E000006840F00800216808602068006840F03B
:1024F0000400216808602068406940F0800021687D
:1025000048612068006840F0020021680860206887
:10251000006840F00100216808600020C4E731B580
:10252000002400F07FF9044600BF00F07BF9001B97
:1025300000998842F9D338BDF0B502460B46002415
:1025400000210025002058E0012606FA00F403EAE5
:102550000401A14250D116684FEA400C032707FA44
:102560000CF7BE431660C70802F1200656F8276034
:1025700047074FEAD76C0F2707FA0CF7BE434FEA1D
:10258000D00C02F1200747F82C6096684FEA400C07
:10259000032707FA0CF7BE4396605768012686406A
:1025A000B7435760D6684FEA400C032707FA0CF789
:1025B000BE43D6608607370F0F2606FA07F5104E82
:1025C000870856F82770AF434FEA900C46F82C70F6
:1025D0000C4E36688E430B4F3E603E1D36688E4370
:1025E0003F1D3E603E1D36688E433F1D3E603E1DD2
:1025F00036688E433F1D3E60401C1028A4D3F0BDBA
:1026000008380140003C0140F0B502460B46002569
:10261000002400200021DCE0012606FA01F51E68F6
:1026200006EA0504AC426ED15E68022E02D05E68F6
:10263000122E13D1CF0802F1200656F827004E07BC
:10264000F70E0F26BE40B0434F07FF0E1E69BE4077
:102650003043CF0802F1200646F8270010684F00EB
:102660000326BE40B0431E7906F003064F00BE406D
:10267000304310605E68012E08D05E68022E05D0DF
:102680005E68112E02D05E68122E13D190684F0042
:102690000326BE40B0434F00DE68BE40304390602A
:1026A000506801268E40B0431E79C6F300168E4056
:1026B00030435060D0684F000326BE40B0434F0007
:1026C0009E68BE403043D0605E6806F08056B6F12A
:1026D000805F7DD1414E366846F480463F4F3E6074
:1026E0003F4E8F0856F827008E07370F0F26BE4043
:1026F000B0433C4EB24201D100262EE03A4EB242E7
:1027000002D1012629E063E0384EB24201D102260F
:1027100023E0374EB24201D103261EE0354EB242CD
:1027200001D1042619E0344EB24201D1052614E04D
:10273000324EB24201D106260FE0314EB24201D1F3
:1027400007260AE02F4EB24201D1082605E02E4EA0
:10275000B24201D1092600E00A268F073F0FBE4092
:1027600030431F4E8F0846F82700284E3068A0439C
:102770005E6806F48036B6F5803F00D12043234ED4
:102780003060361D3068A0435E6806F40036B6F54A
:10279000003F00D120431D4E361D3060361D30688D
:1027A000A0435E6806F48016B6F5801F00D1204372
:1027B000164E08363060361D3068A0435E6806F459
:1027C0000016B6F5001F00D12043104E0C363060C5
:1027D000491C1029FFF420AFF0BD0000443802402E
:1027E0000838014000000240000402400008024096
:1027F000000C024000100240001402400018024089
:10280000001C02400020024000240240003C014025
:102810000AB1018300E0418370470000004870471F
:10282000000001010148006870470000800100209D
:1028300002480068401C0149086070478001002080
:1028400010B50D48006840F400700B490860084658
:10285000006840F4806008600846006840F48070BA
:102860000860032000F080F8002000F007F800F076
:1028700017F8002010BD0000003C024070B504466F
:1028800000F088FF4FF47A71B0FBF1F5284601F0B3
:1028900029FA00222146501E00F027F8002070BDC2
:1028A00010B5032000F060F800221146501E00F021
:1028B0001CF810BD00BF00F01F0201219140034A27
:1028C000430942F8231000BF7047000080E200E097
:1028D00000BF00F01F02012191404209920002F165
:1028E000E022C2F8001100BF70472DE9F05F80467A
:1028F0000D461646002701F095FB074639462A4645
:10290000334601F00700C0F1070ABAF1040F02D9FB
:102910004FF0040A01E0C0F1070AD14600F1040AB1
:10292000BAF1070F02D24FF0000A01E0A0F1030A4A
:10293000D4464FF0010A0AFA09FAAAF1010A0AEA92
:10294000020A0AFA0CFA4FF0010B0BFA0CFBABF17E
:10295000010B0BEA030B4AEA0B042146404601F047
:1029600069FBBDE8F09F000000BF00F00702064BC6
:1029700019684FF6FF031940044B0B4343EA022149
:10298000014B196000BF70470CED00E00000FA0534
:1029900002461068416200207047F0B503461446B5
:1029A000002500221868426A21B942EA04401E68E4
:1029B000B06219E01868806A02EB1042002508E056
:1029C000186800F5827050F8250002EB1042681C70
:1029D000C5B2481EA842F3DC42EA0447186800F575
:1029E00082704E1E40F826700020F0BD10B50446DF
:1029F000D4F8AC0302F028FD10BD70B504460D46B6
:102A0000C5EBC50304F1300101EB8301CA68294617
:102A1000D4F8AC0302F074FC70BD70B504460D46EA
:102A2000C5EBC50304F5EA7101EB8301CA682946C9
:102A3000D4F8AC0302F0C5FC70BD10B50446D4F860
:102A4000AC0302F004FD10BD70B504460D4605F060
:102A50008000802808D105F07F00C0EBC00104F1A0
:102A6000300000EB810607E005F07F00C0EBC001FD
:102A700004F5EA7000EB810605F07F00307005F088
:102A80008000C009707000BF94F87803012801D15C
:102A9000022070BD012084F8780300BF3146206811
:102AA00003F0CEF800BF002084F8780300BF00BF19
:102AB000EFE770B504460D4605F08000802808D188
:102AC00005F07F00C0EBC00104F1300000EB81068F
:102AD00005E0C5EBC50104F5EA7000EB81060020B6
:102AE000B07005F07F003070C5F3C010707000BF8B
:102AF00094F87803012801D1022070BD012084F8E8
:102B0000780300BF3146206803F0DCFA00BF0020E4
:102B100084F8780300BF00BFEFE7024601F07F00B2
:102B2000C0EBC00302F5EA7000EB8300008B80B2BB
:102B300070472DE9F04705460E4690461F464FF078
:102B4000000906F08000802808D106F07F00C0EB65
:102B5000C00105F1300000EB810407E006F07F00C2
:102B6000C0EBC00105F5EA7000EB810406F07F00C0
:102B7000207006F08000C0096070C4F80880E7701B
:102B8000607808B12078E080022F01D10020207108
:102B900000BF95F87803012802D10220BDE8F08734
:102BA000012085F8780300BF2146286802F066FFFF
:102BB00000BF002085F8780300BF4846EEE72DE906
:102BC000F04104460E461746984606F07F00C0EBDB
:102BD000C00104F5EA7000EB8105EF60C5F81480D0
:102BE0000020A861687006F07F0028702069012825
:102BF00000D12F6100BF94F87803012802D1022090
:102C0000BDE8F081012084F8780300BF06F07F0062
:102C100028B9227C2946206803F05AF904E0227C76
:102C20002946206803F0D8FA00BF002084F8780312
:102C300000BF00BFE4E770B504460D4605F0800014
:102C4000802808D105F07F00C0EBC00104F13000FE
:102C500000EB810605E0C5EBC50104F5EA7000EB69
:102C600081060120B07005F07F003070C5F3C01000
:102C7000707000BF94F87803012801D1022070BD64
:102C8000012084F8780300BF3146206803F05EFA23
:102C900005F07F0028B9217C04F55F72206803F0FD
:102CA000EFF900BF002084F8780300BF00BFE6E71B
:102CB0002DE9F04104460E461746984606F07F007F
:102CC000C0EBC00104F1300000EB8105EF60C5F8F6
:102CD00014800020A8610120687006F07F00287031
:102CE0002069012800D12F6100BF94F878030128E2
:102CF00002D10220BDE8F081012084F8780300BFF2
:102D000006F07F0028B9227C2946206803F0E0F80D
:102D100004E0227C2946206803F05EFA00BF002010
:102D200084F8780300BF00BFE4E72DE9F84F0446BC
:102D300026684FF0000AD346D046002500200090B8
:102D40000027206803F008FC002867D1206803F002
:102D50003BFC08B9BDE8F88F206803F035FC00F0B3
:102D60000200022801D121684861206803F02CFC90
:102D700000F40020B0F5002F7CD10025206803F07E
:102D8000F9FB834673E00BF0010000286CD0E9B238
:102D9000206803F00EFC804608F00100E8B3012132
:102DA00006F5306000EB45108160206901282BD1C9
:102DB000C5EBC50104F5EA7000EB8100816806F5FA
:102DC000306000EB45100069C0F31200091AC5EB32
:102DD000C50204F5EA7000EB82008161C5EBC50114
:102DE00004F5EA7000EB8100C5EBC502C16804F58B
:102DF000EA7000EB820080680144C5EBC50204F56F
:102E0000EA7000EB8200C160E9B22046FFF705FEE0
:102E10002069012811D105B901E00EE01DE2C5EBE2
:102E2000C50104F5EA7000EB8100406928B904F59A
:102E30005F720121206803F023F908F008000828D8
:102E400008D1204600F052FB082106F5306000EB67
:102E50004510816008F01000102805D1102106F5FA
:102E6000306000EB451081606D1C4FEA5B0BBBF1DD
:102E7000000F88D1206803F0A7FB00F48020B0F594
:102E8000802F7ED1206803F06CFB8346002583E011
:102E90000BF0010000287CD0E9B2206803F073FB3E
:102EA000804608F00100F0B30120A840009040F6F1
:102EB000340080590099884340F63401885101213B
:102EC00006F5106000EB451081602069012815D1DE
:102ED000C5EBC50104F1300000EB8100C5EBC50274
:102EE000C16804F1300000EB820080680144C5EB4A
:102EF000C50204F1300000EB8200C160E9B2204657
:102F0000FFF77BFD2069012810D165B9C5EBC5012C
:102F100004F1300000EB8100406920B904F55F72D4
:102F20000121206800E001E003F0AAF808F00800A1
:102F3000082805D1082106F5106000EB45108160D6
:102F400008F01000102805D1102106F5106000EBE4
:102F50004510816008F04000402805D1402106F569
:102F6000106000EB4510816008F00200022805D1D6
:102F7000022106F5106000EB4510816008F080002A
:102F800001E00DE005E0802803D12946204601F04C
:102F90006FF86D1C4FEA5B0BBBF1000F7FF478AF4D
:102FA000206803F011FB00F00040B0F1004F0ED19B
:102FB00040F60400805920F0010140F604008151E0
:102FC000204600F06CFA4FF000402168486120680C
:102FD00003F0FAFA00F40060B0F5006F0CD140F68F
:102FE0000800805900F0010010B1204600F0A1FA5D
:102FF0004FF4006021684861206803F0E5FA00F4AE
:103000008050B0F5805F5AD140F60400805920F01E
:10301000010140F6040081510021206803F062FAAA
:103020004FF0000A0CE0FF2106F5106000EB4A109B
:10303000816006F5306000EB4A1081600AF1010AF8
:1030400060685045EFD84FF0FF3140F618008151CD
:10305000001D805940F0011140F61C008151A06A0A
:1030600070B1D6F8840840F00B01C6F8841840F619
:103070004400805940F00B0140F6440081510EE0BD
:1030800040F61400805940F00B0140F614008151C5
:10309000001F805940F00B014FF401608151D6F8B8
:1030A000000820F4FE60C6F80008217C04F55F7279
:1030B000206802F0E5FF4FF48050216848612068E5
:1030C00003F082FA00F40050B0F5005F29D12068C7
:1030D00002F036FD2068C06820F470502168C86096
:1030E000206803F017FA58B90021E1604FF400712D
:1030F00061612068C06840F410502168C86009E030
:103100000321E160402161612068C06840F4A05063
:103110002168C860204600F0A9F94FF400502168EA
:103120004861206803F050FA00F01000102843D1E5
:103130002068806920F0100021688861376A07F0F4
:103140000F00C0EBC00104F5EA7000EB8109C7F382
:103150004340022819D147F6F070384030B3C7F326
:103160000A123046D9F80C1003F034FAC7F30A11EA
:10317000D9F80C000844C9F80C00C7F30A11D9F8B3
:1031800018000844C9F8180010E0C7F343400628A7
:103190000CD1082204F55F71304603F01BFAC7F327
:1031A0000A11D9F818000844C9F818002068806985
:1031B00040F0100021688861206803F005FA00F0F3
:1031C0000800082805D1204600F070F90820216881
:1031D0004861206803F0F8F900F48010B0F5801F12
:1031E00007D1E9B2204600F03AF84FF48010216888
:1031F0004861206803F0E8F900F40010B0F5001F02
:1032000007D1E9B2204600F033F84FF400102168EE
:103210004861206803F0D8F900F08040B0F1804F99
:1032200006D12046FFF7E2FB4FF08040216848615D
:10323000206803F0C9F900F0040004280DD12068CB
:10324000476807F00400042802D12046FFF7F5FB89
:103250002068406838432168486000BF7AE570B54F
:1032600004460D462946D4F8AC0302F055F970BD6A
:1032700070B504460D462946D4F8AC0302F04FF968
:1032800070BD30B589B00446002514B9012009B0DD
:1032900030BD032084F87903204600F093F82068BD
:1032A00002F00EFE202204F110016846FCF7E6FF52
:1032B00094E80F0002F066FC0021206803F09EF9FC
:1032C000002530E00121C5EBC50204F1300000EB20
:1032D00082004170C5EBC50204F1300000F82250B5
:1032E000C5EBC50200EB8200C5800021C5EBC5021D
:1032F00004F1300000EB8200C170C5EBC50204F19F
:10330000300000EB82008160C5EBC50204F13000A3
:1033100000EB8200C160C5EBC50204F1300000EB98
:10332000820041616D1C0F2DCCD3002536E00021B9
:10333000C5EBC50204F5EA7000EB82004170C5EBF5
:10334000C50204F5EA7000F82250C5EBC50204F18D
:10335000300000EB8200C580C5EBC50204F5EA70C1
:1033600000EB8200C170C5EBC50204F5EA7000EB0A
:1033700082008160C5EBC50204F5EA7000EB8200B3
:10338000C160C5EBC50204F5EA7000EB8200416143
:10339000206800F5827040F825106D1C0F2DC6D3F3
:1033A000202204F110016846FCF768FF94E80F0042
:1033B00002F0B8FC012084F87903206802F0A3FC35
:1033C000002064E710B586B004462068B0F1A04F35
:1033D00044D12348006840F00100214908600846B4
:1033E000006840F00400086000BF081D006840F05D
:1033F0008000091D08601A481430006840F48040BD
:1034000017491431086000BF01200190029000208C
:103410000390049001A91348FFF7F6F84FF40070E9
:10342000019000200290039001A90F48FFF7ECF8EB
:103430004FF4E0500190022002900020039004908D
:103440000A20059001A90848FFF7DEF800220521AF
:103450004320FFF74AFA4320FFF73AFA06B010BDBF
:1034600030380240000802400000024070B50446B7
:103470000125E06810B1022804D101E0002503E035
:10348000012501E0012500BF00BF2946D4F8AC03A7
:1034900002F0A2F8D4F8AC0302F064F870BD10B5E5
:1034A0000446D4F8AC0302F07FF810BD10B5044612
:1034B000D4F8AC0302F07FF810BD70B504460D4699
:1034C00000BF94F87803012801D1022070BD0120CB
:1034D00084F8780300BF2946206803F0A7F800BFEE
:1034E000002084F8780300BF00BFEFE710B5044662
:1034F00004F55F71D4F8AC0302F07CF810BD10B590
:10350000044600BF94F87803012801D1022010BDC1
:10351000012084F8780300BF206802F0E5FB2068F2
:1035200002F0C2FF00BF002084F8780300BF00BF94
:10353000EDE710B50446D4F8AC0302F0A4F810BDD2
:1035400070B504460D4600269048006800F00F0054
:10355000A8427ED28D490D700846006800F00F0029
:10356000A84201D0012070BD207800F0020002289E
:1035700007D18748006820F0F000A168084384491B
:103580000860207800F0010000283BD06068012826
:1035900007D17F4808380068C0F34040A0B9012037
:1035A000E1E76068022807D1794808380068C0F36D
:1035B000406048B90120D6E7754808380068C0F374
:1035C000400008B90120CEE77148006820F00300F0
:1035D000616808436E490860FFF724F90646606891
:1035E000012810D108E0FFF71DF9801B41F2883156
:1035F000884201D90320B6E76548006800F00C0056
:103600000428F0D1A2E06068022810D108E0FFF79A
:1036100009F9801B41F28831884201D90320A2E7D1
:103620005B48006800F00C000828F0D18EE009E04B
:10363000FFF7F8F8801B41F28831884202D9032055
:1036400091E706E05248006800F00C000028EFD136
:103650007CE0207800F00200022807D14C48006886
:1036600020F0F000A168084349490860207800F084
:103670000100002860D06068012807D1444808385C
:103680000068C0F34040A0B901206CE760680228E0
:1036900007D13F4808380068C0F3406048B90120AE
:1036A00061E73B4808380068C0F3400008B90120D2
:1036B00059E73748006820F003006168084334493F
:1036C0000860FFF7AFF806466068012810D108E0EF
:1036D000FFF7A8F8801B41F28831884201D9032006
:1036E00041E72B48006800F00C000428F0D123E0EB
:1036F0006068022810D108E0FFF794F8801B41F2BF
:103700008831884201D903202DE72148006800F064
:103710000C000828F0D10FE008E0FFF783F8801BC9
:1037200041F28831884201D903201CE7184800681B
:1037300000F00C000028F0D114490D700846006814
:1037400000F00F00A84201D001200CE7207800F023
:103750000400042807D10E48006820F4E050E16816
:1037600008430B490860207800F00800082808D1B9
:103770000748006820F46040216940EAC10004491C
:1037800008600020FFF77AF80020ECE6003C0240D9
:103790000838024000B500F045F80949096801F011
:1037A000F001F02292FAA2F2B2FA82F2D140054A76
:1037B000515CC840044908600846006800BD00002C
:1037C000083802400D9C00086C01002000B5FFF78E
:1037D000E1FF0749096801F4E0514FF4E05292FA21
:1037E000A2F2B2FA82F2D140024A515CC84000BD56
:1037F000083802400D9C000800B5FFF7CBFF0749D1
:10380000096801F460414FF4604292FAA2F2B2FA00
:1038100082F2D140024A515CC84000BD08380240E3
:103820000D9C000870B500210022002300202B4CC5
:10383000246804F00C0424B1042C04D0082C48D1D2
:1038400003E0274847E0274845E0244C241F24682C
:1038500004F03F01214C241F246804F480044FF439
:10386000800595FAA5F5B5FA85F5EC4084B11D4CB7
:10387000B4FBF1F5194C241F246847F6C076344098
:1038800096FAA6F6B6FA86F6F44005FB04F20FE0C7
:10389000134CB4FBF1F5114C241F246847F6C07695
:1038A000344096FAA6F6B6FA86F6F44005FB04F222
:1038B0000A4C241F246804F440344FF4403595FA30
:1038C000A5F5B5FA85F5EC40641C6300B2FBF3F096
:1038D00001E0034800BF00BF70BD0000083802408F
:1038E0000024F40000127A0070B504460025207808
:1038F00000F00100002867D0F648006800F00C00D6
:1039000004280DD0F348006800F00C00082813D1FB
:10391000F048001F006800F48000B0F5800F0BD164
:10392000EC4808380068C0F3404000284CD060687C
:10393000012849D0012070BD0020E649891F087088
:10394000FEF770FF054608E0FEF76CFF401B41F2F2
:103950008831884201D90320EDE7DE480838006845
:10396000C0F340400028EFD12079DA49891F087060
:103970006068012814D1FEF755FF054608E0FEF700
:1039800051FF401B41F28831884201D90320D2E720
:10399000D04808380068C0F340400028EFD013E05A
:1039A000FEF740FF054608E0FEF73CFF401B41F2F2
:1039B0008831884201D90320BDE7C648083800682D
:1039C000C0F340400028EFD1207800F00200022828
:1039D00069D1C048006800F00C0058B1BD480068CB
:1039E00000F00C00082821D1BA48001F006800F43C
:1039F0008000D8B9B74808380068C0F3400020B14B
:103A0000E068012801D0012095E7B2480838006835
:103A100020F0F800F82292FAA2F2B2FA82F22169BA
:103A200091400843AB49083908603CE0E06828B39E
:103A30000120A9490860FEF7F5FE054606E0FEF7FD
:103A4000F1FE401B642801D9032074E7A14808381F
:103A50000068C0F340000028F1D09E480838006894
:103A600020F0F800F82292FAA2F2B2FA82F221696A
:103A70009140084397490839086014E000209649AE
:103A80000860FEF7CFFE054606E0FEF7CBFE401BC2
:103A9000642801D903204EE78E4808380068C0F337
:103AA00040000028F1D1207800F0080008282CD12F
:103AB0006069A8B1012089490860FEF7B3FE054698
:103AC00006E0FEF7AFFE401B642801D9032032E771
:103AD00080486C300068C0F340000028F1D014E04A
:103AE00000207E490860FEF79DFE054606E0FEF7D1
:103AF00099FE401B642801D903201CE775486C30EF
:103B00000068C0F340000028F1D1207800F00400E4
:103B1000042866D16F483830006840F080506D4905
:103B2000383108606E48006840F480706C49086065
:103B3000FEF778FE054606E0FEF774FE401B64289B
:103B400001D90320F7E66648006800F48070002879
:103B5000F2D000205F4968310870FEF763FE054629
:103B600008E0FEF75FFE401B41F28831884201D930
:103B70000320E0E6574868300068C0F340000028A2
:103B8000EFD1207A534968310870A068012814D118
:103B9000FEF748FE054608E0FEF744FE401B41F2F2
:103BA0008831884201D90320C5E64A486830006858
:103BB000C0F340000028EFD013E0FEF733FE0546C7
:103BC00008E0FEF72FFE401B41F28831884201D900
:103BD0000320B0E63F4868300068C0F3400000288A
:103BE000EFD1A069F0B33B48006800F00C00082852
:103BF0006BD0A069022852D1002037490866FEF731
:103C000011FE054606E0FEF70DFE401B642801D9B3
:103C1000032090E62F4808380068C0F34060002871
:103C2000F1D1206A40F0005047F6C07292FAA2F239
:103C3000B2FA82F2616A914008430122A16AC2EBA2
:103C400051014FF4403292FAA2F2B2FA82F291405C
:103C50000843E16908434FF0706292FAA2F2B2FAA7
:103C600082F200E033E0E16A914008431949091FFC
:103C70000860012018490866FEF7D4FD054606E0F5
:103C8000FEF7D0FD401B642801D9032053E61148FC
:103C900008380068C0F340600028F1D017E0002029
:103CA0000D490866FEF7BEFD054606E0FEF7BAFDC3
:103CB000401B642801D903203DE606480838006807
:103CC000C0F340600028F1D101E0012033E600207C
:103CD00031E600000838024000004742800E4742AB
:103CE0000070004070B504462546681EB0F1807F24
:103CF00001D301200FE0681E4FF0E02148610F2141
:103D00004FF0FF3000F096F900204FF0E02188617D
:103D100007200861002070BD024600BF92F83800FD
:103D2000012801D102207047012082F8380000BF2D
:103D3000022082F839001068406820F07000136893
:103D40005860106840680B68184313685860106822
:103D5000806820F0800013689860106880684B6865
:103D6000184313689860012082F8390000BF0020D2
:103D700082F8380000BF00BFD5E710B504460CB983
:103D8000012010BD94F8390010B9204600F00CF85D
:103D9000022084F83900211D206800F0D5FC0120A4
:103DA00084F839000020ECE7054A0168914205D10A
:103DB0000449096841F00201024A1160704700009D
:103DC00000040040403802400146022081F83900DA
:103DD0000868006840F001000A681060012081F85E
:103DE0003900002070470146022081F8390000BFE9
:103DF0000868006A41F21112104050B90868006A60
:103E00009210104028B90868006820F001000A6884
:103E1000106000BF012081F839000020704710B504
:103E200004460CB9012010BDA06900B100E000BF3C
:103E300094F8390010B9204600F026F8022084F8E2
:103E400039002068C06820F400502168C86020460E
:103E500000F048FD2068006920F490402168086166
:103E60002068406920F02A00216848612068C06805
:103E700040F400502168C860002084F83A00012016
:103E800084F839000020CEE710B586B00446154905
:103E90002068884223D11448006840F40030124959
:103EA00008600C2001900220029001200390022063
:103EB00004900720059001A90C48FEF7A5FB0948CE
:103EC0000C30006840F0200006490C3108600022E8
:103ED00006212620FEF709FD2620FEF7F9FC06B094
:103EE00010BD000000440040403802400000024085
:103EF00010B50020FCF712FE10BD10B50020FCF735
:103F00001DFE10BD1FB51248124908600020486010
:103F1000114801680F48816000210161816141629F
:103F20004FF08051C162491001630021C16001213D
:103F30000162C1614161FDF77BF90B200090012016
:103F400001900020029069460248FDF7AFF81FBDBE
:103F500000200140440E0020480000200548006871
:103F600040F48000034908600846006840F40010EF
:103F7000086070473038024010B50020FCF7A2FD01
:103F800010BD00001CB50C480C49086000204860BA
:103F900000210A4881604FF40061C1600021016185
:103FA000FFF7EBFE202000900020019069460348B7
:103FB000FFF7B2FE1CBD000000040040080E002008
:103FC00010B50948094908604FF4E1304860002104
:103FD00006488160C16001610C214161002181615D
:103FE000C161FFF71CFF10BD00440040D80E002047
:103FF00010B500220749084801F055F9074906485D
:1040000001F06FFB0649044800F09AFE024801F0F7
:1040100031FC10BD14000020340600205C0000209C
:104020000400002002480068C0F30220704700002E
:104030000CED00E010B5002807DA0A07140E054A57
:1040400000F00F031B1FD45403E00A07130E024AAB
:10405000135410BD18ED00E000E400E010B543205B
:10406000FEF728FC0148FEF760FE10BD580A00204C
:104070002DE9F84F07460E46D7F800800025AA46DE
:10408000C6EBC60107F1300000EB8104D4E905015D
:10409000451AA068A84200D2A568E81CC11700EB29
:1040A00091714FEAA1091AE0D4E90501451AA06807
:1040B000A84200D2A568E81CC11700EB91714FEA35
:1040C000A109387CABB2F2B200904046E16802F040
:1040D000C7FAE0682844E060A0692844A06108F5B8
:1040E000106000EB4610806980B2484506D9D4E9DB
:1040F0000510884202D260690028D5D1002D0CDC61
:10410000012000FA06FA40F6340050F8080020EAD0
:104110000A0040F6340141F808000020BDE8F88F9D
:1041200086B000F00DFB002214210A2005F0B9F83A
:1041300040490860042005F089F83F49086004F010
:10414000E5FA76E000235A1E01A93A48006805F016
:10415000D6F84FF0FF313848006805F0ACFA9DF80A
:104160000400322806D13548007F18B106203349B3
:1041700008775AE09DF8040033281CD12F48007FAF
:10418000052852D02D48007F00284ED004F016FAA2
:1041900004F024FA2948007F062846D02748007FEB
:1041A000042842D0012025490877002024490860CE
:1041B00004F008FA39E09DF8040034281ED11F48A5
:1041C000007F01281AD01D48007F022816D01B4806
:1041D000007F032812D01948007F04280ED004F075
:1041E000FDF901201549087704F0ECF900235A1E67
:1041F00014A11648006805F05EF916E09DF8040069
:10420000352805D104F0DAF900200C4908770CE0D4
:104210009DF80400362808D10848007F062804D1FC
:1042200004F0D0F90120054908770348006805F03B
:1042300025FA87E7EC01002004020020D41C0120AD
:1042400018020020534D504C00000000E4010020F3
:10425000B7E1DC48007F012807D0DA48007F022858
:1042600003D0D848007F03287ED14FF0FF31D648D5
:10427000006805F020FAD5480068D5490860D149A2
:1042800091F82C00FCF7D6FECE49896A081ACF496E
:104290000860CC48806A09680844401EC949896A98
:1042A000B0FBF1F201FB1200CA490860C548007F6B
:1042B000012866D1C348C08A082812DCC14890F89A
:1042C0002C00401EBF49203151F82000C149096827
:1042D000490830F81100C049088008460078088075
:1042E0000DE0B84890F82C00401EB649203151F836
:1042F0002000B849096830F81100B749088004F077
:10430000D9FCB34A128891B2B04A128890B204F034
:1043100045F9B24909680844B04908600846006890
:10432000AF49096888422BD9A648007C30B9AA4811
:1043300000881030AB490988884217DBA148007C0F
:10434000012806D1A44800881038A6490988884267
:104350000CDC9C48407C012812D19A48C0689F49D7
:104360000968B1EB800F00E029E1DCD90220954912
:1043700008770023C21E9CA19D48006805F09BF8A9
:1043800018E19048007F022867D1914A128891B2C3
:104390008E4A128890B204F001F9904909680844E5
:1043A0008E4908608748C08A082812DC854890F842
:1043B0002C00401E8349203151F8200085490968AE
:1043C000490830F8110084490880084600780880C0
:1043D0000DE07C4890F82C00401E7A49203151F8BD
:1043E00020007C49096830F811007B49088004F0FE
:1043F00061FC7448007C28B97748008879490988AD
:10440000884214DC6F48007C012805D1724800887E
:104410007449098888420ADB6A48407C0128AFD188
:104420006848C0686D490968B1EB800FA8D96B482E
:1044300000687049086000206849086003206149ED
:104440000877644800686C49086000235A1E6BA115
:104450006748006805F02FF8ACE05A48007F032851
:104460008ED15B4A128891B2584A128890B204F0F9
:1044700095F85A4909680844584908605148007F2E
:104480000328E9D1084600685E4909688842E3D3F9
:1044900004F094F84B48407C012867D04948C08A12
:1044A000082830DD4748007CB0B904E05248006875
:1044B000401E51490860434890F82C00401E414975
:1044C000203151F820004C49096830F81100454965
:1044D00009888842EADC44E004E047480068401E5E
:1044E00045490860374890F82C00401E3549203176
:1044F00051F820004049096830F81100394909880D
:104500008842EADB2DE02F48007CA8B904E03A4855
:104510000068401E384908602A4890F82C00401E68
:104520002849203151F8200033490968405C2D4961
:1045300009888842EBDC14E004E02F480068401E44
:104540002D4908601F4890F82C00401E1D4920315D
:1045500051F8200028490968405C224909888842AE
:10456000EBDB25480068401C2349086022480068AE
:1045700014494860042008771E48006822490860F2
:1045800016480068214908601F4800680968084407
:10459000B0F5801F02D300201049086000200F49A9
:1045A0000860144908600023421E19A110480068E1
:1045B00004F081FF0448006805F060F801E004F0B1
:1045C0006DFC46E6D41C01200402002008020020F5
:1045D0000C0200201002002014020020180200200B
:1045E00000020020F8010020534D504C0000000054
:1045F000E40100201C020020F4010020545249472D
:1046000000000000FC010020200200202402002005
:10461000314461746152656164795F5F000000003C
:1046200000BF4FF4C87003F0B3F9FFF766FC282011
:1046300003F0AEF9FFF75CFCF3E710B505F03AF9CB
:1046400008B104F0F3FDFEF7F3F810BD00B591B02A
:104650001848006840F08050164908601648006805
:1046600040F4404014490860012005900690022063
:104670000B9041050C9108210D914FF4A8710E91FA
:1046800004210F910721109105A8FFF72DF90D20A6
:10469000009002200190002002904FF4A05003905F
:1046A0004FF48050049005216846FEF749FF11B091
:1046B00000BD00004038024000700040144800680F
:1046C00040F47000124908601248006840F0010090
:1046D0001049086000200F49083108600D48006843
:1046E0000D4908400B4908600C48091D0860081F67
:1046F000006820F48020091F0860002005490C3163
:1047000008604FF00060024980390860704700007F
:1047100088ED00E000380240FFFFF6FE1030002474
:1047200010B50248FFF75FFB10BD0000080E002027
:1047300010B50248FFF748FB10BD0000080E00202E
:1047400010B5FFF71FFC10BD00220268234B9842F2
:104750000BD0B0F1804F08D0214B984205D0214BAF
:10476000984202D0204B984201D1012300E000235F
:104770001BB122F070024B681A43184B984214D0B8
:10478000B0F1804F11D0164B98420ED0154B984285
:104790000BD0154B984208D0144B984205D0144BBF
:1047A000984202D0134B984201D1012300E000232C
:1047B0001BB122F44072CB681A4302608B68C3625B
:1047C0000B688362054B984201D1012300E000236E
:1047D0000BB10B6903630123436170470000014083
:1047E0000004004000080040000C00400040014070
:1047F00000440140004801402DE9F05F80460F462B
:1048000091464FF0000A4FF0FF0BFEF7F5FF400016
:10481000B0FBF8F0401C440814B94FF06C0B45E0B5
:10482000B4F5803F04DA0025601E86B2AB463DE059
:104830004FF0FF3213464FF6FF7C0CEA244018E09D
:1048400000F1010C1FFA8CF094FBF0FC1FFA8CF1C4
:1048500001FB10429A4201D2134682464FF6FF7C7A
:10486000604506D1B4FBFAFC1FFA8CF11FFA8AF0FE
:1048700001E0002AE4D100BF884208DDA1F1010C6B
:104880001FFA8CF5A0F1010C1FFA8CF607E0A0F1DD
:10489000010C1FFA8CF5A1F1010C1FFA8CF612B174
:1048A0004FF06B0B01E04FF0000B00BFFEF7A4FFD1
:1048B0000146681C721C5043B1FBF0F0C9F80000BF
:1048C0007D60FE603846FFF758FA5846BDE8F09F15
:1048D00010B50446002202492046FFF78DFF10BDA7
:1048E000080E00202DE9F04104460025A06900B122
:1048F00000BF2068056925F44055E068054320683D
:1049000005612068C56849F20C6085432169A0688B
:10491000084361690843E169084305432068C560AD
:104920002068456925F44075A06905432068456104
:10493000E069B0F5004F72D172492068884203D017
:1049400071492068884234D1FEF756FF00EBC00160
:1049500001EB001061684900B0FBF1F06421B0FB8D
:10496000F1F6FEF749FF00EBC00101EB00106168B2
:104970004900B0FBF1F7FEF73FFF00EBC00101EB90
:10498000001061684900B0FBF1F06421B0FBF1F068
:1049900000EBC00101EB0010A7EB8000322101EB1E
:1049A00000106421B0FBF1F066F31F1021688860ED
:1049B000A6E0FEF70BFF00EBC00101EB0010616801
:1049C0004900B0FBF1F06421B0FBF1F6FEF7FEFE0A
:1049D00000EBC00101EB001061684900B0FBF1F78A
:1049E000FEF7F4FE00EBC00101EB00106168490026
:1049F000B0FBF1F06421B0FBF1F000EBC00101EB82
:104A00000010A7EB8000322101EB00106421B0FB05
:104A1000F1F066F31F102168886071E0FFE7394903
:104A20002068884203D038492068884234D1FEF794
:104A3000E3FE00EBC00101EB001061688900B0FBF0
:104A4000F1F06421B0FBF1F6FEF7D6FE00EBC001F9
:104A500001EB001061688900B0FBF1F7FEF7CCFEB6
:104A600000EBC00101EB001061688900B0FBF1F0C0
:104A70006421B0FBF1F000EBC00101EB0010A7EBEB
:104A80008000322101EB00106421B0FBF1F066F3ED
:104A90001F102168886033E0FEF798FE00EBC0012C
:104AA00001EB001061688900B0FBF1F06421B0FBFC
:104AB000F1F6FEF78BFE00EBC00101EB0010616820
:104AC0008900B0FBF1F7FEF781FE00EBC00101EBBE
:104AD000001061688900B0FBF1F06421B0FBF1F0D7
:104AE00000EBC00101EB0010A7EB8000322101EBCD
:104AF00000106421B0FBF1F066F31F10216888609C
:104B0000BDE8F081001001400014014010B50246DC
:104B10000B4604E012F8010B00F006F85B1E002BB8
:104B2000F8D1002010BD000000BF0549096801F060
:104B300080010029F9D00249091D08607047000072
:104B40000044004010B505480068C4B2204602F099
:104B500099FD2620FDF7AEFE10BD00000444004084
:104B600002460B46D2F81812D2F8180218B10020EB
:104B7000C1F8140170470220FCE770B504460E46E8
:104B8000D4F818523146204600F06EFCC5F80C01EE
:104B9000D4F8180248B1D5F80401D4F81C12CA6838
:104BA00005F586719047002070BD0220FCE770B5C6
:104BB00004460E4600258121204600F097FB012186
:104BC000204600F093FB8221204600F08FFBD4F8B2
:104BD000180250B1D4F81C1248688047D4F8180263
:104BE00002F0DEFD0020C4F81802284670BD70B542
:104BF0000546D5F81842D5F81C0278B194F80001A2
:104C0000FF280BD094F8012194F80001D5F81C126C
:104C10008B6821469847FF2084F80001002070BD72
:104C200001460A200880014870470000500000201B
:104C3000014643200880014870470000D80000204A
:104C4000014643200880014870470000940000207E
:104C50000146432008800148704700001C010020E5
:104C60002DE9F04104460F460026207C70B94FF430
:104C7000807302228121204600F054FC4FF480739F
:104C800002220121204600F04DFC0BE040230222CD
:104C90008121204600F046FC4023022201212046CB
:104CA00000F040FC082303228221204600F03AFC59
:104CB0004FF48E7002F036FEC4F81802D4F81802D1
:104CC00008B901261CE0D4F81852D4F81C12086860
:104CD00080470020C5F81401C5F81801207C40B9B0
:104CE0004FF4807301212046D5F8042100F02AFCFE
:104CF00006E0402301212046D5F8042100F022FCE3
:104D00003046BDE8F08170B50446D4F81852D4F8A6
:104D1000180298B1207C40B94FF4807301212046DD
:104D2000D5F8042100F00EFC06E0402301212046C6
:104D3000D5F8042100F006FC002070BD0220FCE73D
:104D40000246022011B1C2F81C1200207047024630
:104D5000D2F81832C3F804110020704710B503468A
:104D6000D3F81842C4F80811C4F81021002010BD6F
:104D700070B505460C46D5F81862207800F0600042
:104D8000202826D1E088E0B1207800F0800060B1D2
:104D9000E2886078D5F81C128B6831469847E28823
:104DA0003146284600F0A7F812E0607886F8000146
:104DB000A07986F80101E2883146284600F07AF8A9
:104DC00006E06078D5F81C1200228B6811469847DF
:104DD00000E000BF00BF002070BD70B50546D5F8EB
:104DE0001842D5F8180290B1D4F8140168B901201E
:104DF000C4F81401B4F8100183B281212846D4F814
:104E0000082100F04AFC002070BD0120FCE70220D0
:104E1000FAE770B504460D46D4F8140229464268F4
:104E200020469047002070BD70B504460D4694F8AA
:104E3000FC01022802D0032811D100E000BF6888DD
:104E400001280BD10020C4F80402D4F8140229462A
:104E5000826820469047204600F05EF804E029462C
:104E6000204600F01BF800BF00BF70BD70B50646BD
:104E70000C4615462B4622460021304600F062FBC8
:104E8000002070BD70B506460C4615462B462246DE
:104E90000021304600F001FC002070BD70B50446D2
:104EA0000D468021204600F0DCFB0021204600F06A
:104EB000D8FB70BD70B504460E4615460320C4F8F5
:104EC000F4014FF484700551001D05512B46324604
:104ED0000021204600F036FB002070BD10B50446CE
:104EE0000520C4F8F40100231A461946204600F0B4
:104EF00029FB002010BD70B504460E461546022061
:104F0000C4F8F401A561E5612B4632460021204634
:104F100000F0C3FB002070BD10B504460420C4F8A7
:104F2000F40100231A461946204600F0B6FB002083
:104F300010BD000070B505460C462DB92246064945
:104F400006A000F087F904E02246034903A000F020
:104F500081F9014870BD00005808002043444320F7
:104F6000436F6E66696700000246122008800148A0
:104F7000704700003000002070B505460C462DB982
:104F80002246064906A000F065F904E022460349DE
:104F900003A000F05FF9014870BD00005808002030
:104FA00043444320496E7465726661636500000086
:104FB0000246042008800148704700004400002099
:104FC00070B505460C462246024903A000F042F99E
:104FD000004870BD5808002053544D6963726F65D6
:104FE0006C656374726F6E696373000070B505461B
:104FF0000C462DB92246064906A000F02BF904E024
:105000002246034903A000F025F9014870BD0000C5
:105010005808002053544D3332205669727475611C
:105020006C20436F6D506F727400000070B50546C0
:105030000C462DB92246064906A000F00BF904E003
:105040002246034903A000F005F9014870BD0000A5
:10505000580800203030303030303030303031417E
:105060000000000070B504460D46E888012804D011
:1050700029462046FFF712FF1BE094F8FC010228A6
:1050800002D003280FD108E00020A060012204F123
:1050900008012046FFF72FFF0AE00122211D2046CC
:1050A000FFF729FF04E029462046FFF7F7FE00BF7F
:1050B00000BF70BDF8B504460E467088001208287F
:1050C0007FD2DFE800F07E040C207E7E5F6D207CC6
:1050D000D4F810120A6869469047054676E0207CAD
:1050E00040B9D4F81402816A68468847054602210F
:1050F000697007E0D4F81402C16A6846884705461B
:105100000221697062E0B078062834D2DFE800F04E
:10511000030B131B232B207CD4F810124A6869461A
:10512000904705462CE0207CD4F810128A68694626
:105130009047054624E0207CD4F81012CA686946DE
:10514000904705461CE0207CD4F810120A69694695
:105150009047054614E0207CD4F810124A6969464D
:10516000904705460CE0207CD4F810128A69694605
:105170009047054604E031462046FFF78FFEF8BD14
:1051800000BF23E0207C30B9D4F81402416B68469C
:10519000884705461AE031462046FFF77FFEEEE7D6
:1051A000207C48B9D4F81402016B6846884705464C
:1051B000072169700AE004E031462046FFF76EFEE1
:1051C000DDE731462046FFF769FED8E700BFBDF8AE
:1051D000000088B1F08878B1F088BDF800108842EE
:1051E00002DDBDF8000000E0F0880090BDF800206E
:1051F00029462046FFF77FFE00BFC0E7014600209A
:1052000002E0421CD0B2491C0A78002AF9D170474A
:1052100070B504460D4694F8FC01022802D003281C
:1052200011D100E000BF0120E060D4F8040218B101
:10523000E06840F00200E060022204F10C01204628
:10524000FFF759FE04E029462046FFF727FE00BF7E
:1052500000BF70BD2DE9F04104460D4617460026FB
:10526000FCB12046FFF7CAFF022101EB4000388065
:105270003A783046711CCEB22A5403223046711C53
:10528000CEB22A540AE014F8012B3046711CCEB27B
:105290002A5400223046711CCEB22A5420780028AD
:1052A000F1D1BDE8F08170B504460D4616460CB943
:1052B000022070BDD4F8140210B10020C4F814020A
:1052C0000DB1C4F81052012084F8FC01267020466C
:1052D00000F0D4F80020ECE770B504460D462946EE
:1052E000D4F82002FDF7E5FB002070BD70B5044640
:1052F0000D462946D4F82002FDF7A6FB002070BD1C
:105300002DE9F04104460E461746002E48D104F11F
:105310001405D4F8F401022837D1D5E902018842F6
:105320000AD9D5E90201401AA860288982B2394613
:105330002046FFF7A7FD28E0E9686868B0FBF1F2B6
:1053400001FB120088B9E968686888420DD3686873
:10535000D4F8F811884208D2002211462046FFF7FF
:1053600091FD0020C4F8F8010FE0D4F81402C068E1
:1053700040B194F8FC01032804D1D4F81402C168A8
:10538000204688472046FFF7A9FD94F8000201282F
:1053900014D1204600F0ADF9002084F800020DE0A1
:1053A000D4F81402406948B194F8FC01032805D1EF
:1053B000D4F8140231464269204690470020BDE8E7
:1053C000F0812DE9F04105460E4617465EBB05F516
:1053D0008274D5F8F401032833D1D4E9020188425C
:1053E00010D9D4E90201401AA060D4E90201884230
:1053F00001D2A06800E0E06882B239462846FFF793
:1054000035FD1EE0D5F81402006940B195F8FC01A5
:10541000032804D1D5F81402016928468847284694
:10542000FFF77AFD0DE0D5F81402806948B195F8D0
:10543000FC01032805D1D5F81402314682692846BB
:1054400090470020BDE8F08101460020704710B56C
:105450000446012084F8FC012179D4F81402426842
:1054600020469047002010BD70B504460D462946E1
:10547000D4F82002FDF751FB70BD000010B50446C2
:105480002078002828D11548C0F8AC43C4F8200281
:105490004FF0A040114908600720486002210F48E2
:1054A000C160002101614161022181610021C1616E
:1054B000016241628162C162FDF7E3FE802107481B
:1054C000FDF766FA402200210448FDF766FA8022C3
:1054D00001210248FDF761FA002010BD580A0020A2
:1054E00010B50246D2F8203201F08000802809D1A0
:1054F00001F07F00C0EBC00403F1300000EB84003A
:10550000807810BD01F07F00C0EBC00403F5EA70A5
:1055100000EB84008078F4E70246002070470246E2
:10552000002070472DE9F04104460F4615461E46FF
:105530002B4632463946D4F82002FDF7FAFA00200D
:10554000BDE8F0812DE9F04104460D4616461F46A0
:105550003B4632462946D4F82002FDF730FB0020B6
:10556000BDE8F08110B504464023002211462046D4
:10557000FFF7D8FF40214FF48870015140230022EB
:1055800080212046FFF7CEFF40212162012084F8D0
:10559000FC01D4F8180228B12179D4F81402426829
:1055A00020469047002010BD014691F8FD0181F88A
:1055B000FC010020704710B5044694F8FC01032854
:1055C00008D1D4F81402C06920B1D4F81402C1691A
:1055D00020468847002010BD024611740020704705
:1055E00070B504460D462946D4F82002FDF765FF44
:1055F000002070BD70B504460D46294604F50270C2
:1056000000F05BF80120C4F8F40140F20E20005BCA
:10561000C4F8F80194F8080200F01F0020B1012836
:1056200008D0022812D10BE004F50271204600F0E8
:1056300028F913E004F50271204600F0F9F90DE0B5
:1056400004F50271204600F055F907E094F80802CD
:1056500000F08001204600F004F800BF00BF0020E9
:1056600070BD70B504460D462946D4F82002FDF7FA
:10567000E2FA002070BD10B50446D4F82002FDF710
:105680003EFF002010BD014691F8FC0181F8FD01AC
:10569000042081F8FC01002070472DE9F041044608
:1056A0000D4616461F463B4632462946D4F8200290
:1056B000FDF7FEFA0020BDE8F0810A7802704A7812
:1056C00042708B78CA7803EB022242800B794A79C8
:1056D00003EB022282808B79CA7903EB0222C2801B
:1056E00070470246002011B1C2F8141200E00220F7
:1056F000704701460020704770B504460D46A888E3
:10570000F8B9E888E8B9A87800F07F0694F8FC01B9
:10571000032804D129462046FFF7C0FB15E084F892
:10572000FE6131462046FFF75BFF2046FFF7F4FBA2
:105730001EB1022084F8FC0107E0012084F8FC017E
:1057400003E029462046FFF7A9FB70BD70B504466B
:105750000D460226D4F8140238B1D4F814022946B2
:1057600002682046904700B90026304670BD000010
:1057700070B504460D46A87834490870084600788C
:10578000012804DD29462046FFF788FB5BE094F8FA
:10579000FC01022802D003284FD11CE02B480078DE
:1057A000A8B12A4800786060032084F8FC012748EB
:1057B00001782046FFF7CAFF022804D12946204677
:1057C000FFF76CFB70BD2046FFF7A6FB02E020460A
:1057D000FFF7A2FB36E01D48007870B9022084F87C
:1057E000FC011A4800786060184801782046FFF7ED
:1057F00010FB2046FFF790FB1EE014490978606813
:10580000884216D021792046FFF703FB0F48007825
:1058100060600E4801782046FFF798FF022804D107
:1058200029462046FFF73AFBCCE72046FFF774FBFA
:1058300002E02046FFF770FB04E029462046FFF710
:105840002DFB00BF00BF00BFBCE700004C000020E4
:1058500070B504460D46688801280AD1C4F80402D0
:10586000D4F8140229468268204690472046FFF764
:1058700053FB70BD10B504462046FFF7FCFE002028
:1058800010BD70B505460C46002660780A2829D25E
:10589000DFE800F01923281E280A0528140F2146E6
:1058A0002846FFF707FC22E021462846FFF724FFA1
:1058B0001DE021462846FFF75BFF18E021462846F9
:1058C000FFF7D0FB13E021462846FFF7A1FC0EE0CE
:1058D00021462846FFF7BCFF09E021462846FFF78E
:1058E000A3FA04E021462846FFF7D8FA00BF00BF1C
:1058F000304670BD2DE9F04105460E464FF00008D8
:1059000034797078002855D001282AD003287AD11C
:1059100095F8FC01022802D003281BD107E02CB126
:10592000802C03D021462846FFF79BFE17E07088A5
:1059300030B92CB1802C03D021462846FFF791FEC8
:10594000D5F8140231468268284690472846FFF76A
:10595000E3FA04E031462846FFF7A0FA00BF00BF93
:1059600062E095F8FC01022802D003281BD107E071
:105970002CB1802C03D021462846FFF772FE17E099
:10598000708878B904F07F0048B121462846FFF7B7
:10599000A3FCD5F814023146826828469047284671
:1059A000FFF7BAFA04E031462846FFF777FA00BF5E
:1059B00000BF39E095F8FC01022802D003282BD162
:1059C00007E004F07F0018B121462846FFF749FEA2
:1059D00027E004F08000802806D104F07F0105F163
:1059E000140000EB011005E004F07F0105F5827062
:1059F00000EB0110074621462846FFF771FD18B15C
:105A00000120386002E00EE00020386002223946B2
:105A10002846FFF770FA04E031462846FFF73EFAC1
:105A200000BF00BF00E000BF00BF4046BDE8F081FE
:105A300070B504460D46002694F8FC01032814D1E5
:105A4000287901280CDCD4F8140229468268204603
:105A50009047E88840B93EB92046FFF75DFA03E079
:105A600029462046FFF71AFA04E029462046FFF7A8
:105A700015FA00BF00BF002070BD000010B502463F
:105A8000487801282BD140F61C0080580C7801235F
:105A9000A3409BB2184340F61C039850087802F5C7
:105AA000106303EB4010006800F40040F0BB08896D
:105AB000C0F30A00CB7840EA83400B7840EA835079
:105AC00040F0805040F4004002F5106404EB4313B2
:105AD0001B6818430B7804EB431318602CE040F666
